{"abi":[{"type":"constructor","inputs":[{"name":"_token","type":"address","internalType":"contract IERC20"},{"name":"_vault","type":"address","internalType":"contract HouseVault"},{"name":"_randomness","type":"address","internalType":"contract RandomnessProvider"},{"name":"_sessionManager","type":"address","internalType":"contract SessionManager"},{"name":"_feeCollector","type":"address","internalType":"contract FeeCollector"},{"name":"_leaderboard","type":"address","internalType":"contract Leaderboard"}],"stateMutability":"nonpayable"},{"type":"function","name":"BPS","inputs":[],"outputs":[{"name":"","type":"uint256","internalType":"uint256"}],"stateMutability":"view"},{"type":"function","name":"PAYOUT_MULTIPLIER_BPS","inputs":[],"outputs":[{"name":"","type":"uint256","internalType":"uint256"}],"stateMutability":"view"},{"type":"function","name":"acceptOwnership","inputs":[],"outputs":[],"stateMutability":"nonpayable"},{"type":"function","name":"bets","inputs":[{"name":"","type":"uint256","internalType":"uint256"}],"outputs":[{"name":"player","type":"address","internalType":"address"},{"name":"amount","type":"uint256","internalType":"uint256"},{"name":"feeAmount","type":"uint256","internalType":"uint256"},{"name":"choice","type":"uint8","internalType":"enum CoinFlip.Choice"},{"name":"commitId","type":"uint256","internalType":"uint256"},{"name":"status","type":"uint8","internalType":"enum CoinFlip.BetStatus"},{"name":"payout","type":"uint256","internalType":"uint256"}],"stateMutability":"view"},{"type":"function","name":"calculatePayout","inputs":[{"name":"betAmount","type":"uint256","internalType":"uint256"}],"outputs":[{"name":"","type":"uint256","internalType":"uint256"}],"stateMutability":"pure"},{"type":"function","name":"claimTimeout","inputs":[{"name":"betId","type":"uint256","internalType":"uint256"}],"outputs":[],"stateMutability":"nonpayable"},{"type":"function","name":"commitToBet","inputs":[{"name":"","type":"uint256","internalType":"uint256"}],"outputs":[{"name":"","type":"uint256","internalType":"uint256"}],"stateMutability":"view"},{"type":"function","name":"feeCollector","inputs":[],"outputs":[{"name":"","type":"address","internalType":"contract FeeCollector"}],"stateMutability":"view"},{"type":"function","name":"getBet","inputs":[{"name":"betId","type":"uint256","internalType":"uint256"}],"outputs":[{"name":"","type":"tuple","internalType":"struct CoinFlip.Bet","components":[{"name":"player","type":"address","internalType":"address"},{"name":"amount","type":"uint256","internalType":"uint256"},{"name":"feeAmount","type":"uint256","internalType":"uint256"},{"name":"choice","type":"uint8","internalType":"enum CoinFlip.Choice"},{"name":"commitId","type":"uint256","internalType":"uint256"},{"name":"status","type":"uint8","internalType":"enum CoinFlip.BetStatus"},{"name":"payout","type":"uint256","internalType":"uint256"}]}],"stateMutability":"view"},{"type":"function","name":"leaderboard","inputs":[],"outputs":[{"name":"","type":"address","internalType":"contract Leaderboard"}],"stateMutability":"view"},{"type":"function","name":"nextBetId","inputs":[],"outputs":[{"name":"","type":"uint256","internalType":"uint256"}],"stateMutability":"view"},{"type":"function","name":"owner","inputs":[],"outputs":[{"name":"","type":"address","internalType":"address"}],"stateMutability":"view"},{"type":"function","name":"paused","inputs":[],"outputs":[{"name":"","type":"bool","internalType":"bool"}],"stateMutability":"view"},{"type":"function","name":"pendingOwner","inputs":[],"outputs":[{"name":"","type":"address","internalType":"address"}],"stateMutability":"view"},{"type":"function","name":"placeBet","inputs":[{"name":"amount","type":"uint256","internalType":"uint256"},{"name":"choice","type":"uint8","internalType":"enum CoinFlip.Choice"},{"name":"playerCommitHash","type":"bytes32","internalType":"bytes32"}],"outputs":[{"name":"betId","type":"uint256","internalType":"uint256"}],"stateMutability":"nonpayable"},{"type":"function","name":"placeBetWithSession","inputs":[{"name":"sessionId","type":"uint256","internalType":"uint256"},{"name":"amount","type":"uint256","internalType":"uint256"},{"name":"choice","type":"uint8","internalType":"enum CoinFlip.Choice"},{"name":"playerCommitHash","type":"bytes32","internalType":"bytes32"}],"outputs":[{"name":"betId","type":"uint256","internalType":"uint256"}],"stateMutability":"nonpayable"},{"type":"function","name":"randomness","inputs":[],"outputs":[{"name":"","type":"address","internalType":"contract RandomnessProvider"}],"stateMutability":"view"},{"type":"function","name":"renounceOwnership","inputs":[],"outputs":[],"stateMutability":"nonpayable"},{"type":"function","name":"resolveBet","inputs":[{"name":"betId","type":"uint256","internalType":"uint256"},{"name":"playerSeed","type":"bytes32","internalType":"bytes32"}],"outputs":[],"stateMutability":"nonpayable"},{"type":"function","name":"sessionManager","inputs":[],"outputs":[{"name":"","type":"address","internalType":"contract SessionManager"}],"stateMutability":"view"},{"type":"function","name":"setPaused","inputs":[{"name":"_paused","type":"bool","internalType":"bool"}],"outputs":[],"stateMutability":"nonpayable"},{"type":"function","name":"token","inputs":[],"outputs":[{"name":"","type":"address","internalType":"contract IERC20"}],"stateMutability":"view"},{"type":"function","name":"transferOwnership","inputs":[{"name":"newOwner","type":"address","internalType":"address"}],"outputs":[],"stateMutability":"nonpayable"},{"type":"function","name":"vault","inputs":[],"outputs":[{"name":"","type":"address","internalType":"contract HouseVault"}],"stateMutability":"view"},{"type":"event","name":"BetPlaced","inputs":[{"name":"betId","type":"uint256","indexed":true,"internalType":"uint256"},{"name":"player","type":"address","indexed":true,"internalType":"address"},{"name":"amount","type":"uint256","indexed":false,"internalType":"uint256"},{"name":"choice","type":"uint8","indexed":false,"internalType":"enum CoinFlip.Choice"},{"name":"commitId","type":"uint256","indexed":false,"internalType":"uint256"}],"anonymous":false},{"type":"event","name":"BetRefunded","inputs":[{"name":"betId","type":"uint256","indexed":true,"internalType":"uint256"},{"name":"player","type":"address","indexed":true,"internalType":"address"},{"name":"amount","type":"uint256","indexed":false,"internalType":"uint256"}],"anonymous":false},{"type":"event","name":"BetResolved","inputs":[{"name":"betId","type":"uint256","indexed":true,"internalType":"uint256"},{"name":"player","type":"address","indexed":true,"internalType":"address"},{"name":"won","type":"bool","indexed":false,"internalType":"bool"},{"name":"payout","type":"uint256","indexed":false,"internalType":"uint256"},{"name":"result","type":"uint8","indexed":false,"internalType":"enum CoinFlip.Choice"}],"anonymous":false},{"type":"event","name":"OwnershipTransferStarted","inputs":[{"name":"previousOwner","type":"address","indexed":true,"internalType":"address"},{"name":"newOwner","type":"address","indexed":true,"internalType":"address"}],"anonymous":false},{"type":"event","name":"OwnershipTransferred","inputs":[{"name":"previousOwner","type":"address","indexed":true,"internalType":"address"},{"name":"newOwner","type":"address","indexed":true,"internalType":"address"}],"anonymous":false},{"type":"event","name":"Paused","inputs":[{"name":"isPaused","type":"bool","indexed":false,"internalType":"bool"}],"anonymous":false},{"type":"error","name":"BetNotPending","inputs":[{"name":"betId","type":"uint256","internalType":"uint256"}]},{"type":"error","name":"BetTooLarge","inputs":[{"name":"amount","type":"uint256","internalType":"uint256"},{"name":"max","type":"uint256","internalType":"uint256"}]},{"type":"error","name":"GamePaused","inputs":[]},{"type":"error","name":"InvalidBet","inputs":[{"name":"betId","type":"uint256","internalType":"uint256"}]},{"type":"error","name":"NotBetPlayer","inputs":[{"name":"betId","type":"uint256","internalType":"uint256"}]},{"type":"error","name":"OwnableInvalidOwner","inputs":[{"name":"owner","type":"address","internalType":"address"}]},{"type":"error","name":"OwnableUnauthorizedAccount","inputs":[{"name":"account","type":"address","internalType":"address"}]},{"type":"error","name":"ReentrancyGuardReentrantCall","inputs":[]},{"type":"error","name":"SafeERC20FailedOperation","inputs":[{"name":"token","type":"address","internalType":"address"}]},{"type":"error","name":"ZeroAmount","inputs":[]}],"bytecode":{"object":"0x610140604052600160025534801562000016575f80fd5b5060405162001ef338038062001ef3833981016040819052620000399162000141565b33806200005f57604051631e4fbdf760e01b81525f600482015260240160405180910390fd5b6200006a81620000bf565b5060017f9b779b17422d0df92223018b32b4d1fa46e071723d6817e2486d003becc55f00556001600160a01b0395861660805293851660a05291841660c052831660e0528216610100521661012052620001d1565b600180546001600160a01b0319169055620000da81620000dd565b50565b5f80546001600160a01b038381166001600160a01b0319831681178455604051919092169283917f8be0079c531659141344cd1fd0a4f28419497f9722a3daafe3b4186f6b6457e09190a35050565b6001600160a01b0381168114620000da575f80fd5b5f805f805f8060c0878903121562000157575f80fd5b865162000164816200012c565b602088015190965062000177816200012c565b60408801519095506200018a816200012c565b60608801519094506200019d816200012c565b6080880151909350620001b0816200012c565b60a0880151909250620001c3816200012c565b809150509295509295509295565b60805160a05160c05160e0516101005161012051611c2b620002c85f395f818161038c01528181610c7e0152610d6601525f818161035401528181610620015281816108e20152818161091e015281816110c00152818161137a01526113b601525f818161032d015261102b01525f8181610247015281816106b801528181610add01528181611150015261156d01525f81816103c60152818161055601528181610887015281816109ab01528181610c0b01528181610f550152818161131f01528181611443015261161601525f81816103ed01528181610864015281816108bf015281816112fc01526113570152611c2b5ff3fe608060405234801561000f575f80fd5b5060043610610153575f3560e01c80637a61e071116100bf578063c415b95c11610079578063c415b95c1461034f578063e30c397814610376578063eb56b74014610387578063f2fde38b146103ae578063fbfa77cf146103c1578063fc0c546a146103e8575f80fd5b80637a61e071146102ca57806386e773f1146102dd5780638da5cb5b146102f057806392f6983d146103005780639aca27921461031f578063b7b13f7914610328575f80fd5b8063360131891161011057806336013189146102425780633a573d12146102815780633bb91c771461028a5780635c975abb1461029d578063715018a6146102ba57806379ba5097146102c2575f80fd5b8063061e494f146101575780631283147b146101805780631424ed3e146101a157806316c38b3c146101b657806322af00fa146101c9578063249d39e914610239575b5f80fd5b61016a6101653660046118c3565b61040f565b6040516101779190611912565b60405180910390f35b61019361018e366004611989565b610506565b604051908152602001610177565b6101b46101af3660046119bb565b610a6a565b005b6101b46101c43660046119db565b610e3f565b6102266101d73660046118c3565b600360208190525f918252604090912080546001820154600283015493830154600484015460058501546006909501546001600160a01b03909416959294929360ff9283169391929091169087565b60405161017797969594939291906119fa565b61019361271081565b6102697f000000000000000000000000000000000000000000000000000000000000000081565b6040516001600160a01b039091168152602001610177565b610193614c9081565b6101936102983660046118c3565b610e8e565b6005546102aa9060ff1681565b6040519015158152602001610177565b6101b4610eae565b6101b4610ec1565b6101936102d8366004611a4a565b610f05565b6101b46102eb3660046118c3565b611503565b5f546001600160a01b0316610269565b61019361030e3660046118c3565b60046020525f908152604090205481565b61019360025481565b6102697f000000000000000000000000000000000000000000000000000000000000000081565b6102697f000000000000000000000000000000000000000000000000000000000000000081565b6001546001600160a01b0316610269565b6102697f000000000000000000000000000000000000000000000000000000000000000081565b6101b46103bc366004611a98565b6116cc565b6102697f000000000000000000000000000000000000000000000000000000000000000081565b6102697f000000000000000000000000000000000000000000000000000000000000000081565b6040805160e0810182525f80825260208201819052918101829052606081018290526080810182905260a0810182905260c08101919091525f82815260036020818152604092839020835160e08101855281546001600160a01b031681526001808301549382019390935260028201549481019490945291820154606084019160ff909116908111156104a4576104a46118da565b60018111156104b5576104b56118da565b81526004828101546020830152600583015460409092019160ff16908111156104e0576104e06118da565b60048111156104f1576104f16118da565b81526020016006820154815250509050919050565b5f61050f61173c565b60055460ff16156105335760405163379a7ed960e01b815260040160405180910390fd5b835f0361055357604051631f2a200560e01b815260040160405180910390fd5b5f7f00000000000000000000000000000000000000000000000000000000000000006001600160a01b0316632e5b21686040518163ffffffff1660e01b8152600401602060405180830381865afa1580156105b0573d5f803e3d5ffd5b505050506040513d601f19601f820116820180604052508101906105d49190611ab3565b90508085111561060657604051631a768ccb60e21b815260048101869052602481018290526044015b60405180910390fd5b6040516399a5d74760e01b81526004810186905233905f907f00000000000000000000000000000000000000000000000000000000000000006001600160a01b0316906399a5d74790602401602060405180830381865afa15801561066d573d5f803e3d5ffd5b505050506040513d601f19601f820116820180604052508101906106919190611ab3565b90505f61069e8289611ade565b600280549192505f6106af83611af1565b9190505594505f7f00000000000000000000000000000000000000000000000000000000000000006001600160a01b0316637b2141cb8589896040518463ffffffff1660e01b815260040161070693929190611b09565b6020604051808303815f875af1158015610722573d5f803e3d5ffd5b505050506040513d601f19601f820116820180604052508101906107469190611ab3565b90506040518060e00160405280856001600160a01b03168152602001838152602001848152602001896001811115610780576107806118da565b815260208101839052604001600181525f60209182018190528881526003808352604091829020845181546001600160a01b0319166001600160a01b0390911617815592840151600180850191909155918401516002840155606084015190830180549192909160ff19169083818111156107fd576107fd6118da565b02179055506080820151816004015560a0820151816005015f6101000a81548160ff02191690836004811115610835576108356118da565b021790555060c091909101516006909101555f8181526004602052604090208690556108ac6001600160a01b037f000000000000000000000000000000000000000000000000000000000000000016857f000000000000000000000000000000000000000000000000000000000000000085611757565b8215610985576109076001600160a01b037f000000000000000000000000000000000000000000000000000000000000000016857f000000000000000000000000000000000000000000000000000000000000000086611757565b6040516326885e3360e21b81526001600160a01b037f00000000000000000000000000000000000000000000000000000000000000001690639a2178cc906109579087908d908890600401611b09565b5f604051808303815f87803b15801561096e575f80fd5b505af1158015610980573d5f803e3d5ffd5b505050505b6040516376950c4960e11b81526001600160a01b038581166004830152602482018490527f0000000000000000000000000000000000000000000000000000000000000000169063ed2a1892906044015f604051808303815f87803b1580156109ec575f80fd5b505af11580156109fe573d5f803e3d5ffd5b50505050836001600160a01b0316867f7cdde6d299ea8fdc0aceb52128ad2948a1db7494031bd05ca26c6ae74b6e33b4848b85604051610a4093929190611b2a565b60405180910390a35050505050610a6360015f80516020611bd683398151915255565b9392505050565b610a7261173c565b5f8281526003602052604090206001600582015460ff166004811115610a9a57610a9a6118da565b14610abb57604051630992a63560e11b8152600481018490526024016105fd565b6004818101546040516313e8626560e01b815291820152602481018390525f907f00000000000000000000000000000000000000000000000000000000000000006001600160a01b0316906313e8626590604401602060405180830381865afa158015610b2a573d5f803e3d5ffd5b505050506040513d601f19601f82011682018060405250810190610b4e9190611ab3565b90505f610b5c600283611b60565b90505f816001811115610b7157610b716118da565b60038501549091505f9060ff166001811115610b8f57610b8f6118da565b826001811115610ba157610ba16118da565b1490508015610d39575f612710614c908760010154610bc09190611b73565b610bca9190611b8a565b60058701805460ff1916600217905560068701819055865460405163cf8d133f60e01b81526001600160a01b039182166004820152602481018390529192507f0000000000000000000000000000000000000000000000000000000000000000169063cf8d133f906044015f604051808303815f87803b158015610c4c575f80fd5b505af1158015610c5e573d5f803e3d5ffd5b5050875460018901546040516376703c2d60e11b81526001600160a01b037f00000000000000000000000000000000000000000000000000000000000000008116955063ece0785a9450610cb9931691908690600401611b09565b5f604051808303815f87803b158015610cd0575f80fd5b505af1158015610ce2573d5f803e3d5ffd5b505087546040516001600160a01b0390911692508a91507fae4ead74dd7eb9dc29f2257168c62c4ea29a43fc9250486a67c158250132639490610d2b9060019086908990611b9d565b60405180910390a350610e20565b60058501805460ff191660031790555f60068601819055855460018701546040516376703c2d60e11b81527f00000000000000000000000000000000000000000000000000000000000000006001600160a01b039081169463ece0785a94610da694921692600401611b09565b5f604051808303815f87803b158015610dbd575f80fd5b505af1158015610dcf573d5f803e3d5ffd5b505086546040516001600160a01b0390911692508991507fae4ead74dd7eb9dc29f2257168c62c4ea29a43fc9250486a67c158250132639490610e17905f9081908890611b9d565b60405180910390a35b5050505050610e3b60015f80516020611bd683398151915255565b5050565b610e47611793565b6005805460ff19168215159081179091556040519081527f0e2fb031ee032dc02d8011dc50b816eb450cf856abd8261680dac74f72165bd29060200160405180910390a150565b5f612710610e9e614c9084611b73565b610ea89190611b8a565b92915050565b610eb6611793565b610ebf5f6117bf565b565b60015433906001600160a01b03168114610ef95760405163118cdaa760e01b81526001600160a01b03821660048201526024016105fd565b610f02816117bf565b50565b5f610f0e61173c565b60055460ff1615610f325760405163379a7ed960e01b815260040160405180910390fd5b835f03610f5257604051631f2a200560e01b815260040160405180910390fd5b5f7f00000000000000000000000000000000000000000000000000000000000000006001600160a01b0316632e5b21686040518163ffffffff1660e01b8152600401602060405180830381865afa158015610faf573d5f803e3d5ffd5b505050506040513d601f19601f82011682018060405250810190610fd39190611ab3565b90508085111561100057604051631a768ccb60e21b815260048101869052602481018290526044016105fd565b60405163f7aec64d60e01b815260048101879052336024820152306044820152606481018690525f907f00000000000000000000000000000000000000000000000000000000000000006001600160a01b03169063f7aec64d906084016020604051808303815f875af1158015611079573d5f803e3d5ffd5b505050506040513d601f19601f8201168201806040525081019061109d9190611bba565b6040516399a5d74760e01b8152600481018890529091505f906001600160a01b037f000000000000000000000000000000000000000000000000000000000000000016906399a5d74790602401602060405180830381865afa158015611105573d5f803e3d5ffd5b505050506040513d601f19601f820116820180604052508101906111299190611ab3565b90505f6111368289611ade565b600280549192505f61114783611af1565b9190505594505f7f00000000000000000000000000000000000000000000000000000000000000006001600160a01b0316637b2141cb8589896040518463ffffffff1660e01b815260040161119e93929190611b09565b6020604051808303815f875af11580156111ba573d5f803e3d5ffd5b505050506040513d601f19601f820116820180604052508101906111de9190611ab3565b90506040518060e00160405280856001600160a01b03168152602001838152602001848152602001896001811115611218576112186118da565b815260208101839052604001600181525f60209182018190528881526003808352604091829020845181546001600160a01b0319166001600160a01b0390911617815592840151600180850191909155918401516002840155606084015190830180549192909160ff1916908381811115611295576112956118da565b02179055506080820151816004015560a0820151816005015f6101000a81548160ff021916908360048111156112cd576112cd6118da565b021790555060c091909101516006909101555f8181526004602052604090208690556113446001600160a01b037f000000000000000000000000000000000000000000000000000000000000000016857f000000000000000000000000000000000000000000000000000000000000000085611757565b821561141d5761139f6001600160a01b037f000000000000000000000000000000000000000000000000000000000000000016857f000000000000000000000000000000000000000000000000000000000000000086611757565b6040516326885e3360e21b81526001600160a01b037f00000000000000000000000000000000000000000000000000000000000000001690639a2178cc906113ef9087908d908890600401611b09565b5f604051808303815f87803b158015611406575f80fd5b505af1158015611418573d5f803e3d5ffd5b505050505b6040516376950c4960e11b81526001600160a01b038581166004830152602482018490527f0000000000000000000000000000000000000000000000000000000000000000169063ed2a1892906044015f604051808303815f87803b158015611484575f80fd5b505af1158015611496573d5f803e3d5ffd5b50505050836001600160a01b0316867f7cdde6d299ea8fdc0aceb52128ad2948a1db7494031bd05ca26c6ae74b6e33b4848b856040516114d893929190611b2a565b60405180910390a350505050506114fb60015f80516020611bd683398151915255565b949350505050565b61150b61173c565b5f8181526003602052604090206001600582015460ff166004811115611533576115336118da565b1461155457604051630992a63560e11b8152600481018390526024016105fd565b6004818101546040516365159e2960e11b8152918201527f00000000000000000000000000000000000000000000000000000000000000006001600160a01b03169063ca2b3c52906024015f604051808303815f87803b1580156115b6575f80fd5b505af11580156115c8573d5f803e3d5ffd5b5050506005820180546004925060ff19166001830217905550600181015460068201819055815460405163cf8d133f60e01b81526001600160a01b03918216600482015260248101929092527f0000000000000000000000000000000000000000000000000000000000000000169063cf8d133f906044015f604051808303815f87803b158015611657575f80fd5b505af1158015611669573d5f803e3d5ffd5b5050825460018401546040519081526001600160a01b0390911692508491507ff22517a5eae9f54be712c3150eca5ba925d233687b223c2ebf89272f12ee08659060200160405180910390a350610f0260015f80516020611bd683398151915255565b6116d4611793565b600180546001600160a01b0383166001600160a01b031990911681179091556117045f546001600160a01b031690565b6001600160a01b03167f38d16b8cac22d99fc7c124b9cd0de2d3fa1faef420bfe791d8c362d765e2270060405160405180910390a350565b6117446117d8565b60025f80516020611bd683398151915255565b611765848484846001611807565b61178d57604051635274afe760e01b81526001600160a01b03851660048201526024016105fd565b50505050565b5f546001600160a01b03163314610ebf5760405163118cdaa760e01b81523360048201526024016105fd565b600180546001600160a01b0319169055610f0281611874565b5f80516020611bd683398151915254600203610ebf57604051633ee5aeb560e01b815260040160405180910390fd5b6040516323b872dd60e01b5f8181526001600160a01b038781166004528616602452604485905291602083606481808c5af1925060015f51148316611863578383151615611857573d5f823e3d81fd5b5f883b113d1516831692505b604052505f60605295945050505050565b5f80546001600160a01b038381166001600160a01b0319831681178455604051919092169283917f8be0079c531659141344cd1fd0a4f28419497f9722a3daafe3b4186f6b6457e09190a35050565b5f602082840312156118d3575f80fd5b5035919050565b634e487b7160e01b5f52602160045260245ffd5b600281106118fe576118fe6118da565b9052565b600581106118fe576118fe6118da565b81516001600160a01b03168152602080830151908201526040808301519082015260608083015160e083019161194a908401826118ee565b506080830151608083015260a083015161196760a0840182611902565b5060c092830151919092015290565b803560028110611984575f80fd5b919050565b5f805f6060848603121561199b575f80fd5b833592506119ab60208501611976565b9150604084013590509250925092565b5f80604083850312156119cc575f80fd5b50508035926020909101359150565b5f602082840312156119eb575f80fd5b81358015158114610a63575f80fd5b6001600160a01b0388168152602081018790526040810186905260e08101611a2560608301876118ee565b846080830152611a3860a0830185611902565b8260c083015298975050505050505050565b5f805f8060808587031215611a5d575f80fd5b8435935060208501359250611a7460408601611976565b9396929550929360600135925050565b6001600160a01b0381168114610f02575f80fd5b5f60208284031215611aa8575f80fd5b8135610a6381611a84565b5f60208284031215611ac3575f80fd5b5051919050565b634e487b7160e01b5f52601160045260245ffd5b81810381811115610ea857610ea8611aca565b5f60018201611b0257611b02611aca565b5060010190565b6001600160a01b039390931683526020830191909152604082015260600190565b83815260608101611b3e60208301856118ee565b826040830152949350505050565b634e487b7160e01b5f52601260045260245ffd5b5f82611b6e57611b6e611b4c565b500690565b8082028115828204841417610ea857610ea8611aca565b5f82611b9857611b98611b4c565b500490565b831515815260208101839052606081016114fb60408301846118ee565b5f60208284031215611bca575f80fd5b8151610a6381611a8456fe9b779b17422d0df92223018b32b4d1fa46e071723d6817e2486d003becc55f00a264697066735822122045ad054b819779ae1dc5816a7058aaff0eee9061a4186da3cf3b50509e81303e64736f6c63430008180033","linkReferences":{}},"methodIdentifiers":{"BPS()":"249d39e9","PAYOUT_MULTIPLIER_BPS()":"3a573d12","acceptOwnership()":"79ba5097","bets(uint256)":"22af00fa","calculatePayout(uint256)":"3bb91c77","claimTimeout(uint256)":"86e773f1","commitToBet(uint256)":"92f6983d","feeCollector()":"c415b95c","getBet(uint256)":"061e494f","leaderboard()":"eb56b740","nextBetId()":"9aca2792","owner()":"8da5cb5b","paused()":"5c975abb","pendingOwner()":"e30c3978","placeBet(uint256,uint8,bytes32)":"1283147b","placeBetWithSession(uint256,uint256,uint8,bytes32)":"7a61e071","randomness()":"36013189","renounceOwnership()":"715018a6","resolveBet(uint256,bytes32)":"1424ed3e","sessionManager()":"b7b13f79","setPaused(bool)":"16c38b3c","token()":"fc0c546a","transferOwnership(address)":"f2fde38b","vault()":"fbfa77cf"},"id":45}