{"abi":[{"type":"constructor","inputs":[{"name":"_houseOperator","type":"address","internalType":"address"},{"name":"_revealTimeout","type":"uint256","internalType":"uint256"}],"stateMutability":"nonpayable"},{"type":"function","name":"acceptOwnership","inputs":[],"outputs":[],"stateMutability":"nonpayable"},{"type":"function","name":"authorizeGame","inputs":[{"name":"game","type":"address","internalType":"address"}],"outputs":[],"stateMutability":"nonpayable"},{"type":"function","name":"authorizedGames","inputs":[{"name":"","type":"address","internalType":"address"}],"outputs":[{"name":"","type":"bool","internalType":"bool"}],"stateMutability":"view"},{"type":"function","name":"commit","inputs":[{"name":"player","type":"address","internalType":"address"},{"name":"playerCommitHash","type":"bytes32","internalType":"bytes32"},{"name":"betId","type":"uint256","internalType":"uint256"}],"outputs":[{"name":"commitId","type":"uint256","internalType":"uint256"}],"stateMutability":"nonpayable"},{"type":"function","name":"commitments","inputs":[{"name":"","type":"uint256","internalType":"uint256"}],"outputs":[{"name":"player","type":"address","internalType":"address"},{"name":"game","type":"address","internalType":"address"},{"name":"playerCommitHash","type":"bytes32","internalType":"bytes32"},{"name":"serverSeed","type":"bytes32","internalType":"bytes32"},{"name":"betId","type":"uint256","internalType":"uint256"},{"name":"commitBlock","type":"uint256","internalType":"uint256"},{"name":"commitTimestamp","type":"uint256","internalType":"uint256"},{"name":"status","type":"uint8","internalType":"enum RandomnessProvider.CommitStatus"}],"stateMutability":"view"},{"type":"function","name":"getCommitStatus","inputs":[{"name":"commitId","type":"uint256","internalType":"uint256"}],"outputs":[{"name":"","type":"uint8","internalType":"enum RandomnessProvider.CommitStatus"}],"stateMutability":"view"},{"type":"function","name":"getCommitment","inputs":[{"name":"commitId","type":"uint256","internalType":"uint256"}],"outputs":[{"name":"player","type":"address","internalType":"address"},{"name":"game","type":"address","internalType":"address"},{"name":"playerCommitHash","type":"bytes32","internalType":"bytes32"},{"name":"serverSeed","type":"bytes32","internalType":"bytes32"},{"name":"betId","type":"uint256","internalType":"uint256"},{"name":"commitBlock","type":"uint256","internalType":"uint256"},{"name":"commitTimestamp","type":"uint256","internalType":"uint256"},{"name":"status","type":"uint8","internalType":"enum RandomnessProvider.CommitStatus"}],"stateMutability":"view"},{"type":"function","name":"getResult","inputs":[{"name":"commitId","type":"uint256","internalType":"uint256"},{"name":"playerSeed","type":"bytes32","internalType":"bytes32"}],"outputs":[{"name":"","type":"bytes32","internalType":"bytes32"}],"stateMutability":"view"},{"type":"function","name":"houseOperator","inputs":[],"outputs":[{"name":"","type":"address","internalType":"address"}],"stateMutability":"view"},{"type":"function","name":"isTimedOut","inputs":[{"name":"commitId","type":"uint256","internalType":"uint256"}],"outputs":[{"name":"","type":"bool","internalType":"bool"}],"stateMutability":"view"},{"type":"function","name":"markTimedOut","inputs":[{"name":"commitId","type":"uint256","internalType":"uint256"}],"outputs":[],"stateMutability":"nonpayable"},{"type":"function","name":"nextCommitId","inputs":[],"outputs":[{"name":"","type":"uint256","internalType":"uint256"}],"stateMutability":"view"},{"type":"function","name":"owner","inputs":[],"outputs":[{"name":"","type":"address","internalType":"address"}],"stateMutability":"view"},{"type":"function","name":"pendingOwner","inputs":[],"outputs":[{"name":"","type":"address","internalType":"address"}],"stateMutability":"view"},{"type":"function","name":"renounceOwnership","inputs":[],"outputs":[],"stateMutability":"nonpayable"},{"type":"function","name":"reveal","inputs":[{"name":"commitId","type":"uint256","internalType":"uint256"},{"name":"serverSeed","type":"bytes32","internalType":"bytes32"},{"name":"playerSeed","type":"bytes32","internalType":"bytes32"}],"outputs":[{"name":"resultHash","type":"bytes32","internalType":"bytes32"}],"stateMutability":"nonpayable"},{"type":"function","name":"revealTimeout","inputs":[],"outputs":[{"name":"","type":"uint256","internalType":"uint256"}],"stateMutability":"view"},{"type":"function","name":"revokeGame","inputs":[{"name":"game","type":"address","internalType":"address"}],"outputs":[],"stateMutability":"nonpayable"},{"type":"function","name":"setHouseOperator","inputs":[{"name":"_operator","type":"address","internalType":"address"}],"outputs":[],"stateMutability":"nonpayable"},{"type":"function","name":"setRevealTimeout","inputs":[{"name":"_timeout","type":"uint256","internalType":"uint256"}],"outputs":[],"stateMutability":"nonpayable"},{"type":"function","name":"transferOwnership","inputs":[{"name":"newOwner","type":"address","internalType":"address"}],"outputs":[],"stateMutability":"nonpayable"},{"type":"event","name":"CommitmentCreated","inputs":[{"name":"commitId","type":"uint256","indexed":true,"internalType":"uint256"},{"name":"player","type":"address","indexed":true,"internalType":"address"},{"name":"game","type":"address","indexed":true,"internalType":"address"},{"name":"playerCommitHash","type":"bytes32","indexed":false,"internalType":"bytes32"},{"name":"betId","type":"uint256","indexed":false,"internalType":"uint256"}],"anonymous":false},{"type":"event","name":"CommitmentRevealed","inputs":[{"name":"commitId","type":"uint256","indexed":true,"internalType":"uint256"},{"name":"serverSeed","type":"bytes32","indexed":false,"internalType":"bytes32"},{"name":"resultHash","type":"bytes32","indexed":false,"internalType":"bytes32"}],"anonymous":false},{"type":"event","name":"CommitmentTimedOut","inputs":[{"name":"commitId","type":"uint256","indexed":true,"internalType":"uint256"}],"anonymous":false},{"type":"event","name":"GameAuthorized","inputs":[{"name":"game","type":"address","indexed":true,"internalType":"address"}],"anonymous":false},{"type":"event","name":"GameRevoked","inputs":[{"name":"game","type":"address","indexed":true,"internalType":"address"}],"anonymous":false},{"type":"event","name":"HouseOperatorUpdated","inputs":[{"name":"oldOperator","type":"address","indexed":true,"internalType":"address"},{"name":"newOperator","type":"address","indexed":true,"internalType":"address"}],"anonymous":false},{"type":"event","name":"OwnershipTransferStarted","inputs":[{"name":"previousOwner","type":"address","indexed":true,"internalType":"address"},{"name":"newOwner","type":"address","indexed":true,"internalType":"address"}],"anonymous":false},{"type":"event","name":"OwnershipTransferred","inputs":[{"name":"previousOwner","type":"address","indexed":true,"internalType":"address"},{"name":"newOwner","type":"address","indexed":true,"internalType":"address"}],"anonymous":false},{"type":"event","name":"RevealTimeoutUpdated","inputs":[{"name":"oldTimeout","type":"uint256","indexed":false,"internalType":"uint256"},{"name":"newTimeout","type":"uint256","indexed":false,"internalType":"uint256"}],"anonymous":false},{"type":"error","name":"InvalidCommitStatus","inputs":[{"name":"commitId","type":"uint256","internalType":"uint256"},{"name":"current","type":"uint8","internalType":"enum RandomnessProvider.CommitStatus"},{"name":"expected","type":"uint8","internalType":"enum RandomnessProvider.CommitStatus"}]},{"type":"error","name":"InvalidPlayerSeed","inputs":[{"name":"commitId","type":"uint256","internalType":"uint256"}]},{"type":"error","name":"NotAuthorizedGame","inputs":[]},{"type":"error","name":"NotHouseOperator","inputs":[]},{"type":"error","name":"OwnableInvalidOwner","inputs":[{"name":"owner","type":"address","internalType":"address"}]},{"type":"error","name":"OwnableUnauthorizedAccount","inputs":[{"name":"account","type":"address","internalType":"address"}]},{"type":"error","name":"RevealTimeoutNotReached","inputs":[{"name":"commitId","type":"uint256","internalType":"uint256"}]},{"type":"error","name":"ZeroAddress","inputs":[]}],"bytecode":{"object":"0x608060405234801561000f575f80fd5b50604051610ea7380380610ea783398101604081905261002e91610118565b338061005357604051631e4fbdf760e01b81525f600482015260240160405180910390fd5b61005c816100ad565b506001600160a01b0382166100845760405163d92e233d60e01b815260040160405180910390fd5b600480546001600160a01b0319166001600160a01b03939093169290921790915560055561014f565b600180546001600160a01b03191690556100c6816100c9565b50565b5f80546001600160a01b038381166001600160a01b0319831681178455604051919092169283917f8be0079c531659141344cd1fd0a4f28419497f9722a3daafe3b4186f6b6457e09190a35050565b5f8060408385031215610129575f80fd5b82516001600160a01b038116811461013f575f80fd5b6020939093015192949293505050565b610d4b8061015c5f395ff3fe608060405234801561000f575f80fd5b5060043610610132575f3560e01c806379dd3d5a116100b4578063af697a6f11610079578063af697a6f14610351578063b9f5f4e614610364578063ca2b3c521461036d578063cc8ac98814610380578063e30c397814610393578063f2fde38b146103a4575f80fd5b806379dd3d5a146102be5780637b2141cb146102d157806384bf51fb146102e45780638da5cb5b1461030f5780639e492b991461031f575f80fd5b806349ce8997116100fa57806349ce8997146101c35780635e4402df1461023757806369bcdb7d1461024a578063715018a6146102ae57806379ba5097146102b6575f80fd5b806301e086e1146101365780630eaa16cc1461014b57806313e862651461018657806338b64085146101a75780634376cb34146101ba575b5f80fd5b610149610144366004610b6c565b6103b7565b005b610170610159366004610b85565b5f9081526003602052604090206007015460ff1690565b60405161017d9190610bd0565b60405180910390f35b610199610194366004610bde565b610407565b60405190815260200161017d565b6101496101b5366004610b85565b6104a7565b61019960055481565b6102236101d1366004610b85565b600360208190525f9182526040909120805460018201546002830154938301546004840154600585015460068601546007909601546001600160a01b0395861697959094169592939192909160ff1688565b60405161017d989796959493929190610bfe565b610149610245366004610b6c565b6104f3565b610223610258366004610b85565b5f908152600360208190526040909120805460018201546002830154938301546004840154600585015460068601546007909601546001600160a01b03958616989590941696959294919390929160ff90911690565b61014961056d565b610149610580565b6101496102cc366004610b6c565b6105c4565b6101996102df366004610c54565b610644565b6004546102f7906001600160a01b031681565b6040516001600160a01b03909116815260200161017d565b5f546001600160a01b03166102f7565b61034161032d366004610b6c565b60066020525f908152604090205460ff1681565b604051901515815260200161017d565b61019961035f366004610c84565b6107ae565b61019960025481565b61014961037b366004610b85565b61090e565b61034161038e366004610b85565b610a05565b6001546001600160a01b03166102f7565b6101496103b2366004610b6c565b610a52565b6103bf610ac2565b6001600160a01b0381165f81815260066020526040808220805460ff19169055517f78b7f19de299af2e39976ccb793c72d123a2a5960c69bfde2f8c8e53437fdb1b9190a250565b5f8281526003602052604081206002600782015460ff16600381111561042f5761042f610b9c565b14610466576007810154604051630e288ab360e11b815261045d91869160ff90911690600290600401610cad565b60405180910390fd5b600381015460408051602081018690529081019190915260608101859052608001604051602081830303815290604052805190602001209150505b92915050565b6104af610ac2565b600580549082905560408051828152602081018490527e53c4be6b343d04e2ea3f9070cae674b6fbb653b9945624223f855ea9fa76b7910160405180910390a15050565b6104fb610ac2565b6001600160a01b0381166105225760405163d92e233d60e01b815260040160405180910390fd5b6001600160a01b0381165f81815260066020526040808220805460ff19166001179055517f84a81ad072505ad49c4e9a66bfcdb55a2cff07cb4ea59ec7dc9cb27a38196a4d9190a250565b610575610ac2565b61057e5f610aee565b565b60015433906001600160a01b031681146105b85760405163118cdaa760e01b81526001600160a01b038216600482015260240161045d565b6105c181610aee565b50565b6105cc610ac2565b6001600160a01b0381166105f35760405163d92e233d60e01b815260040160405180910390fd5b600480546001600160a01b038381166001600160a01b0319831681179093556040519116919082907f6b77a73ee889e514c95d759e3779d33d4da7ce00d74f29c71bd05514b73b5608905f90a35050565b335f9081526006602052604081205460ff166106735760405163032d9f6960e01b815260040160405180910390fd5b60028054905f61068283610cea565b9091555060408051610100810182526001600160a01b0387811682523360208084019182528385018981525f60608601818152608087018b81524360a089019081524260c08a01908152600160e08b018181528d87526003988990529b9095208a5181546001600160a01b0319908116918c1691909117825598518187018054909a169a169990991790975593516002880155905186850155516004860155905160058501559151600684015593516007830180549697509395929490939260ff19169190849081111561075857610758610b9c565b02179055505060408051858152602081018590523392506001600160a01b0387169184917f2d8c1cbd26e8ee941be3e4663f92c370c5af2605c90fdd9c4d3f3ac538458fed910160405180910390a49392505050565b6004545f906001600160a01b031633146107db5760405163bfc1acb160e01b815260040160405180910390fd5b5f8481526003602052604090206001600782015460ff16600381111561080357610803610b9c565b14610831576007810154604051630e288ab360e11b815261045d91879160ff90911690600190600401610cad565b5f8360405160200161084591815260200190565b6040516020818303038152906040528051906020012090508160020154811461088457604051638156361960e01b81526004810187905260240161045d565b60408051602081018690529081018690526060810187905260800160408051808303601f1901815282825280516020918201206003860189905560078601805460ff19166002179055888452908301819052945087917f4cdfe007da4c8c1ecd5831335b3784edae1007177ee6866edde18cdbd9159c8f910160405180910390a250509392505050565b335f9081526006602052604090205460ff1661093d5760405163032d9f6960e01b815260040160405180910390fd5b5f8181526003602052604090206001600782015460ff16600381111561096557610965610b9c565b14610993576007810154604051630e288ab360e11b815261045d91849160ff90911690600190600401610cad565b60055481600601546109a59190610d02565b4210156109c857604051639210cfdd60e01b81526004810183905260240161045d565b60078101805460ff1916600317905560405182907f13d957248c41ef47fb6bb6b563f7cc0bbfa03f05b88df7a74d2798b6a78a72fc905f90a25050565b5f8181526003602052604081206001600782015460ff166003811115610a2d57610a2d610b9c565b148015610a4b57506005548160060154610a479190610d02565b4210155b9392505050565b610a5a610ac2565b600180546001600160a01b0383166001600160a01b03199091168117909155610a8a5f546001600160a01b031690565b6001600160a01b03167f38d16b8cac22d99fc7c124b9cd0de2d3fa1faef420bfe791d8c362d765e2270060405160405180910390a350565b5f546001600160a01b0316331461057e5760405163118cdaa760e01b815233600482015260240161045d565b600180546001600160a01b03191690556105c1815f80546001600160a01b038381166001600160a01b0319831681178455604051919092169283917f8be0079c531659141344cd1fd0a4f28419497f9722a3daafe3b4186f6b6457e09190a35050565b80356001600160a01b0381168114610b67575f80fd5b919050565b5f60208284031215610b7c575f80fd5b610a4b82610b51565b5f60208284031215610b95575f80fd5b5035919050565b634e487b7160e01b5f52602160045260245ffd5b60048110610bcc57634e487b7160e01b5f52602160045260245ffd5b9052565b602081016104a18284610bb0565b5f8060408385031215610bef575f80fd5b50508035926020909101359150565b6001600160a01b0389811682528816602082015260408101879052606081018690526080810185905260a0810184905260c081018390526101008101610c4760e0830184610bb0565b9998505050505050505050565b5f805f60608486031215610c66575f80fd5b610c6f84610b51565b95602085013595506040909401359392505050565b5f805f60608486031215610c96575f80fd5b505081359360208301359350604090920135919050565b83815260608101610cc16020830185610bb0565b610cce6040830184610bb0565b949350505050565b634e487b7160e01b5f52601160045260245ffd5b5f60018201610cfb57610cfb610cd6565b5060010190565b808201808211156104a1576104a1610cd656fea26469706673582212203e3400abd47a7760868d17dc47a0507ad10a1b7d4b4a1c264d69af63265c4c0764736f6c63430008180033","linkReferences":{}},"methodIdentifiers":{"acceptOwnership()":"79ba5097","authorizeGame(address)":"5e4402df","authorizedGames(address)":"9e492b99","commit(address,bytes32,uint256)":"7b2141cb","commitments(uint256)":"49ce8997","getCommitStatus(uint256)":"0eaa16cc","getCommitment(uint256)":"69bcdb7d","getResult(uint256,bytes32)":"13e86265","houseOperator()":"84bf51fb","isTimedOut(uint256)":"cc8ac988","markTimedOut(uint256)":"ca2b3c52","nextCommitId()":"b9f5f4e6","owner()":"8da5cb5b","pendingOwner()":"e30c3978","renounceOwnership()":"715018a6","reveal(uint256,bytes32,bytes32)":"af697a6f","revealTimeout()":"4376cb34","revokeGame(address)":"01e086e1","setHouseOperator(address)":"79dd3d5a","setRevealTimeout(uint256)":"38b64085","transferOwnership(address)":"f2fde38b"},"id":43}