{"abi":[{"type":"constructor","inputs":[{"name":"_houseOperator","type":"address","internalType":"address"},{"name":"_revealTimeout","type":"uint256","internalType":"uint256"}],"stateMutability":"nonpayable"},{"type":"function","name":"MAX_REVEAL_TIMEOUT","inputs":[],"outputs":[{"name":"","type":"uint256","internalType":"uint256"}],"stateMutability":"view"},{"type":"function","name":"MIN_REVEAL_TIMEOUT","inputs":[],"outputs":[{"name":"","type":"uint256","internalType":"uint256"}],"stateMutability":"view"},{"type":"function","name":"acceptOwnership","inputs":[],"outputs":[],"stateMutability":"nonpayable"},{"type":"function","name":"authorizeGame","inputs":[{"name":"game","type":"address","internalType":"address"}],"outputs":[],"stateMutability":"nonpayable"},{"type":"function","name":"authorizedGames","inputs":[{"name":"","type":"address","internalType":"address"}],"outputs":[{"name":"","type":"bool","internalType":"bool"}],"stateMutability":"view"},{"type":"function","name":"commit","inputs":[{"name":"player","type":"address","internalType":"address"},{"name":"playerCommitHash","type":"bytes32","internalType":"bytes32"},{"name":"betId","type":"uint256","internalType":"uint256"}],"outputs":[{"name":"commitId","type":"uint256","internalType":"uint256"}],"stateMutability":"nonpayable"},{"type":"function","name":"commitments","inputs":[{"name":"","type":"uint256","internalType":"uint256"}],"outputs":[{"name":"player","type":"address","internalType":"address"},{"name":"game","type":"address","internalType":"address"},{"name":"playerCommitHash","type":"bytes32","internalType":"bytes32"},{"name":"serverSeed","type":"bytes32","internalType":"bytes32"},{"name":"betId","type":"uint256","internalType":"uint256"},{"name":"commitBlock","type":"uint256","internalType":"uint256"},{"name":"commitTimestamp","type":"uint256","internalType":"uint256"},{"name":"status","type":"uint8","internalType":"enum RandomnessProvider.CommitStatus"}],"stateMutability":"view"},{"type":"function","name":"getCommitStatus","inputs":[{"name":"commitId","type":"uint256","internalType":"uint256"}],"outputs":[{"name":"","type":"uint8","internalType":"enum RandomnessProvider.CommitStatus"}],"stateMutability":"view"},{"type":"function","name":"getCommitment","inputs":[{"name":"commitId","type":"uint256","internalType":"uint256"}],"outputs":[{"name":"player","type":"address","internalType":"address"},{"name":"game","type":"address","internalType":"address"},{"name":"playerCommitHash","type":"bytes32","internalType":"bytes32"},{"name":"serverSeed","type":"bytes32","internalType":"bytes32"},{"name":"betId","type":"uint256","internalType":"uint256"},{"name":"commitBlock","type":"uint256","internalType":"uint256"},{"name":"commitTimestamp","type":"uint256","internalType":"uint256"},{"name":"status","type":"uint8","internalType":"enum RandomnessProvider.CommitStatus"}],"stateMutability":"view"},{"type":"function","name":"getResult","inputs":[{"name":"commitId","type":"uint256","internalType":"uint256"},{"name":"playerSeed","type":"bytes32","internalType":"bytes32"}],"outputs":[{"name":"","type":"bytes32","internalType":"bytes32"}],"stateMutability":"view"},{"type":"function","name":"houseOperator","inputs":[],"outputs":[{"name":"","type":"address","internalType":"address"}],"stateMutability":"view"},{"type":"function","name":"isTimedOut","inputs":[{"name":"commitId","type":"uint256","internalType":"uint256"}],"outputs":[{"name":"","type":"bool","internalType":"bool"}],"stateMutability":"view"},{"type":"function","name":"markTimedOut","inputs":[{"name":"commitId","type":"uint256","internalType":"uint256"}],"outputs":[],"stateMutability":"nonpayable"},{"type":"function","name":"nextCommitId","inputs":[],"outputs":[{"name":"","type":"uint256","internalType":"uint256"}],"stateMutability":"view"},{"type":"function","name":"owner","inputs":[],"outputs":[{"name":"","type":"address","internalType":"address"}],"stateMutability":"view"},{"type":"function","name":"pendingOwner","inputs":[],"outputs":[{"name":"","type":"address","internalType":"address"}],"stateMutability":"view"},{"type":"function","name":"renounceOwnership","inputs":[],"outputs":[],"stateMutability":"nonpayable"},{"type":"function","name":"reveal","inputs":[{"name":"commitId","type":"uint256","internalType":"uint256"},{"name":"serverSeed","type":"bytes32","internalType":"bytes32"},{"name":"playerSeed","type":"bytes32","internalType":"bytes32"}],"outputs":[{"name":"resultHash","type":"bytes32","internalType":"bytes32"}],"stateMutability":"nonpayable"},{"type":"function","name":"revealTimeout","inputs":[],"outputs":[{"name":"","type":"uint256","internalType":"uint256"}],"stateMutability":"view"},{"type":"function","name":"revokeGame","inputs":[{"name":"game","type":"address","internalType":"address"}],"outputs":[],"stateMutability":"nonpayable"},{"type":"function","name":"setHouseOperator","inputs":[{"name":"_operator","type":"address","internalType":"address"}],"outputs":[],"stateMutability":"nonpayable"},{"type":"function","name":"setRevealTimeout","inputs":[{"name":"_timeout","type":"uint256","internalType":"uint256"}],"outputs":[],"stateMutability":"nonpayable"},{"type":"function","name":"transferOwnership","inputs":[{"name":"newOwner","type":"address","internalType":"address"}],"outputs":[],"stateMutability":"nonpayable"},{"type":"event","name":"CommitmentCreated","inputs":[{"name":"commitId","type":"uint256","indexed":true,"internalType":"uint256"},{"name":"player","type":"address","indexed":true,"internalType":"address"},{"name":"game","type":"address","indexed":true,"internalType":"address"},{"name":"playerCommitHash","type":"bytes32","indexed":false,"internalType":"bytes32"},{"name":"betId","type":"uint256","indexed":false,"internalType":"uint256"}],"anonymous":false},{"type":"event","name":"CommitmentRevealed","inputs":[{"name":"commitId","type":"uint256","indexed":true,"internalType":"uint256"},{"name":"serverSeed","type":"bytes32","indexed":false,"internalType":"bytes32"},{"name":"resultHash","type":"bytes32","indexed":false,"internalType":"bytes32"}],"anonymous":false},{"type":"event","name":"CommitmentTimedOut","inputs":[{"name":"commitId","type":"uint256","indexed":true,"internalType":"uint256"}],"anonymous":false},{"type":"event","name":"GameAuthorized","inputs":[{"name":"game","type":"address","indexed":true,"internalType":"address"}],"anonymous":false},{"type":"event","name":"GameRevoked","inputs":[{"name":"game","type":"address","indexed":true,"internalType":"address"}],"anonymous":false},{"type":"event","name":"HouseOperatorUpdated","inputs":[{"name":"oldOperator","type":"address","indexed":true,"internalType":"address"},{"name":"newOperator","type":"address","indexed":true,"internalType":"address"}],"anonymous":false},{"type":"event","name":"OwnershipTransferStarted","inputs":[{"name":"previousOwner","type":"address","indexed":true,"internalType":"address"},{"name":"newOwner","type":"address","indexed":true,"internalType":"address"}],"anonymous":false},{"type":"event","name":"OwnershipTransferred","inputs":[{"name":"previousOwner","type":"address","indexed":true,"internalType":"address"},{"name":"newOwner","type":"address","indexed":true,"internalType":"address"}],"anonymous":false},{"type":"event","name":"RevealTimeoutUpdated","inputs":[{"name":"oldTimeout","type":"uint256","indexed":false,"internalType":"uint256"},{"name":"newTimeout","type":"uint256","indexed":false,"internalType":"uint256"}],"anonymous":false},{"type":"error","name":"InvalidCommitStatus","inputs":[{"name":"commitId","type":"uint256","internalType":"uint256"},{"name":"current","type":"uint8","internalType":"enum RandomnessProvider.CommitStatus"},{"name":"expected","type":"uint8","internalType":"enum RandomnessProvider.CommitStatus"}]},{"type":"error","name":"InvalidPlayerSeed","inputs":[{"name":"commitId","type":"uint256","internalType":"uint256"}]},{"type":"error","name":"InvalidTimeout","inputs":[{"name":"timeout","type":"uint256","internalType":"uint256"}]},{"type":"error","name":"NotAuthorizedGame","inputs":[]},{"type":"error","name":"NotHouseOperator","inputs":[]},{"type":"error","name":"OwnableInvalidOwner","inputs":[{"name":"owner","type":"address","internalType":"address"}]},{"type":"error","name":"OwnableUnauthorizedAccount","inputs":[{"name":"account","type":"address","internalType":"address"}]},{"type":"error","name":"RevealTimeoutNotReached","inputs":[{"name":"commitId","type":"uint256","internalType":"uint256"}]},{"type":"error","name":"ZeroAddress","inputs":[]}],"bytecode":{"object":"0x608060405234801561000f575f80fd5b50604051610f31380380610f3183398101604081905261002e9161014a565b338061005457604051631e4fbdf760e01b81525f60048201526024015b60405180910390fd5b61005d816100df565b506001600160a01b0382166100855760405163d92e233d60e01b815260040160405180910390fd5b601e8110806100955750610e1081115b156100b65760405163402b267560e11b81526004810182905260240161004b565b600480546001600160a01b0319166001600160a01b039390931692909217909155600555610181565b600180546001600160a01b03191690556100f8816100fb565b50565b5f80546001600160a01b038381166001600160a01b0319831681178455604051919092169283917f8be0079c531659141344cd1fd0a4f28419497f9722a3daafe3b4186f6b6457e09190a35050565b5f806040838503121561015b575f80fd5b82516001600160a01b0381168114610171575f80fd5b6020939093015192949293505050565b610da38061018e5f395ff3fe608060405234801561000f575f80fd5b5060043610610148575f3560e01c806379dd3d5a116100bf578063b0d3e72e11610079578063b0d3e72e14610382578063b9f5f4e61461038b578063ca2b3c5214610394578063cc8ac988146103a7578063e30c3978146103ba578063f2fde38b146103cb575f80fd5b806379dd3d5a146102dc5780637b2141cb146102ef57806384bf51fb146103025780638da5cb5b1461032d5780639e492b991461033d578063af697a6f1461036f575f80fd5b806349ce89971161011057806349ce8997146101d95780634d6d4c531461024d5780635e4402df1461025557806369bcdb7d14610268578063715018a6146102cc57806379ba5097146102d4575f80fd5b806301e086e11461014c5780630eaa16cc1461016157806313e862651461019c57806338b64085146101bd5780634376cb34146101d0575b5f80fd5b61015f61015a366004610bc4565b6103de565b005b61018661016f366004610bdd565b5f9081526003602052604090206007015460ff1690565b6040516101939190610c28565b60405180910390f35b6101af6101aa366004610c36565b61042e565b604051908152602001610193565b61015f6101cb366004610bdd565b6104ce565b6101af60055481565b6102396101e7366004610bdd565b600360208190525f9182526040909120805460018201546002830154938301546004840154600585015460068601546007909601546001600160a01b0395861697959094169592939192909160ff1688565b604051610193989796959493929190610c56565b6101af601e81565b61015f610263366004610bc4565b61054b565b610239610276366004610bdd565b5f908152600360208190526040909120805460018201546002830154938301546004840154600585015460068601546007909601546001600160a01b03958616989590941696959294919390929160ff90911690565b61015f6105c5565b61015f6105d8565b61015f6102ea366004610bc4565b61061c565b6101af6102fd366004610cac565b61069c565b600454610315906001600160a01b031681565b6040516001600160a01b039091168152602001610193565b5f546001600160a01b0316610315565b61035f61034b366004610bc4565b60066020525f908152604090205460ff1681565b6040519015158152602001610193565b6101af61037d366004610cdc565b610806565b6101af610e1081565b6101af60025481565b61015f6103a2366004610bdd565b610966565b61035f6103b5366004610bdd565b610a5d565b6001546001600160a01b0316610315565b61015f6103d9366004610bc4565b610aaa565b6103e6610b1a565b6001600160a01b0381165f81815260066020526040808220805460ff19169055517f78b7f19de299af2e39976ccb793c72d123a2a5960c69bfde2f8c8e53437fdb1b9190a250565b5f8281526003602052604081206002600782015460ff16600381111561045657610456610bf4565b1461048d576007810154604051630e288ab360e11b815261048491869160ff90911690600290600401610d05565b60405180910390fd5b600381015460408051602081018690529081019190915260608101859052608001604051602081830303815290604052805190602001209150505b92915050565b6104d6610b1a565b601e8110806104e65750610e1081115b156105075760405163402b267560e11b815260048101829052602401610484565b600580549082905560408051828152602081018490527e53c4be6b343d04e2ea3f9070cae674b6fbb653b9945624223f855ea9fa76b7910160405180910390a15050565b610553610b1a565b6001600160a01b03811661057a5760405163d92e233d60e01b815260040160405180910390fd5b6001600160a01b0381165f81815260066020526040808220805460ff19166001179055517f84a81ad072505ad49c4e9a66bfcdb55a2cff07cb4ea59ec7dc9cb27a38196a4d9190a250565b6105cd610b1a565b6105d65f610b46565b565b60015433906001600160a01b031681146106105760405163118cdaa760e01b81526001600160a01b0382166004820152602401610484565b61061981610b46565b50565b610624610b1a565b6001600160a01b03811661064b5760405163d92e233d60e01b815260040160405180910390fd5b600480546001600160a01b038381166001600160a01b0319831681179093556040519116919082907f6b77a73ee889e514c95d759e3779d33d4da7ce00d74f29c71bd05514b73b5608905f90a35050565b335f9081526006602052604081205460ff166106cb5760405163032d9f6960e01b815260040160405180910390fd5b60028054905f6106da83610d42565b9091555060408051610100810182526001600160a01b0387811682523360208084019182528385018981525f60608601818152608087018b81524360a089019081524260c08a01908152600160e08b018181528d87526003988990529b9095208a5181546001600160a01b0319908116918c1691909117825598518187018054909a169a169990991790975593516002880155905186850155516004860155905160058501559151600684015593516007830180549697509395929490939260ff1916919084908111156107b0576107b0610bf4565b02179055505060408051858152602081018590523392506001600160a01b0387169184917f2d8c1cbd26e8ee941be3e4663f92c370c5af2605c90fdd9c4d3f3ac538458fed910160405180910390a49392505050565b6004545f906001600160a01b031633146108335760405163bfc1acb160e01b815260040160405180910390fd5b5f8481526003602052604090206001600782015460ff16600381111561085b5761085b610bf4565b14610889576007810154604051630e288ab360e11b815261048491879160ff90911690600190600401610d05565b5f8360405160200161089d91815260200190565b604051602081830303815290604052805190602001209050816002015481146108dc57604051638156361960e01b815260048101879052602401610484565b60408051602081018690529081018690526060810187905260800160408051808303601f1901815282825280516020918201206003860189905560078601805460ff19166002179055888452908301819052945087917f4cdfe007da4c8c1ecd5831335b3784edae1007177ee6866edde18cdbd9159c8f910160405180910390a250509392505050565b335f9081526006602052604090205460ff166109955760405163032d9f6960e01b815260040160405180910390fd5b5f8181526003602052604090206001600782015460ff1660038111156109bd576109bd610bf4565b146109eb576007810154604051630e288ab360e11b815261048491849160ff90911690600190600401610d05565b60055481600601546109fd9190610d5a565b421015610a2057604051639210cfdd60e01b815260048101839052602401610484565b60078101805460ff1916600317905560405182907f13d957248c41ef47fb6bb6b563f7cc0bbfa03f05b88df7a74d2798b6a78a72fc905f90a25050565b5f8181526003602052604081206001600782015460ff166003811115610a8557610a85610bf4565b148015610aa357506005548160060154610a9f9190610d5a565b4210155b9392505050565b610ab2610b1a565b600180546001600160a01b0383166001600160a01b03199091168117909155610ae25f546001600160a01b031690565b6001600160a01b03167f38d16b8cac22d99fc7c124b9cd0de2d3fa1faef420bfe791d8c362d765e2270060405160405180910390a350565b5f546001600160a01b031633146105d65760405163118cdaa760e01b8152336004820152602401610484565b600180546001600160a01b0319169055610619815f80546001600160a01b038381166001600160a01b0319831681178455604051919092169283917f8be0079c531659141344cd1fd0a4f28419497f9722a3daafe3b4186f6b6457e09190a35050565b80356001600160a01b0381168114610bbf575f80fd5b919050565b5f60208284031215610bd4575f80fd5b610aa382610ba9565b5f60208284031215610bed575f80fd5b5035919050565b634e487b7160e01b5f52602160045260245ffd5b60048110610c2457634e487b7160e01b5f52602160045260245ffd5b9052565b602081016104c88284610c08565b5f8060408385031215610c47575f80fd5b50508035926020909101359150565b6001600160a01b0389811682528816602082015260408101879052606081018690526080810185905260a0810184905260c081018390526101008101610c9f60e0830184610c08565b9998505050505050505050565b5f805f60608486031215610cbe575f80fd5b610cc784610ba9565b95602085013595506040909401359392505050565b5f805f60608486031215610cee575f80fd5b505081359360208301359350604090920135919050565b83815260608101610d196020830185610c08565b610d266040830184610c08565b949350505050565b634e487b7160e01b5f52601160045260245ffd5b5f60018201610d5357610d53610d2e565b5060010190565b808201808211156104c8576104c8610d2e56fea2646970667358221220da69b7d84334549c82b400e8a0303335984f5b1bc65c9abab062163b3fb9931564736f6c63430008180033","linkReferences":{}},"methodIdentifiers":{"MAX_REVEAL_TIMEOUT()":"b0d3e72e","MIN_REVEAL_TIMEOUT()":"4d6d4c53","acceptOwnership()":"79ba5097","authorizeGame(address)":"5e4402df","authorizedGames(address)":"9e492b99","commit(address,bytes32,uint256)":"7b2141cb","commitments(uint256)":"49ce8997","getCommitStatus(uint256)":"0eaa16cc","getCommitment(uint256)":"69bcdb7d","getResult(uint256,bytes32)":"13e86265","houseOperator()":"84bf51fb","isTimedOut(uint256)":"cc8ac988","markTimedOut(uint256)":"ca2b3c52","nextCommitId()":"b9f5f4e6","owner()":"8da5cb5b","pendingOwner()":"e30c3978","renounceOwnership()":"715018a6","reveal(uint256,bytes32,bytes32)":"af697a6f","revealTimeout()":"4376cb34","revokeGame(address)":"01e086e1","setHouseOperator(address)":"79dd3d5a","setRevealTimeout(uint256)":"38b64085","transferOwnership(address)":"f2fde38b"},"id":43}