{"abi":[{"type":"constructor","inputs":[],"stateMutability":"nonpayable"},{"type":"function","name":"acceptOwnership","inputs":[],"outputs":[],"stateMutability":"nonpayable"},{"type":"function","name":"createSession","inputs":[{"name":"delegate","type":"address","internalType":"address"},{"name":"maxBetAmount","type":"uint256","internalType":"uint256"},{"name":"spendingLimit","type":"uint256","internalType":"uint256"},{"name":"expiresAt","type":"uint256","internalType":"uint256"},{"name":"allowedGames","type":"address[]","internalType":"address[]"}],"outputs":[{"name":"sessionId","type":"uint256","internalType":"uint256"}],"stateMutability":"nonpayable"},{"type":"function","name":"delegateSessions","inputs":[{"name":"","type":"address","internalType":"address"},{"name":"","type":"uint256","internalType":"uint256"}],"outputs":[{"name":"","type":"uint256","internalType":"uint256"}],"stateMutability":"view"},{"type":"function","name":"getDelegateSessions","inputs":[{"name":"delegate","type":"address","internalType":"address"}],"outputs":[{"name":"","type":"uint256[]","internalType":"uint256[]"}],"stateMutability":"view"},{"type":"function","name":"getSessionDelegate","inputs":[{"name":"sessionId","type":"uint256","internalType":"uint256"}],"outputs":[{"name":"","type":"address","internalType":"address"}],"stateMutability":"view"},{"type":"function","name":"getSessionOwner","inputs":[{"name":"sessionId","type":"uint256","internalType":"uint256"}],"outputs":[{"name":"","type":"address","internalType":"address"}],"stateMutability":"view"},{"type":"function","name":"getUserSessions","inputs":[{"name":"user","type":"address","internalType":"address"}],"outputs":[{"name":"","type":"uint256[]","internalType":"uint256[]"}],"stateMutability":"view"},{"type":"function","name":"isSessionValid","inputs":[{"name":"sessionId","type":"uint256","internalType":"uint256"}],"outputs":[{"name":"","type":"bool","internalType":"bool"}],"stateMutability":"view"},{"type":"function","name":"nextSessionId","inputs":[],"outputs":[{"name":"","type":"uint256","internalType":"uint256"}],"stateMutability":"view"},{"type":"function","name":"owner","inputs":[],"outputs":[{"name":"","type":"address","internalType":"address"}],"stateMutability":"view"},{"type":"function","name":"pendingOwner","inputs":[],"outputs":[{"name":"","type":"address","internalType":"address"}],"stateMutability":"view"},{"type":"function","name":"registerGame","inputs":[{"name":"game","type":"address","internalType":"address"}],"outputs":[],"stateMutability":"nonpayable"},{"type":"function","name":"registeredGames","inputs":[{"name":"","type":"address","internalType":"address"}],"outputs":[{"name":"","type":"bool","internalType":"bool"}],"stateMutability":"view"},{"type":"function","name":"remainingLimit","inputs":[{"name":"sessionId","type":"uint256","internalType":"uint256"}],"outputs":[{"name":"","type":"uint256","internalType":"uint256"}],"stateMutability":"view"},{"type":"function","name":"renounceOwnership","inputs":[],"outputs":[],"stateMutability":"nonpayable"},{"type":"function","name":"revokeSession","inputs":[{"name":"sessionId","type":"uint256","internalType":"uint256"}],"outputs":[],"stateMutability":"nonpayable"},{"type":"function","name":"sessionAllowedGames","inputs":[{"name":"","type":"uint256","internalType":"uint256"},{"name":"","type":"address","internalType":"address"}],"outputs":[{"name":"","type":"bool","internalType":"bool"}],"stateMutability":"view"},{"type":"function","name":"sessions","inputs":[{"name":"","type":"uint256","internalType":"uint256"}],"outputs":[{"name":"owner","type":"address","internalType":"address"},{"name":"delegate","type":"address","internalType":"address"},{"name":"maxBetAmount","type":"uint256","internalType":"uint256"},{"name":"expiresAt","type":"uint256","internalType":"uint256"},{"name":"totalSpent","type":"uint256","internalType":"uint256"},{"name":"spendingLimit","type":"uint256","internalType":"uint256"},{"name":"revoked","type":"bool","internalType":"bool"}],"stateMutability":"view"},{"type":"function","name":"transferOwnership","inputs":[{"name":"newOwner","type":"address","internalType":"address"}],"outputs":[],"stateMutability":"nonpayable"},{"type":"function","name":"unregisterGame","inputs":[{"name":"game","type":"address","internalType":"address"}],"outputs":[],"stateMutability":"nonpayable"},{"type":"function","name":"useSession","inputs":[{"name":"sessionId","type":"uint256","internalType":"uint256"},{"name":"delegate","type":"address","internalType":"address"},{"name":"game","type":"address","internalType":"address"},{"name":"amount","type":"uint256","internalType":"uint256"}],"outputs":[{"name":"owner","type":"address","internalType":"address"}],"stateMutability":"nonpayable"},{"type":"function","name":"userSessions","inputs":[{"name":"","type":"address","internalType":"address"},{"name":"","type":"uint256","internalType":"uint256"}],"outputs":[{"name":"","type":"uint256","internalType":"uint256"}],"stateMutability":"view"},{"type":"event","name":"GameRegistered","inputs":[{"name":"game","type":"address","indexed":true,"internalType":"address"}],"anonymous":false},{"type":"event","name":"GameUnregistered","inputs":[{"name":"game","type":"address","indexed":true,"internalType":"address"}],"anonymous":false},{"type":"event","name":"OwnershipTransferStarted","inputs":[{"name":"previousOwner","type":"address","indexed":true,"internalType":"address"},{"name":"newOwner","type":"address","indexed":true,"internalType":"address"}],"anonymous":false},{"type":"event","name":"OwnershipTransferred","inputs":[{"name":"previousOwner","type":"address","indexed":true,"internalType":"address"},{"name":"newOwner","type":"address","indexed":true,"internalType":"address"}],"anonymous":false},{"type":"event","name":"SessionCreated","inputs":[{"name":"sessionId","type":"uint256","indexed":true,"internalType":"uint256"},{"name":"owner","type":"address","indexed":true,"internalType":"address"},{"name":"delegate","type":"address","indexed":true,"internalType":"address"},{"name":"maxBetAmount","type":"uint256","indexed":false,"internalType":"uint256"},{"name":"spendingLimit","type":"uint256","indexed":false,"internalType":"uint256"},{"name":"expiresAt","type":"uint256","indexed":false,"internalType":"uint256"}],"anonymous":false},{"type":"event","name":"SessionRevoked","inputs":[{"name":"sessionId","type":"uint256","indexed":true,"internalType":"uint256"},{"name":"owner","type":"address","indexed":true,"internalType":"address"}],"anonymous":false},{"type":"event","name":"SessionUsed","inputs":[{"name":"sessionId","type":"uint256","indexed":true,"internalType":"uint256"},{"name":"game","type":"address","indexed":true,"internalType":"address"},{"name":"amount","type":"uint256","indexed":false,"internalType":"uint256"}],"anonymous":false},{"type":"error","name":"BetExceedsSessionMax","inputs":[{"name":"amount","type":"uint256","internalType":"uint256"},{"name":"maxBet","type":"uint256","internalType":"uint256"}]},{"type":"error","name":"GameNotAllowed","inputs":[{"name":"game","type":"address","internalType":"address"}]},{"type":"error","name":"GameNotRegistered","inputs":[{"name":"game","type":"address","internalType":"address"}]},{"type":"error","name":"InvalidExpiry","inputs":[]},{"type":"error","name":"NoGamesSpecified","inputs":[]},{"type":"error","name":"NotSessionDelegate","inputs":[]},{"type":"error","name":"NotSessionOwner","inputs":[]},{"type":"error","name":"OwnableInvalidOwner","inputs":[{"name":"owner","type":"address","internalType":"address"}]},{"type":"error","name":"OwnableUnauthorizedAccount","inputs":[{"name":"account","type":"address","internalType":"address"}]},{"type":"error","name":"SessionExpired","inputs":[{"name":"sessionId","type":"uint256","internalType":"uint256"}]},{"type":"error","name":"SessionNotFound","inputs":[]},{"type":"error","name":"SessionRevoked_","inputs":[]},{"type":"error","name":"SpendingLimitExceeded","inputs":[{"name":"totalAfter","type":"uint256","internalType":"uint256"},{"name":"limit","type":"uint256","internalType":"uint256"}]},{"type":"error","name":"ZeroAddress","inputs":[]},{"type":"error","name":"ZeroAmount","inputs":[]}],"bytecode":{"object":"0x608060405234801561000f575f80fd5b50338061003557604051631e4fbdf760e01b81525f600482015260240160405180910390fd5b61003e81610044565b506100af565b600180546001600160a01b031916905561005d81610060565b50565b5f80546001600160a01b038381166001600160a01b0319831681178455604051919092169283917f8be0079c531659141344cd1fd0a4f28419497f9722a3daafe3b4186f6b6457e09190a35050565b610f76806100bc5f395ff3fe608060405234801561000f575f80fd5b506004361061013d575f3560e01c80638da5cb5b116100b4578063dc428ba011610079578063dc428ba014610377578063e2491a6a1461038a578063e30c39781461039d578063eee0cbc8146103ae578063f2fde38b146103c1578063f7aec64d146103d4575f80fd5b80638da5cb5b146103065780639b36057c14610316578063b987208514610329578063cc16984c1461033c578063cffbc7f514610364575f80fd5b80636d597d13116101055780636d597d13146101ef578063715018a61461020257806372df248f1461020c57806379ba50971461024f57806383c4b7a314610257578063890aa541146102f3575f80fd5b8063071a5bba14610141578063223715dd14610183578063293b7a24146101a357806349bbf7da146101b65780636a8354a4146101cd575b5f80fd5b61016e61014f366004610d34565b600460209081525f928352604080842090915290825290205460ff1681565b60405190151581526020015b60405180910390f35b610196610191366004610d5e565b6103e7565b60405161017a9190610d77565b6101966101b1366004610d5e565b610450565b6101bf60025481565b60405190815260200161017a565b61016e6101db366004610d5e565b60076020525f908152604090205460ff1681565b6101bf6101fd366004610dba565b6104b7565b61020a6104e2565b005b61023761021a366004610de2565b5f908152600360205260409020600101546001600160a01b031690565b6040516001600160a01b03909116815260200161017a565b61020a6104f5565b6102b1610265366004610de2565b600360208190525f918252604090912080546001820154600283015493830154600484015460058501546006909501546001600160a01b03948516969490931694919290919060ff1687565b604080516001600160a01b039889168152979096166020880152948601939093526060850191909152608084015260a0830152151560c082015260e00161017a565b61020a610301366004610d5e565b61053e565b5f546001600160a01b0316610237565b61020a610324366004610d5e565b61058e565b61020a610337366004610de2565b610608565b61023761034a366004610de2565b5f908152600360205260409020546001600160a01b031690565b6101bf610372366004610de2565b6106a6565b61016e610385366004610de2565b6106e5565b6101bf610398366004610dba565b610723565b6001546001600160a01b0316610237565b6101bf6103bc366004610df9565b61073c565b61020a6103cf366004610d5e565b610a43565b6102376103e2366004610e93565b610ab3565b6001600160a01b0381165f9081526005602090815260409182902080548351818402810184019094528084526060939283018282801561044457602002820191905f5260205f20905b815481526020019060010190808311610430575b50505050509050919050565b6001600160a01b0381165f9081526006602090815260409182902080548351818402810184019094528084526060939283018282801561044457602002820191905f5260205f20908154815260200190600101908083116104305750505050509050919050565b6005602052815f5260405f2081815481106104d0575f80fd5b905f5260205f20015f91509150505481565b6104ea610c8a565b6104f35f610cb6565b565b60015433906001600160a01b031681146105325760405163118cdaa760e01b81526001600160a01b03821660048201526024015b60405180910390fd5b61053b81610cb6565b50565b610546610c8a565b6001600160a01b0381165f81815260076020526040808220805460ff19169055517f018884b0ef6140fcac7040ea434c72d88931fd290e80ad12d8d23641fb6e89099190a250565b610596610c8a565b6001600160a01b0381166105bd5760405163d92e233d60e01b815260040160405180910390fd5b6001600160a01b0381165f81815260076020526040808220805460ff19166001179055517f1242fa44f29ea25204260dcb4d577c3a31c201abab5392839c94d1274a8244e59190a250565b5f81815260036020526040902080546001600160a01b031661063d576040516396c95f8160e01b815260040160405180910390fd5b80546001600160a01b0316331461066757604051636f26118960e11b815260040160405180910390fd5b60068101805460ff19166001179055604051339083907f8cd7a7d20dd4310706b8aa2c4f57c161e0c23463f5ebf330bed60c5a23f72eb8905f90a35050565b5f81815260036020526040812060058101546004820154106106ca57505f92915050565b806004015481600501546106de9190610ee8565b9392505050565b5f81815260036020526040812080546001600160a01b0316158015906107105750600681015460ff16155b80156106de575060030154421092915050565b6006602052815f5260405f2081815481106104d0575f80fd5b5f6001600160a01b0387166107645760405163d92e233d60e01b815260040160405180910390fd5b855f0361078457604051631f2a200560e01b815260040160405180910390fd5b845f036107a457604051631f2a200560e01b815260040160405180910390fd5b4284116107c35760405162d36c8560e81b815260040160405180910390fd5b5f8290036107e457604051635a57d00b60e01b815260040160405180910390fd5b60028054905f6107f383610f01565b909155506040805160e0810182523381526001600160a01b038a811660208084019182528385018c8152606085018b81525f6080870181815260a088018f815260c089018381528b8452600396879052998320985189549089166001600160a01b0319918216178a55965160018a018054919099169716969096179096559151600287015551918501919091559151600484015551600583015591516006909101805491151560ff199092169190911790559091505b828110156109ad5760075f8585848181106108c6576108c6610f19565b90506020020160208101906108db9190610d5e565b6001600160a01b0316815260208101919091526040015f205460ff166109475783838281811061090d5761090d610f19565b90506020020160208101906109229190610d5e565b60405163c4d71d8f60e01b81526001600160a01b039091166004820152602401610529565b5f82815260046020526040812060019186868581811061096957610969610f19565b905060200201602081019061097e9190610d5e565b6001600160a01b0316815260208101919091526040015f20805460ff19169115159190911790556001016108a9565b50335f818152600560209081526040808320805460018082018355918552838520018690556001600160a01b038c1680855260068452828520805492830181558552938390200185905580518a8152918201899052810187905290919083907fbca09c54eed61d7f1ecfdd444c2ceb26a6ad63572609e0f85e02d8a78e526fa99060600160405180910390a49695505050505050565b610a4b610c8a565b600180546001600160a01b0383166001600160a01b03199091168117909155610a7b5f546001600160a01b031690565b6001600160a01b03167f38d16b8cac22d99fc7c124b9cd0de2d3fa1faef420bfe791d8c362d765e2270060405160405180910390a350565b5f84815260036020526040812080546001600160a01b0316610ae8576040516396c95f8160e01b815260040160405180910390fd5b60018101546001600160a01b03868116911614610b18576040516343af3f6760e11b815260040160405180910390fd5b600681015460ff1615610b3e576040516315707c1d60e11b815260040160405180910390fd5b80600301544210610b655760405163b1bbfdd560e01b815260048101879052602401610529565b5f8681526004602090815260408083206001600160a01b038816845290915290205460ff16610bb2576040516350b7c7a560e11b81526001600160a01b0385166004820152602401610529565b8060020154831115610be7576002810154604051632f9703c760e01b8152610529918591600401918252602082015260400190565b5f838260040154610bf89190610f2d565b90508160050154811115610c2f576005820154604051634557d16560e01b8152610529918391600401918252602082015260400190565b600482018190556040518481526001600160a01b0386169088907fd6ed47ad16837589dd97f21bb3b73c554c8fd6d95ca311c332ee2b9a75a9999f9060200160405180910390a350546001600160a01b031695945050505050565b5f546001600160a01b031633146104f35760405163118cdaa760e01b8152336004820152602401610529565b600180546001600160a01b031916905561053b815f80546001600160a01b038381166001600160a01b0319831681178455604051919092169283917f8be0079c531659141344cd1fd0a4f28419497f9722a3daafe3b4186f6b6457e09190a35050565b80356001600160a01b0381168114610d2f575f80fd5b919050565b5f8060408385031215610d45575f80fd5b82359150610d5560208401610d19565b90509250929050565b5f60208284031215610d6e575f80fd5b6106de82610d19565b602080825282518282018190525f9190848201906040850190845b81811015610dae57835183529284019291840191600101610d92565b50909695505050505050565b5f8060408385031215610dcb575f80fd5b610dd483610d19565b946020939093013593505050565b5f60208284031215610df2575f80fd5b5035919050565b5f805f805f8060a08789031215610e0e575f80fd5b610e1787610d19565b9550602087013594506040870135935060608701359250608087013567ffffffffffffffff80821115610e48575f80fd5b818901915089601f830112610e5b575f80fd5b813581811115610e69575f80fd5b8a60208260051b8501011115610e7d575f80fd5b6020830194508093505050509295509295509295565b5f805f8060808587031215610ea6575f80fd5b84359350610eb660208601610d19565b9250610ec460408601610d19565b9396929550929360600135925050565b634e487b7160e01b5f52601160045260245ffd5b81810381811115610efb57610efb610ed4565b92915050565b5f60018201610f1257610f12610ed4565b5060010190565b634e487b7160e01b5f52603260045260245ffd5b80820180821115610efb57610efb610ed456fea26469706673582212205ade0c45a20eacc57694a3e8b73109dfb37e0372689bc11dde9fce82fa8ae0a564736f6c63430008180033","linkReferences":{}},"methodIdentifiers":{"acceptOwnership()":"79ba5097","createSession(address,uint256,uint256,uint256,address[])":"eee0cbc8","delegateSessions(address,uint256)":"e2491a6a","getDelegateSessions(address)":"293b7a24","getSessionDelegate(uint256)":"72df248f","getSessionOwner(uint256)":"cc16984c","getUserSessions(address)":"223715dd","isSessionValid(uint256)":"dc428ba0","nextSessionId()":"49bbf7da","owner()":"8da5cb5b","pendingOwner()":"e30c3978","registerGame(address)":"9b36057c","registeredGames(address)":"6a8354a4","remainingLimit(uint256)":"cffbc7f5","renounceOwnership()":"715018a6","revokeSession(uint256)":"b9872085","sessionAllowedGames(uint256,address)":"071a5bba","sessions(uint256)":"83c4b7a3","transferOwnership(address)":"f2fde38b","unregisterGame(address)":"890aa541","useSession(uint256,address,address,uint256)":"f7aec64d","userSessions(address,uint256)":"6d597d13"},"id":44}