{"abi":[{"type":"constructor","inputs":[],"stateMutability":"nonpayable"},{"type":"function","name":"acceptOwnership","inputs":[],"outputs":[],"stateMutability":"nonpayable"},{"type":"function","name":"createSession","inputs":[{"name":"delegate","type":"address","internalType":"address"},{"name":"maxBetAmount","type":"uint256","internalType":"uint256"},{"name":"spendingLimit","type":"uint256","internalType":"uint256"},{"name":"expiresAt","type":"uint256","internalType":"uint256"},{"name":"allowedGames","type":"address[]","internalType":"address[]"}],"outputs":[{"name":"sessionId","type":"uint256","internalType":"uint256"}],"stateMutability":"nonpayable"},{"type":"function","name":"delegateSessions","inputs":[{"name":"","type":"address","internalType":"address"},{"name":"","type":"uint256","internalType":"uint256"}],"outputs":[{"name":"","type":"uint256","internalType":"uint256"}],"stateMutability":"view"},{"type":"function","name":"getDelegateSessions","inputs":[{"name":"delegate","type":"address","internalType":"address"}],"outputs":[{"name":"","type":"uint256[]","internalType":"uint256[]"}],"stateMutability":"view"},{"type":"function","name":"getSessionDelegate","inputs":[{"name":"sessionId","type":"uint256","internalType":"uint256"}],"outputs":[{"name":"","type":"address","internalType":"address"}],"stateMutability":"view"},{"type":"function","name":"getSessionOwner","inputs":[{"name":"sessionId","type":"uint256","internalType":"uint256"}],"outputs":[{"name":"","type":"address","internalType":"address"}],"stateMutability":"view"},{"type":"function","name":"getUserSessions","inputs":[{"name":"user","type":"address","internalType":"address"}],"outputs":[{"name":"","type":"uint256[]","internalType":"uint256[]"}],"stateMutability":"view"},{"type":"function","name":"isSessionValid","inputs":[{"name":"sessionId","type":"uint256","internalType":"uint256"}],"outputs":[{"name":"","type":"bool","internalType":"bool"}],"stateMutability":"view"},{"type":"function","name":"nextSessionId","inputs":[],"outputs":[{"name":"","type":"uint256","internalType":"uint256"}],"stateMutability":"view"},{"type":"function","name":"owner","inputs":[],"outputs":[{"name":"","type":"address","internalType":"address"}],"stateMutability":"view"},{"type":"function","name":"pendingOwner","inputs":[],"outputs":[{"name":"","type":"address","internalType":"address"}],"stateMutability":"view"},{"type":"function","name":"registerGame","inputs":[{"name":"game","type":"address","internalType":"address"}],"outputs":[],"stateMutability":"nonpayable"},{"type":"function","name":"registeredGames","inputs":[{"name":"","type":"address","internalType":"address"}],"outputs":[{"name":"","type":"bool","internalType":"bool"}],"stateMutability":"view"},{"type":"function","name":"remainingLimit","inputs":[{"name":"sessionId","type":"uint256","internalType":"uint256"}],"outputs":[{"name":"","type":"uint256","internalType":"uint256"}],"stateMutability":"view"},{"type":"function","name":"renounceOwnership","inputs":[],"outputs":[],"stateMutability":"nonpayable"},{"type":"function","name":"revokeSession","inputs":[{"name":"sessionId","type":"uint256","internalType":"uint256"}],"outputs":[],"stateMutability":"nonpayable"},{"type":"function","name":"sessionAllowedGames","inputs":[{"name":"","type":"uint256","internalType":"uint256"},{"name":"","type":"address","internalType":"address"}],"outputs":[{"name":"","type":"bool","internalType":"bool"}],"stateMutability":"view"},{"type":"function","name":"sessions","inputs":[{"name":"","type":"uint256","internalType":"uint256"}],"outputs":[{"name":"owner","type":"address","internalType":"address"},{"name":"delegate","type":"address","internalType":"address"},{"name":"maxBetAmount","type":"uint256","internalType":"uint256"},{"name":"expiresAt","type":"uint256","internalType":"uint256"},{"name":"totalSpent","type":"uint256","internalType":"uint256"},{"name":"spendingLimit","type":"uint256","internalType":"uint256"},{"name":"revoked","type":"bool","internalType":"bool"}],"stateMutability":"view"},{"type":"function","name":"transferOwnership","inputs":[{"name":"newOwner","type":"address","internalType":"address"}],"outputs":[],"stateMutability":"nonpayable"},{"type":"function","name":"unregisterGame","inputs":[{"name":"game","type":"address","internalType":"address"}],"outputs":[],"stateMutability":"nonpayable"},{"type":"function","name":"useSession","inputs":[{"name":"sessionId","type":"uint256","internalType":"uint256"},{"name":"game","type":"address","internalType":"address"},{"name":"amount","type":"uint256","internalType":"uint256"}],"outputs":[{"name":"owner","type":"address","internalType":"address"}],"stateMutability":"nonpayable"},{"type":"function","name":"userSessions","inputs":[{"name":"","type":"address","internalType":"address"},{"name":"","type":"uint256","internalType":"uint256"}],"outputs":[{"name":"","type":"uint256","internalType":"uint256"}],"stateMutability":"view"},{"type":"event","name":"GameRegistered","inputs":[{"name":"game","type":"address","indexed":true,"internalType":"address"}],"anonymous":false},{"type":"event","name":"GameUnregistered","inputs":[{"name":"game","type":"address","indexed":true,"internalType":"address"}],"anonymous":false},{"type":"event","name":"OwnershipTransferStarted","inputs":[{"name":"previousOwner","type":"address","indexed":true,"internalType":"address"},{"name":"newOwner","type":"address","indexed":true,"internalType":"address"}],"anonymous":false},{"type":"event","name":"OwnershipTransferred","inputs":[{"name":"previousOwner","type":"address","indexed":true,"internalType":"address"},{"name":"newOwner","type":"address","indexed":true,"internalType":"address"}],"anonymous":false},{"type":"event","name":"SessionCreated","inputs":[{"name":"sessionId","type":"uint256","indexed":true,"internalType":"uint256"},{"name":"owner","type":"address","indexed":true,"internalType":"address"},{"name":"delegate","type":"address","indexed":true,"internalType":"address"},{"name":"maxBetAmount","type":"uint256","indexed":false,"internalType":"uint256"},{"name":"spendingLimit","type":"uint256","indexed":false,"internalType":"uint256"},{"name":"expiresAt","type":"uint256","indexed":false,"internalType":"uint256"}],"anonymous":false},{"type":"event","name":"SessionRevoked","inputs":[{"name":"sessionId","type":"uint256","indexed":true,"internalType":"uint256"},{"name":"owner","type":"address","indexed":true,"internalType":"address"}],"anonymous":false},{"type":"event","name":"SessionUsed","inputs":[{"name":"sessionId","type":"uint256","indexed":true,"internalType":"uint256"},{"name":"game","type":"address","indexed":true,"internalType":"address"},{"name":"amount","type":"uint256","indexed":false,"internalType":"uint256"}],"anonymous":false},{"type":"error","name":"BetExceedsSessionMax","inputs":[{"name":"amount","type":"uint256","internalType":"uint256"},{"name":"maxBet","type":"uint256","internalType":"uint256"}]},{"type":"error","name":"GameNotAllowed","inputs":[{"name":"game","type":"address","internalType":"address"}]},{"type":"error","name":"GameNotRegistered","inputs":[{"name":"game","type":"address","internalType":"address"}]},{"type":"error","name":"InvalidExpiry","inputs":[]},{"type":"error","name":"NoGamesSpecified","inputs":[]},{"type":"error","name":"NotSessionDelegate","inputs":[]},{"type":"error","name":"NotSessionOwner","inputs":[]},{"type":"error","name":"OwnableInvalidOwner","inputs":[{"name":"owner","type":"address","internalType":"address"}]},{"type":"error","name":"OwnableUnauthorizedAccount","inputs":[{"name":"account","type":"address","internalType":"address"}]},{"type":"error","name":"SessionExpired","inputs":[{"name":"sessionId","type":"uint256","internalType":"uint256"}]},{"type":"error","name":"SessionNotFound","inputs":[]},{"type":"error","name":"SessionRevoked_","inputs":[]},{"type":"error","name":"SpendingLimitExceeded","inputs":[{"name":"totalAfter","type":"uint256","internalType":"uint256"},{"name":"limit","type":"uint256","internalType":"uint256"}]},{"type":"error","name":"ZeroAddress","inputs":[]},{"type":"error","name":"ZeroAmount","inputs":[]}],"bytecode":{"object":"0x608060405234801561000f575f80fd5b50338061003557604051631e4fbdf760e01b81525f600482015260240160405180910390fd5b61003e81610044565b506100af565b600180546001600160a01b031916905561005d81610060565b50565b5f80546001600160a01b038381166001600160a01b0319831681178455604051919092169283917f8be0079c531659141344cd1fd0a4f28419497f9722a3daafe3b4186f6b6457e09190a35050565b610f36806100bc5f395ff3fe608060405234801561000f575f80fd5b506004361061013d575f3560e01c80638da5cb5b116100b4578063dc428ba011610079578063dc428ba014610377578063e2491a6a1461038a578063e30c39781461039d578063e9785117146103ae578063eee0cbc8146103c1578063f2fde38b146103d4575f80fd5b80638da5cb5b146103065780639b36057c14610316578063b987208514610329578063cc16984c1461033c578063cffbc7f514610364575f80fd5b80636d597d13116101055780636d597d13146101ef578063715018a61461020257806372df248f1461020c57806379ba50971461024f57806383c4b7a314610257578063890aa541146102f3575f80fd5b8063071a5bba14610141578063223715dd14610183578063293b7a24146101a357806349bbf7da146101b65780636a8354a4146101cd575b5f80fd5b61016e61014f366004610d03565b600460209081525f928352604080842090915290825290205460ff1681565b60405190151581526020015b60405180910390f35b610196610191366004610d2d565b6103e7565b60405161017a9190610d46565b6101966101b1366004610d2d565b610450565b6101bf60025481565b60405190815260200161017a565b61016e6101db366004610d2d565b60076020525f908152604090205460ff1681565b6101bf6101fd366004610d89565b6104b7565b61020a6104e2565b005b61023761021a366004610db1565b5f908152600360205260409020600101546001600160a01b031690565b6040516001600160a01b03909116815260200161017a565b61020a6104f5565b6102b1610265366004610db1565b600360208190525f918252604090912080546001820154600283015493830154600484015460058501546006909501546001600160a01b03948516969490931694919290919060ff1687565b604080516001600160a01b039889168152979096166020880152948601939093526060850191909152608084015260a0830152151560c082015260e00161017a565b61020a610301366004610d2d565b61053e565b5f546001600160a01b0316610237565b61020a610324366004610d2d565b61058e565b61020a610337366004610db1565b610608565b61023761034a366004610db1565b5f908152600360205260409020546001600160a01b031690565b6101bf610372366004610db1565b6106a6565b61016e610385366004610db1565b6106e5565b6101bf610398366004610d89565b610723565b6001546001600160a01b0316610237565b6102376103bc366004610dc8565b61073c565b6101bf6103cf366004610dfa565b6108e2565b61020a6103e2366004610d2d565b610be9565b6001600160a01b0381165f9081526005602090815260409182902080548351818402810184019094528084526060939283018282801561044457602002820191905f5260205f20905b815481526020019060010190808311610430575b50505050509050919050565b6001600160a01b0381165f9081526006602090815260409182902080548351818402810184019094528084526060939283018282801561044457602002820191905f5260205f20908154815260200190600101908083116104305750505050509050919050565b6005602052815f5260405f2081815481106104d0575f80fd5b905f5260205f20015f91509150505481565b6104ea610c59565b6104f35f610c85565b565b60015433906001600160a01b031681146105325760405163118cdaa760e01b81526001600160a01b03821660048201526024015b60405180910390fd5b61053b81610c85565b50565b610546610c59565b6001600160a01b0381165f81815260076020526040808220805460ff19169055517f018884b0ef6140fcac7040ea434c72d88931fd290e80ad12d8d23641fb6e89099190a250565b610596610c59565b6001600160a01b0381166105bd5760405163d92e233d60e01b815260040160405180910390fd5b6001600160a01b0381165f81815260076020526040808220805460ff19166001179055517f1242fa44f29ea25204260dcb4d577c3a31c201abab5392839c94d1274a8244e59190a250565b5f81815260036020526040902080546001600160a01b031661063d576040516396c95f8160e01b815260040160405180910390fd5b80546001600160a01b0316331461066757604051636f26118960e11b815260040160405180910390fd5b60068101805460ff19166001179055604051339083907f8cd7a7d20dd4310706b8aa2c4f57c161e0c23463f5ebf330bed60c5a23f72eb8905f90a35050565b5f81815260036020526040812060058101546004820154106106ca57505f92915050565b806004015481600501546106de9190610ea8565b9392505050565b5f81815260036020526040812080546001600160a01b0316158015906107105750600681015460ff16155b80156106de575060030154421092915050565b6006602052815f5260405f2081815481106104d0575f80fd5b5f83815260036020526040812080546001600160a01b0316610771576040516396c95f8160e01b815260040160405180910390fd5b600681015460ff1615610797576040516315707c1d60e11b815260040160405180910390fd5b806003015442106107be5760405163b1bbfdd560e01b815260048101869052602401610529565b5f8581526004602090815260408083206001600160a01b038816845290915290205460ff1661080b576040516350b7c7a560e11b81526001600160a01b0385166004820152602401610529565b8060020154831115610840576002810154604051632f9703c760e01b8152610529918591600401918252602082015260400190565b5f8382600401546108519190610ec1565b90508160050154811115610888576005820154604051634557d16560e01b8152610529918391600401918252602082015260400190565b600482018190556040518481526001600160a01b0386169087907fd6ed47ad16837589dd97f21bb3b73c554c8fd6d95ca311c332ee2b9a75a9999f9060200160405180910390a350546001600160a01b0316949350505050565b5f6001600160a01b03871661090a5760405163d92e233d60e01b815260040160405180910390fd5b855f0361092a57604051631f2a200560e01b815260040160405180910390fd5b845f0361094a57604051631f2a200560e01b815260040160405180910390fd5b4284116109695760405162d36c8560e81b815260040160405180910390fd5b5f82900361098a57604051635a57d00b60e01b815260040160405180910390fd5b60028054905f61099983610ed4565b909155506040805160e0810182523381526001600160a01b038a811660208084019182528385018c8152606085018b81525f6080870181815260a088018f815260c089018381528b8452600396879052998320985189549089166001600160a01b0319918216178a55965160018a018054919099169716969096179096559151600287015551918501919091559151600484015551600583015591516006909101805491151560ff199092169190911790559091505b82811015610b535760075f858584818110610a6c57610a6c610eec565b9050602002016020810190610a819190610d2d565b6001600160a01b0316815260208101919091526040015f205460ff16610aed57838382818110610ab357610ab3610eec565b9050602002016020810190610ac89190610d2d565b60405163c4d71d8f60e01b81526001600160a01b039091166004820152602401610529565b5f828152600460205260408120600191868685818110610b0f57610b0f610eec565b9050602002016020810190610b249190610d2d565b6001600160a01b0316815260208101919091526040015f20805460ff1916911515919091179055600101610a4f565b50335f818152600560209081526040808320805460018082018355918552838520018690556001600160a01b038c1680855260068452828520805492830181558552938390200185905580518a8152918201899052810187905290919083907fbca09c54eed61d7f1ecfdd444c2ceb26a6ad63572609e0f85e02d8a78e526fa99060600160405180910390a49695505050505050565b610bf1610c59565b600180546001600160a01b0383166001600160a01b03199091168117909155610c215f546001600160a01b031690565b6001600160a01b03167f38d16b8cac22d99fc7c124b9cd0de2d3fa1faef420bfe791d8c362d765e2270060405160405180910390a350565b5f546001600160a01b031633146104f35760405163118cdaa760e01b8152336004820152602401610529565b600180546001600160a01b031916905561053b815f80546001600160a01b038381166001600160a01b0319831681178455604051919092169283917f8be0079c531659141344cd1fd0a4f28419497f9722a3daafe3b4186f6b6457e09190a35050565b80356001600160a01b0381168114610cfe575f80fd5b919050565b5f8060408385031215610d14575f80fd5b82359150610d2460208401610ce8565b90509250929050565b5f60208284031215610d3d575f80fd5b6106de82610ce8565b602080825282518282018190525f9190848201906040850190845b81811015610d7d57835183529284019291840191600101610d61565b50909695505050505050565b5f8060408385031215610d9a575f80fd5b610da383610ce8565b946020939093013593505050565b5f60208284031215610dc1575f80fd5b5035919050565b5f805f60608486031215610dda575f80fd5b83359250610dea60208501610ce8565b9150604084013590509250925092565b5f805f805f8060a08789031215610e0f575f80fd5b610e1887610ce8565b9550602087013594506040870135935060608701359250608087013567ffffffffffffffff80821115610e49575f80fd5b818901915089601f830112610e5c575f80fd5b813581811115610e6a575f80fd5b8a60208260051b8501011115610e7e575f80fd5b6020830194508093505050509295509295509295565b634e487b7160e01b5f52601160045260245ffd5b81810381811115610ebb57610ebb610e94565b92915050565b80820180821115610ebb57610ebb610e94565b5f60018201610ee557610ee5610e94565b5060010190565b634e487b7160e01b5f52603260045260245ffdfea264697066735822122029d535e6e17aa93d1839603639432664eb3b0d71ab03fa06b4ad647345f0741564736f6c63430008180033","linkReferences":{}},"methodIdentifiers":{"acceptOwnership()":"79ba5097","createSession(address,uint256,uint256,uint256,address[])":"eee0cbc8","delegateSessions(address,uint256)":"e2491a6a","getDelegateSessions(address)":"293b7a24","getSessionDelegate(uint256)":"72df248f","getSessionOwner(uint256)":"cc16984c","getUserSessions(address)":"223715dd","isSessionValid(uint256)":"dc428ba0","nextSessionId()":"49bbf7da","owner()":"8da5cb5b","pendingOwner()":"e30c3978","registerGame(address)":"9b36057c","registeredGames(address)":"6a8354a4","remainingLimit(uint256)":"cffbc7f5","renounceOwnership()":"715018a6","revokeSession(uint256)":"b9872085","sessionAllowedGames(uint256,address)":"071a5bba","sessions(uint256)":"83c4b7a3","transferOwnership(address)":"f2fde38b","unregisterGame(address)":"890aa541","useSession(uint256,address,uint256)":"e9785117","userSessions(address,uint256)":"6d597d13"},"id":44}