{"abi":[{"type":"constructor","inputs":[{"name":"_token","type":"address","internalType":"contract IERC20"},{"name":"_treasury","type":"address","internalType":"address"},{"name":"_houseVault","type":"address","internalType":"address"},{"name":"_feeBps","type":"uint256","internalType":"uint256"},{"name":"_treasuryShareBps","type":"uint256","internalType":"uint256"}],"stateMutability":"nonpayable"},{"type":"function","name":"BPS","inputs":[],"outputs":[{"name":"","type":"uint256","internalType":"uint256"}],"stateMutability":"view"},{"type":"function","name":"MAX_FEE_BPS","inputs":[],"outputs":[{"name":"","type":"uint256","internalType":"uint256"}],"stateMutability":"view"},{"type":"function","name":"acceptOwnership","inputs":[],"outputs":[],"stateMutability":"nonpayable"},{"type":"function","name":"authorizeGame","inputs":[{"name":"game","type":"address","internalType":"address"}],"outputs":[],"stateMutability":"nonpayable"},{"type":"function","name":"authorizedGames","inputs":[{"name":"","type":"address","internalType":"address"}],"outputs":[{"name":"","type":"bool","internalType":"bool"}],"stateMutability":"view"},{"type":"function","name":"calculateFee","inputs":[{"name":"betAmount","type":"uint256","internalType":"uint256"}],"outputs":[{"name":"fee","type":"uint256","internalType":"uint256"}],"stateMutability":"view"},{"type":"function","name":"collectFee","inputs":[{"name":"player","type":"address","internalType":"address"},{"name":"betAmount","type":"uint256","internalType":"uint256"},{"name":"feeAmount","type":"uint256","internalType":"uint256"}],"outputs":[],"stateMutability":"nonpayable"},{"type":"function","name":"distributeFees","inputs":[],"outputs":[],"stateMutability":"nonpayable"},{"type":"function","name":"feeBps","inputs":[],"outputs":[{"name":"","type":"uint256","internalType":"uint256"}],"stateMutability":"view"},{"type":"function","name":"houseVault","inputs":[],"outputs":[{"name":"","type":"address","internalType":"address"}],"stateMutability":"view"},{"type":"function","name":"owner","inputs":[],"outputs":[{"name":"","type":"address","internalType":"address"}],"stateMutability":"view"},{"type":"function","name":"pendingFees","inputs":[],"outputs":[{"name":"","type":"uint256","internalType":"uint256"}],"stateMutability":"view"},{"type":"function","name":"pendingOwner","inputs":[],"outputs":[{"name":"","type":"address","internalType":"address"}],"stateMutability":"view"},{"type":"function","name":"renounceOwnership","inputs":[],"outputs":[],"stateMutability":"nonpayable"},{"type":"function","name":"revokeGame","inputs":[{"name":"game","type":"address","internalType":"address"}],"outputs":[],"stateMutability":"nonpayable"},{"type":"function","name":"setFeeBps","inputs":[{"name":"_feeBps","type":"uint256","internalType":"uint256"}],"outputs":[],"stateMutability":"nonpayable"},{"type":"function","name":"setHouseVault","inputs":[{"name":"_houseVault","type":"address","internalType":"address"}],"outputs":[],"stateMutability":"nonpayable"},{"type":"function","name":"setTreasury","inputs":[{"name":"_treasury","type":"address","internalType":"address"}],"outputs":[],"stateMutability":"nonpayable"},{"type":"function","name":"setTreasuryShare","inputs":[{"name":"_treasuryShareBps","type":"uint256","internalType":"uint256"}],"outputs":[],"stateMutability":"nonpayable"},{"type":"function","name":"token","inputs":[],"outputs":[{"name":"","type":"address","internalType":"contract IERC20"}],"stateMutability":"view"},{"type":"function","name":"totalFeesCollected","inputs":[],"outputs":[{"name":"","type":"uint256","internalType":"uint256"}],"stateMutability":"view"},{"type":"function","name":"totalTreasuryFees","inputs":[],"outputs":[{"name":"","type":"uint256","internalType":"uint256"}],"stateMutability":"view"},{"type":"function","name":"totalVaultFees","inputs":[],"outputs":[{"name":"","type":"uint256","internalType":"uint256"}],"stateMutability":"view"},{"type":"function","name":"transferOwnership","inputs":[{"name":"newOwner","type":"address","internalType":"address"}],"outputs":[],"stateMutability":"nonpayable"},{"type":"function","name":"treasury","inputs":[],"outputs":[{"name":"","type":"address","internalType":"address"}],"stateMutability":"view"},{"type":"function","name":"treasuryShareBps","inputs":[],"outputs":[{"name":"","type":"uint256","internalType":"uint256"}],"stateMutability":"view"},{"type":"event","name":"FeeBpsUpdated","inputs":[{"name":"oldBps","type":"uint256","indexed":false,"internalType":"uint256"},{"name":"newBps","type":"uint256","indexed":false,"internalType":"uint256"}],"anonymous":false},{"type":"event","name":"FeeCollected","inputs":[{"name":"game","type":"address","indexed":true,"internalType":"address"},{"name":"player","type":"address","indexed":true,"internalType":"address"},{"name":"betAmount","type":"uint256","indexed":false,"internalType":"uint256"},{"name":"feeAmount","type":"uint256","indexed":false,"internalType":"uint256"}],"anonymous":false},{"type":"event","name":"FeesDistributed","inputs":[{"name":"treasuryAmount","type":"uint256","indexed":false,"internalType":"uint256"},{"name":"vaultAmount","type":"uint256","indexed":false,"internalType":"uint256"}],"anonymous":false},{"type":"event","name":"GameAuthorized","inputs":[{"name":"game","type":"address","indexed":true,"internalType":"address"}],"anonymous":false},{"type":"event","name":"GameRevoked","inputs":[{"name":"game","type":"address","indexed":true,"internalType":"address"}],"anonymous":false},{"type":"event","name":"HouseVaultUpdated","inputs":[{"name":"oldVault","type":"address","indexed":true,"internalType":"address"},{"name":"newVault","type":"address","indexed":true,"internalType":"address"}],"anonymous":false},{"type":"event","name":"OwnershipTransferStarted","inputs":[{"name":"previousOwner","type":"address","indexed":true,"internalType":"address"},{"name":"newOwner","type":"address","indexed":true,"internalType":"address"}],"anonymous":false},{"type":"event","name":"OwnershipTransferred","inputs":[{"name":"previousOwner","type":"address","indexed":true,"internalType":"address"},{"name":"newOwner","type":"address","indexed":true,"internalType":"address"}],"anonymous":false},{"type":"event","name":"TreasuryShareUpdated","inputs":[{"name":"oldShare","type":"uint256","indexed":false,"internalType":"uint256"},{"name":"newShare","type":"uint256","indexed":false,"internalType":"uint256"}],"anonymous":false},{"type":"event","name":"TreasuryUpdated","inputs":[{"name":"oldTreasury","type":"address","indexed":true,"internalType":"address"},{"name":"newTreasury","type":"address","indexed":true,"internalType":"address"}],"anonymous":false},{"type":"error","name":"FeeTooHigh","inputs":[{"name":"requested","type":"uint256","internalType":"uint256"},{"name":"max","type":"uint256","internalType":"uint256"}]},{"type":"error","name":"NotAuthorizedGame","inputs":[]},{"type":"error","name":"NothingToDistribute","inputs":[]},{"type":"error","name":"OwnableInvalidOwner","inputs":[{"name":"owner","type":"address","internalType":"address"}]},{"type":"error","name":"OwnableUnauthorizedAccount","inputs":[{"name":"account","type":"address","internalType":"address"}]},{"type":"error","name":"ReentrancyGuardReentrantCall","inputs":[]},{"type":"error","name":"SafeERC20FailedOperation","inputs":[{"name":"token","type":"address","internalType":"address"}]},{"type":"error","name":"ShareTooHigh","inputs":[]},{"type":"error","name":"ZeroAddress","inputs":[]}],"bytecode":{"object":"0x60a060405234801562000010575f80fd5b5060405162000e8338038062000e8383398101604081905262000033916200021d565b33806200005a57604051631e4fbdf760e01b81525f60048201526024015b60405180910390fd5b62000065816200019b565b5060017f9b779b17422d0df92223018b32b4d1fa46e071723d6817e2486d003becc55f00556001600160a01b038516620000b25760405163d92e233d60e01b815260040160405180910390fd5b6001600160a01b038416620000da5760405163d92e233d60e01b815260040160405180910390fd5b6001600160a01b038316620001025760405163d92e233d60e01b815260040160405180910390fd5b6101f482111562000132576040516373ab893560e11b8152600481018390526101f4602482015260440162000051565b6127108111156200015657604051630a81ff1360e21b815260040160405180910390fd5b6001600160a01b03948516608052600380546001600160a01b03199081169587169590951790556004805490941692909416919091179091556002556005556200027e565b600180546001600160a01b0319169055620001b681620001b9565b50565b5f80546001600160a01b038381166001600160a01b0319831681178455604051919092169283917f8be0079c531659141344cd1fd0a4f28419497f9722a3daafe3b4186f6b6457e09190a35050565b6001600160a01b0381168114620001b6575f80fd5b5f805f805f60a0868803121562000232575f80fd5b85516200023f8162000208565b6020870151909550620002528162000208565b6040870151909450620002658162000208565b6060870151608090970151959894975095949392505050565b608051610bde620002a55f395f81816103410152818161075801526107980152610bde5ff3fe608060405234801561000f575f80fd5b5060043610610187575f3560e01c806379ba5097116100d9578063d49fbe0511610093578063ea280be31161006e578063ea280be31461030d578063f0f4426014610316578063f2fde38b14610329578063fc0c546a1461033c575f80fd5b8063d49fbe05146102e0578063d55be8c6146102f3578063e30c3978146102fc575f80fd5b806379ba5097146102685780638da5cb5b1461027057806399a5d747146102805780639a2178cc146102935780639e492b99146102a6578063bb57ad20146102d8575f80fd5b80635e4402df1161014457806361d027b31161011f57806361d027b31461020f578063715018a61461023a57806372c27b621461024257806374f9e6a314610255575f80fd5b80635e4402df146101e05780635f2e403f146101f357806360c6d8ae14610206575f80fd5b806301e086e11461018b5780630b37ad28146101a0578063224438d1146101bc578063249d39e9146101c557806324a9d853146101ce57806330654a47146101d7575b5f80fd5b61019e610199366004610ad1565b610363565b005b6101a960095481565b6040519081526020015b60405180910390f35b6101a9600a5481565b6101a961271081565b6101a960025481565b6101a960055481565b61019e6101ee366004610ad1565b6103b3565b61019e610201366004610ad1565b61042d565b6101a960075481565b600354610222906001600160a01b031681565b6040516001600160a01b0390911681526020016101b3565b61019e6104ad565b61019e610250366004610af1565b6104c0565b61019e610263366004610af1565b610541565b61019e6105aa565b5f546001600160a01b0316610222565b6101a961028e366004610af1565b6105ee565b61019e6102a1366004610b08565b610610565b6102c86102b4366004610ad1565b60066020525f908152604090205460ff1681565b60405190151581526020016101b3565b61019e6106b8565b600454610222906001600160a01b031681565b6101a96101f481565b6001546001600160a01b0316610222565b6101a960085481565b61019e610324366004610ad1565b610826565b61019e610337366004610ad1565b6108a6565b6102227f000000000000000000000000000000000000000000000000000000000000000081565b61036b610916565b6001600160a01b0381165f81815260066020526040808220805460ff19169055517f78b7f19de299af2e39976ccb793c72d123a2a5960c69bfde2f8c8e53437fdb1b9190a250565b6103bb610916565b6001600160a01b0381166103e25760405163d92e233d60e01b815260040160405180910390fd5b6001600160a01b0381165f81815260066020526040808220805460ff19166001179055517f84a81ad072505ad49c4e9a66bfcdb55a2cff07cb4ea59ec7dc9cb27a38196a4d9190a250565b610435610916565b6001600160a01b03811661045c5760405163d92e233d60e01b815260040160405180910390fd5b600480546001600160a01b038381166001600160a01b0319831681179093556040519116919082907fb02a7d0a7f010d1be975078d8f9adbd66af4948262b8139cf95136d67e0e0f44905f90a35050565b6104b5610916565b6104be5f610942565b565b6104c8610916565b6101f48111156104fb576040516373ab893560e11b8152600481018290526101f460248201526044015b60405180910390fd5b600280549082905560408051828152602081018490527f5ec5620e288c4be955ccb6cfb3d55431a8fed5c4c96ffacc4b9506360695f64e91015b60405180910390a15050565b610549610916565b61271081111561056c57604051630a81ff1360e21b815260040160405180910390fd5b600580549082905560408051828152602081018490527f0fba96d1c53d5d886c8108d545bd3ab8911543174c9ddd7f10b7a50ef8a20bb79101610535565b60015433906001600160a01b031681146105e25760405163118cdaa760e01b81526001600160a01b03821660048201526024016104f2565b6105eb81610942565b50565b5f612710600254836106009190610b4c565b61060a9190610b63565b92915050565b335f9081526006602052604090205460ff1661063f5760405163032d9f6960e01b815260040160405180910390fd5b8060075f8282546106509190610b82565b9250508190555080600a5f8282546106689190610b82565b909155505060408051838152602081018390526001600160a01b0385169133917f205442d60b70af1203d43cab62352c3b69b94f091be32fe683198057282b5c92910160405180910390a3505050565b6106c061095b565b600a545f8190036106e35760405162598fc960e21b815260040160405180910390fd5b5f600a819055600554612710906106fa9084610b4c565b6107049190610b63565b90505f6107118284610b95565b90508160085f8282546107249190610b82565b925050819055508060095f82825461073c9190610b82565b9091555050811561078157600354610781906001600160a01b037f00000000000000000000000000000000000000000000000000000000000000008116911684610989565b80156107c1576004546107c1906001600160a01b037f00000000000000000000000000000000000000000000000000000000000000008116911683610989565b60408051838152602081018390527f771d362663b46bd788cd13fc183c9432449a2be6bcb81051bfeb484afd9c5dd8910160405180910390a15050506104be60017f9b779b17422d0df92223018b32b4d1fa46e071723d6817e2486d003becc55f0055565b61082e610916565b6001600160a01b0381166108555760405163d92e233d60e01b815260040160405180910390fd5b600380546001600160a01b038381166001600160a01b0319831681179093556040519116919082907f4ab5be82436d353e61ca18726e984e561f5c1cc7c6d38b29d2553c790434705a905f90a35050565b6108ae610916565b600180546001600160a01b0383166001600160a01b031990911681179091556108de5f546001600160a01b031690565b6001600160a01b03167f38d16b8cac22d99fc7c124b9cd0de2d3fa1faef420bfe791d8c362d765e2270060405160405180910390a350565b5f546001600160a01b031633146104be5760405163118cdaa760e01b81523360048201526024016104f2565b600180546001600160a01b03191690556105eb816109c3565b610963610a12565b60027f9b779b17422d0df92223018b32b4d1fa46e071723d6817e2486d003becc55f0055565b6109968383836001610a54565b6109be57604051635274afe760e01b81526001600160a01b03841660048201526024016104f2565b505050565b5f80546001600160a01b038381166001600160a01b0319831681178455604051919092169283917f8be0079c531659141344cd1fd0a4f28419497f9722a3daafe3b4186f6b6457e09190a35050565b7f9b779b17422d0df92223018b32b4d1fa46e071723d6817e2486d003becc55f00546002036104be57604051633ee5aeb560e01b815260040160405180910390fd5b60405163a9059cbb60e01b5f8181526001600160a01b038616600452602485905291602083604481808b5af1925060015f51148316610aaa578383151615610a9e573d5f823e3d81fd5b5f873b113d1516831692505b60405250949350505050565b80356001600160a01b0381168114610acc575f80fd5b919050565b5f60208284031215610ae1575f80fd5b610aea82610ab6565b9392505050565b5f60208284031215610b01575f80fd5b5035919050565b5f805f60608486031215610b1a575f80fd5b610b2384610ab6565b95602085013595506040909401359392505050565b634e487b7160e01b5f52601160045260245ffd5b808202811582820484141761060a5761060a610b38565b5f82610b7d57634e487b7160e01b5f52601260045260245ffd5b500490565b8082018082111561060a5761060a610b38565b8181038181111561060a5761060a610b3856fea2646970667358221220f91b93135bf852081307bbfa343ffcc52c72b9387e11f5abad9f1225422cec5864736f6c63430008180033","linkReferences":{}},"methodIdentifiers":{"BPS()":"249d39e9","MAX_FEE_BPS()":"d55be8c6","acceptOwnership()":"79ba5097","authorizeGame(address)":"5e4402df","authorizedGames(address)":"9e492b99","calculateFee(uint256)":"99a5d747","collectFee(address,uint256,uint256)":"9a2178cc","distributeFees()":"bb57ad20","feeBps()":"24a9d853","houseVault()":"d49fbe05","owner()":"8da5cb5b","pendingFees()":"224438d1","pendingOwner()":"e30c3978","renounceOwnership()":"715018a6","revokeGame(address)":"01e086e1","setFeeBps(uint256)":"72c27b62","setHouseVault(address)":"5f2e403f","setTreasury(address)":"f0f44260","setTreasuryShare(uint256)":"74f9e6a3","token()":"fc0c546a","totalFeesCollected()":"60c6d8ae","totalTreasuryFees()":"ea280be3","totalVaultFees()":"0b37ad28","transferOwnership(address)":"f2fde38b","treasury()":"61d027b3","treasuryShareBps()":"30654a47"},"id":49}