{"abi":[{"type":"constructor","inputs":[{"name":"_token","type":"address","internalType":"contract IERC20"},{"name":"_vault","type":"address","internalType":"contract HouseVault"},{"name":"_randomness","type":"address","internalType":"contract RandomnessProvider"},{"name":"_sessionManager","type":"address","internalType":"contract SessionManager"},{"name":"_feeCollector","type":"address","internalType":"contract FeeCollector"},{"name":"_leaderboard","type":"address","internalType":"contract Leaderboard"}],"stateMutability":"nonpayable"},{"type":"function","name":"BPS","inputs":[],"outputs":[{"name":"","type":"uint256","internalType":"uint256"}],"stateMutability":"view"},{"type":"function","name":"HOUSE_EDGE_BPS","inputs":[],"outputs":[{"name":"","type":"uint256","internalType":"uint256"}],"stateMutability":"view"},{"type":"function","name":"MAX_CHOICE","inputs":[],"outputs":[{"name":"","type":"uint256","internalType":"uint256"}],"stateMutability":"view"},{"type":"function","name":"MIN_CHOICE","inputs":[],"outputs":[{"name":"","type":"uint256","internalType":"uint256"}],"stateMutability":"view"},{"type":"function","name":"acceptOwnership","inputs":[],"outputs":[],"stateMutability":"nonpayable"},{"type":"function","name":"bets","inputs":[{"name":"","type":"uint256","internalType":"uint256"}],"outputs":[{"name":"player","type":"address","internalType":"address"},{"name":"amount","type":"uint256","internalType":"uint256"},{"name":"feeAmount","type":"uint256","internalType":"uint256"},{"name":"chosenNumber","type":"uint256","internalType":"uint256"},{"name":"commitId","type":"uint256","internalType":"uint256"},{"name":"status","type":"uint8","internalType":"enum DiceRoll.BetStatus"},{"name":"payout","type":"uint256","internalType":"uint256"},{"name":"rolledNumber","type":"uint256","internalType":"uint256"}],"stateMutability":"view"},{"type":"function","name":"calculatePayout","inputs":[{"name":"betAmount","type":"uint256","internalType":"uint256"},{"name":"chosenNumber","type":"uint256","internalType":"uint256"}],"outputs":[{"name":"","type":"uint256","internalType":"uint256"}],"stateMutability":"pure"},{"type":"function","name":"claimTimeout","inputs":[{"name":"betId","type":"uint256","internalType":"uint256"}],"outputs":[],"stateMutability":"nonpayable"},{"type":"function","name":"commitToBet","inputs":[{"name":"","type":"uint256","internalType":"uint256"}],"outputs":[{"name":"","type":"uint256","internalType":"uint256"}],"stateMutability":"view"},{"type":"function","name":"feeCollector","inputs":[],"outputs":[{"name":"","type":"address","internalType":"contract FeeCollector"}],"stateMutability":"view"},{"type":"function","name":"getBet","inputs":[{"name":"betId","type":"uint256","internalType":"uint256"}],"outputs":[{"name":"","type":"tuple","internalType":"struct DiceRoll.Bet","components":[{"name":"player","type":"address","internalType":"address"},{"name":"amount","type":"uint256","internalType":"uint256"},{"name":"feeAmount","type":"uint256","internalType":"uint256"},{"name":"chosenNumber","type":"uint256","internalType":"uint256"},{"name":"commitId","type":"uint256","internalType":"uint256"},{"name":"status","type":"uint8","internalType":"enum DiceRoll.BetStatus"},{"name":"payout","type":"uint256","internalType":"uint256"},{"name":"rolledNumber","type":"uint256","internalType":"uint256"}]}],"stateMutability":"view"},{"type":"function","name":"getMaxBet","inputs":[{"name":"chosenNumber","type":"uint256","internalType":"uint256"}],"outputs":[{"name":"","type":"uint256","internalType":"uint256"}],"stateMutability":"view"},{"type":"function","name":"getMultiplierBps","inputs":[{"name":"chosenNumber","type":"uint256","internalType":"uint256"}],"outputs":[{"name":"multiplierBps","type":"uint256","internalType":"uint256"}],"stateMutability":"pure"},{"type":"function","name":"getWinProbabilityBps","inputs":[{"name":"chosenNumber","type":"uint256","internalType":"uint256"}],"outputs":[{"name":"","type":"uint256","internalType":"uint256"}],"stateMutability":"pure"},{"type":"function","name":"leaderboard","inputs":[],"outputs":[{"name":"","type":"address","internalType":"contract Leaderboard"}],"stateMutability":"view"},{"type":"function","name":"nextBetId","inputs":[],"outputs":[{"name":"","type":"uint256","internalType":"uint256"}],"stateMutability":"view"},{"type":"function","name":"owner","inputs":[],"outputs":[{"name":"","type":"address","internalType":"address"}],"stateMutability":"view"},{"type":"function","name":"paused","inputs":[],"outputs":[{"name":"","type":"bool","internalType":"bool"}],"stateMutability":"view"},{"type":"function","name":"pendingOwner","inputs":[],"outputs":[{"name":"","type":"address","internalType":"address"}],"stateMutability":"view"},{"type":"function","name":"placeBet","inputs":[{"name":"amount","type":"uint256","internalType":"uint256"},{"name":"chosenNumber","type":"uint256","internalType":"uint256"},{"name":"playerCommitHash","type":"bytes32","internalType":"bytes32"}],"outputs":[{"name":"betId","type":"uint256","internalType":"uint256"}],"stateMutability":"nonpayable"},{"type":"function","name":"placeBetWithSession","inputs":[{"name":"sessionId","type":"uint256","internalType":"uint256"},{"name":"amount","type":"uint256","internalType":"uint256"},{"name":"chosenNumber","type":"uint256","internalType":"uint256"},{"name":"playerCommitHash","type":"bytes32","internalType":"bytes32"}],"outputs":[{"name":"betId","type":"uint256","internalType":"uint256"}],"stateMutability":"nonpayable"},{"type":"function","name":"randomness","inputs":[],"outputs":[{"name":"","type":"address","internalType":"contract RandomnessProvider"}],"stateMutability":"view"},{"type":"function","name":"renounceOwnership","inputs":[],"outputs":[],"stateMutability":"nonpayable"},{"type":"function","name":"resolveBet","inputs":[{"name":"betId","type":"uint256","internalType":"uint256"},{"name":"playerSeed","type":"bytes32","internalType":"bytes32"}],"outputs":[],"stateMutability":"nonpayable"},{"type":"function","name":"sessionManager","inputs":[],"outputs":[{"name":"","type":"address","internalType":"contract SessionManager"}],"stateMutability":"view"},{"type":"function","name":"setPaused","inputs":[{"name":"_paused","type":"bool","internalType":"bool"}],"outputs":[],"stateMutability":"nonpayable"},{"type":"function","name":"token","inputs":[],"outputs":[{"name":"","type":"address","internalType":"contract IERC20"}],"stateMutability":"view"},{"type":"function","name":"transferOwnership","inputs":[{"name":"newOwner","type":"address","internalType":"address"}],"outputs":[],"stateMutability":"nonpayable"},{"type":"function","name":"vault","inputs":[],"outputs":[{"name":"","type":"address","internalType":"contract HouseVault"}],"stateMutability":"view"},{"type":"event","name":"BetPlaced","inputs":[{"name":"betId","type":"uint256","indexed":true,"internalType":"uint256"},{"name":"player","type":"address","indexed":true,"internalType":"address"},{"name":"amount","type":"uint256","indexed":false,"internalType":"uint256"},{"name":"chosenNumber","type":"uint256","indexed":false,"internalType":"uint256"},{"name":"commitId","type":"uint256","indexed":false,"internalType":"uint256"}],"anonymous":false},{"type":"event","name":"BetRefunded","inputs":[{"name":"betId","type":"uint256","indexed":true,"internalType":"uint256"},{"name":"player","type":"address","indexed":true,"internalType":"address"},{"name":"amount","type":"uint256","indexed":false,"internalType":"uint256"}],"anonymous":false},{"type":"event","name":"BetResolved","inputs":[{"name":"betId","type":"uint256","indexed":true,"internalType":"uint256"},{"name":"player","type":"address","indexed":true,"internalType":"address"},{"name":"won","type":"bool","indexed":false,"internalType":"bool"},{"name":"payout","type":"uint256","indexed":false,"internalType":"uint256"},{"name":"rolledNumber","type":"uint256","indexed":false,"internalType":"uint256"}],"anonymous":false},{"type":"event","name":"OwnershipTransferStarted","inputs":[{"name":"previousOwner","type":"address","indexed":true,"internalType":"address"},{"name":"newOwner","type":"address","indexed":true,"internalType":"address"}],"anonymous":false},{"type":"event","name":"OwnershipTransferred","inputs":[{"name":"previousOwner","type":"address","indexed":true,"internalType":"address"},{"name":"newOwner","type":"address","indexed":true,"internalType":"address"}],"anonymous":false},{"type":"event","name":"Paused","inputs":[{"name":"isPaused","type":"bool","indexed":false,"internalType":"bool"}],"anonymous":false},{"type":"error","name":"BetNotPending","inputs":[{"name":"betId","type":"uint256","internalType":"uint256"}]},{"type":"error","name":"BetTooLarge","inputs":[{"name":"amount","type":"uint256","internalType":"uint256"},{"name":"max","type":"uint256","internalType":"uint256"}]},{"type":"error","name":"GamePaused","inputs":[]},{"type":"error","name":"InvalidChoice","inputs":[{"name":"choice","type":"uint256","internalType":"uint256"}]},{"type":"error","name":"OwnableInvalidOwner","inputs":[{"name":"owner","type":"address","internalType":"address"}]},{"type":"error","name":"OwnableUnauthorizedAccount","inputs":[{"name":"account","type":"address","internalType":"address"}]},{"type":"error","name":"ReentrancyGuardReentrantCall","inputs":[]},{"type":"error","name":"SafeERC20FailedOperation","inputs":[{"name":"token","type":"address","internalType":"address"}]},{"type":"error","name":"ZeroAmount","inputs":[]}],"bytecode":{"object":"0x61014060405234801562000011575f80fd5b5060405162001a8038038062001a8083398101604081905262000034916200013c565b33806200005a57604051631e4fbdf760e01b81525f600482015260240160405180910390fd5b6200006581620000ba565b5060017f9b779b17422d0df92223018b32b4d1fa46e071723d6817e2486d003becc55f00556001600160a01b0395861660805293851660a05291841660c052831660e0528216610100521661012052620001cc565b600180546001600160a01b0319169055620000d581620000d8565b50565b5f80546001600160a01b038381166001600160a01b0319831681178455604051919092169283917f8be0079c531659141344cd1fd0a4f28419497f9722a3daafe3b4186f6b6457e09190a35050565b6001600160a01b0381168114620000d5575f80fd5b5f805f805f8060c0878903121562000152575f80fd5b86516200015f8162000127565b6020880151909650620001728162000127565b6040880151909550620001858162000127565b6060880151909450620001988162000127565b6080880151909350620001ab8162000127565b60a0880151909250620001be8162000127565b809150509295509295509295565b60805160a05160c05160e05161010051610120516117fc620002845f395f818161044c0152818161075b015261084f01525f818161040c01528181610f30015281816111ef015261122b01525f81816103d20152610cba01525f81816102bf015281816105f301528181610b010152610fc801525f8181610486015281816106e80152818161099e01528181610baa0152818161119401526112b801525f81816104ad0152818161117101526111cc01526117fc5ff3fe608060405234801561000f575f80fd5b50600436106101c6575f3560e01c806392f6983d116100fe578063c27779b71161009e578063eb56b7401161006e578063eb56b74014610447578063f2fde38b1461046e578063fbfa77cf14610481578063fc0c546a146104a8575f80fd5b8063c27779b7146103f4578063c415b95c14610407578063e30c39781461042e578063e456b68b1461043f575f80fd5b8063a5a23205116100d9578063a5a232051461039f578063b08a0570146103b2578063b32ff2be146103c5578063b7b13f79146103cd575f80fd5b806392f6983d146103645780639aca2792146103835780639dce5ff01461038c575f80fd5b80635c975abb11610169578063858e237611610144578063858e237614610326578063861a34bd1461032e57806386e773f1146103415780638da5cb5b14610354575f80fd5b80635c975abb146102f9578063715018a61461031657806379ba50971461031e575f80fd5b806322af00fa116101a457806322af00fa1461021b578063249d39e914610290578063295d8635146102a757806336013189146102ba575f80fd5b8063061e494f146101ca5780631424ed3e146101f357806316c38b3c14610208575b5f80fd5b6101dd6101d83660046114e7565b6104cf565b6040516101ea9190611532565b60405180910390f35b61020661020136600461159a565b61057b565b005b6102066102163660046115ba565b61092b565b61027c6102293660046114e7565b600360208190525f9182526040909120805460018201546002830154938301546004840154600585015460068601546007909601546001600160a01b0390951696939593949293919260ff909116919088565b6040516101ea9897969594939291906115d9565b61029961271081565b6040519081526020016101ea565b6102996102b53660046114e7565b61097a565b6102e17f000000000000000000000000000000000000000000000000000000000000000081565b6040516001600160a01b0390911681526020016101ea565b6005546103069060ff1681565b60405190151581526020016101ea565b610206610a16565b610206610a29565b610299606481565b61029961033c3660046114e7565b610a6d565b61020661034f3660046114e7565b610a97565b5f546001600160a01b03166102e1565b6102996103723660046114e7565b60046020525f908152604090205481565b61029960025481565b61029961039a36600461159a565b610c60565b6102996103ad366004611629565b610c8c565b6102996103c0366004611658565b610d53565b61029960c881565b6102e17f000000000000000000000000000000000000000000000000000000000000000081565b6102996104023660046114e7565b610d80565b6102e17f000000000000000000000000000000000000000000000000000000000000000081565b6001546001600160a01b03166102e1565b610299600281565b6102e17f000000000000000000000000000000000000000000000000000000000000000081565b61020661047c366004611695565b610d9b565b6102e17f000000000000000000000000000000000000000000000000000000000000000081565b6102e17f000000000000000000000000000000000000000000000000000000000000000081565b6104d7611490565b5f8281526003602081815260409283902083516101008101855281546001600160a01b031681526001820154928101929092526002810154938201939093529082015460608201526004808301546080830152600583015491929160a084019160ff9091169081111561054c5761054c6114fe565b600481111561055d5761055d6114fe565b81526006820154602082015260079091015460409091015292915050565b610583610e0b565b5f8281526003602052604090206001600582015460ff1660048111156105ab576105ab6114fe565b146105d157604051630992a63560e11b8152600481018490526024015b60405180910390fd5b6004818101546040516313e8626560e01b815291820152602481018390525f907f00000000000000000000000000000000000000000000000000000000000000006001600160a01b0316906313e8626590604401602060405180830381865afa158015610640573d5f803e3d5ffd5b505050506040513d601f19601f8201168201806040525081019061066491906116b0565b90505f6106726064836116db565b61067d906001611702565b60038401549091508110801561081b575f6106a085600101548660030154610c60565b60058601805460ff191660021790556006860181905560078601849055855460405163cf8d133f60e01b81526001600160a01b039182166004820152602481018390529192507f0000000000000000000000000000000000000000000000000000000000000000169063cf8d133f906044015f604051808303815f87803b158015610729575f80fd5b505af115801561073b573d5f803e3d5ffd5b5050865460018801546040516376703c2d60e11b81526001600160a01b037f00000000000000000000000000000000000000000000000000000000000000008116955063ece0785a9450610796931691908690600401611715565b5f604051808303815f87803b1580156107ad575f80fd5b505af11580156107bf573d5f803e3d5ffd5b505086546040805160018152602081018690529081018790526001600160a01b0390911692508991507f466c6a61ebe28887e0fb6f57a5031e926ad69cd23c608c971562a489dc991d179060600160405180910390a35061090d565b60058401805460ff191660031790555f6006850181905560078501839055845460018601546040516376703c2d60e11b81527f00000000000000000000000000000000000000000000000000000000000000006001600160a01b039081169463ece0785a9461088f94921692600401611715565b5f604051808303815f87803b1580156108a6575f80fd5b505af11580156108b8573d5f803e3d5ffd5b50508554604080515f80825260208201529081018690526001600160a01b0390911692508891507f466c6a61ebe28887e0fb6f57a5031e926ad69cd23c608c971562a489dc991d179060600160405180910390a35b5050505061092760015f805160206117a783398151915255565b5050565b610933610e26565b6005805460ff19168215159081179091556040519081527f0e2fb031ee032dc02d8011dc50b816eb450cf856abd8261680dac74f72165bd29060200160405180910390a150565b5f8061098583610a6d565b6040516320b9641960e11b8152600481018290529091507f00000000000000000000000000000000000000000000000000000000000000006001600160a01b031690634172c83290602401602060405180830381865afa1580156109eb573d5f803e3d5ffd5b505050506040513d601f19601f82011682018060405250810190610a0f91906116b0565b9392505050565b610a1e610e26565b610a275f610e52565b565b60015433906001600160a01b03168114610a615760405163118cdaa760e01b81526001600160a01b03821660048201526024016105c8565b610a6a81610e52565b50565b5f81610a7c60c8612710611736565b610a87906064611749565b610a919190611760565b92915050565b610a9f610e0b565b5f8181526003602052604090206001600582015460ff166004811115610ac757610ac76114fe565b14610ae857604051630992a63560e11b8152600481018390526024016105c8565b6004818101546040516365159e2960e11b8152918201527f00000000000000000000000000000000000000000000000000000000000000006001600160a01b03169063ca2b3c52906024015f604051808303815f87803b158015610b4a575f80fd5b505af1158015610b5c573d5f803e3d5ffd5b5050506005820180546004925060ff19166001830217905550600181015460068201819055815460405163cf8d133f60e01b81526001600160a01b03918216600482015260248101929092527f0000000000000000000000000000000000000000000000000000000000000000169063cf8d133f906044015f604051808303815f87803b158015610beb575f80fd5b505af1158015610bfd573d5f803e3d5ffd5b5050825460018401546040519081526001600160a01b0390911692508491507ff22517a5eae9f54be712c3150eca5ba925d233687b223c2ebf89272f12ee08659060200160405180910390a350610a6a60015f805160206117a783398151915255565b5f80610c6b83610a6d565b9050612710610c7a8286611749565b610c849190611760565b949350505050565b5f610c95610e0b565b60405163e978511760e01b815260048101869052306024820152604481018590525f907f00000000000000000000000000000000000000000000000000000000000000006001600160a01b03169063e9785117906064016020604051808303815f875af1158015610d08573d5f803e3d5ffd5b505050506040513d601f19601f82011682018060405250810190610d2c9190611773565b9050610d3a81868686610e6b565b915050610c8460015f805160206117a783398151915255565b5f610d5c610e0b565b610d6833858585610e6b565b9050610a0f60015f805160206117a783398151915255565b5f6064612710610d91600185611736565b610a879190611749565b610da3610e26565b600180546001600160a01b0383166001600160a01b03199091168117909155610dd35f546001600160a01b031690565b6001600160a01b03167f38d16b8cac22d99fc7c124b9cd0de2d3fa1faef420bfe791d8c362d765e2270060405160405180910390a350565b610e13611369565b60025f805160206117a783398151915255565b5f546001600160a01b03163314610a275760405163118cdaa760e01b81523360048201526024016105c8565b600180546001600160a01b0319169055610a6a81611398565b6005545f9060ff1615610e915760405163379a7ed960e01b815260040160405180910390fd5b835f03610eb157604051631f2a200560e01b815260040160405180910390fd5b6002831080610ec05750606483115b15610ee157604051635193c0eb60e01b8152600481018490526024016105c8565b5f610eeb8461097a565b905080851115610f1857604051631a768ccb60e21b815260048101869052602481018290526044016105c8565b6040516399a5d74760e01b8152600481018690525f907f00000000000000000000000000000000000000000000000000000000000000006001600160a01b0316906399a5d74790602401602060405180830381865afa158015610f7d573d5f803e3d5ffd5b505050506040513d601f19601f82011682018060405250810190610fa191906116b0565b90505f610fae8288611736565b600280549192505f610fbf8361178e565b9190505593505f7f00000000000000000000000000000000000000000000000000000000000000006001600160a01b0316637b2141cb8a88886040518463ffffffff1660e01b815260040161101693929190611715565b6020604051808303815f875af1158015611032573d5f803e3d5ffd5b505050506040513d601f19601f8201168201806040525081019061105691906116b0565b90506040518061010001604052808a6001600160a01b031681526020018381526020018481526020018881526020018281526020016001600481111561109e5761109e6114fe565b81526020015f81526020015f81525060035f8781526020019081526020015f205f820151815f015f6101000a8154816001600160a01b0302191690836001600160a01b031602179055506020820151816001015560408201518160020155606082015181600301556080820151816004015560a0820151816005015f6101000a81548160ff02191690836004811115611139576111396114fe565b021790555060c0820151600682015560e0909101516007909101555f8181526004602052604090208590556111b96001600160a01b037f0000000000000000000000000000000000000000000000000000000000000000168a7f0000000000000000000000000000000000000000000000000000000000000000856113e7565b8215611292576112146001600160a01b037f0000000000000000000000000000000000000000000000000000000000000000168a7f0000000000000000000000000000000000000000000000000000000000000000866113e7565b6040516326885e3360e21b81526001600160a01b037f00000000000000000000000000000000000000000000000000000000000000001690639a2178cc90611264908c908c908890600401611715565b5f604051808303815f87803b15801561127b575f80fd5b505af115801561128d573d5f803e3d5ffd5b505050505b6040516376950c4960e11b81526001600160a01b038a81166004830152602482018490527f0000000000000000000000000000000000000000000000000000000000000000169063ed2a1892906044015f604051808303815f87803b1580156112f9575f80fd5b505af115801561130b573d5f803e3d5ffd5b505060408051858152602081018b90529081018490526001600160a01b038c1692508791507fab2115bac1de808eb7fe2be0309085b11f1f42b1eb980de8352efefdbfc098e29060600160405180910390a350505050949350505050565b5f805160206117a783398151915254600203610a2757604051633ee5aeb560e01b815260040160405180910390fd5b5f80546001600160a01b038381166001600160a01b0319831681178455604051919092169283917f8be0079c531659141344cd1fd0a4f28419497f9722a3daafe3b4186f6b6457e09190a35050565b6113f5848484846001611423565b61141d57604051635274afe760e01b81526001600160a01b03851660048201526024016105c8565b50505050565b6040516323b872dd60e01b5f8181526001600160a01b038781166004528616602452604485905291602083606481808c5af1925060015f5114831661147f578383151615611473573d5f823e3d81fd5b5f883b113d1516831692505b604052505f60605295945050505050565b6040518061010001604052805f6001600160a01b031681526020015f81526020015f81526020015f81526020015f81526020015f60048111156114d5576114d56114fe565b81526020015f81526020015f81525090565b5f602082840312156114f7575f80fd5b5035919050565b634e487b7160e01b5f52602160045260245ffd5b6005811061152e57634e487b7160e01b5f52602160045260245ffd5b9052565b81516001600160a01b031681526020808301519082015260408083015190820152606080830151908201526080808301519082015260a08281015161010083019161157f90840182611512565b5060c083015160c083015260e083015160e083015292915050565b5f80604083850312156115ab575f80fd5b50508035926020909101359150565b5f602082840312156115ca575f80fd5b81358015158114610a0f575f80fd5b6001600160a01b038916815260208101889052604081018790526060810186905260808101859052610100810161161360a0830186611512565b60c082019390935260e001529695505050505050565b5f805f806080858703121561163c575f80fd5b5050823594602084013594506040840135936060013592509050565b5f805f6060848603121561166a575f80fd5b505081359360208301359350604090920135919050565b6001600160a01b0381168114610a6a575f80fd5b5f602082840312156116a5575f80fd5b8135610a0f81611681565b5f602082840312156116c0575f80fd5b5051919050565b634e487b7160e01b5f52601260045260245ffd5b5f826116e9576116e96116c7565b500690565b634e487b7160e01b5f52601160045260245ffd5b80820180821115610a9157610a916116ee565b6001600160a01b039390931683526020830191909152604082015260600190565b81810381811115610a9157610a916116ee565b8082028115828204841417610a9157610a916116ee565b5f8261176e5761176e6116c7565b500490565b5f60208284031215611783575f80fd5b8151610a0f81611681565b5f6001820161179f5761179f6116ee565b506001019056fe9b779b17422d0df92223018b32b4d1fa46e071723d6817e2486d003becc55f00a26469706673582212209451eb65f769f2819e71911ba5b589549327d14c08026e0d038e40f61836c4c264736f6c63430008180033","linkReferences":{}},"methodIdentifiers":{"BPS()":"249d39e9","HOUSE_EDGE_BPS()":"b32ff2be","MAX_CHOICE()":"858e2376","MIN_CHOICE()":"e456b68b","acceptOwnership()":"79ba5097","bets(uint256)":"22af00fa","calculatePayout(uint256,uint256)":"9dce5ff0","claimTimeout(uint256)":"86e773f1","commitToBet(uint256)":"92f6983d","feeCollector()":"c415b95c","getBet(uint256)":"061e494f","getMaxBet(uint256)":"295d8635","getMultiplierBps(uint256)":"861a34bd","getWinProbabilityBps(uint256)":"c27779b7","leaderboard()":"eb56b740","nextBetId()":"9aca2792","owner()":"8da5cb5b","paused()":"5c975abb","pendingOwner()":"e30c3978","placeBet(uint256,uint256,bytes32)":"b08a0570","placeBetWithSession(uint256,uint256,uint256,bytes32)":"a5a23205","randomness()":"36013189","renounceOwnership()":"715018a6","resolveBet(uint256,bytes32)":"1424ed3e","sessionManager()":"b7b13f79","setPaused(bool)":"16c38b3c","token()":"fc0c546a","transferOwnership(address)":"f2fde38b","vault()":"fbfa77cf"},"id":47}