{"abi":[{"type":"constructor","inputs":[{"name":"_token","type":"address","internalType":"contract IERC20"},{"name":"_vault","type":"address","internalType":"contract HouseVault"},{"name":"_sessionManager","type":"address","internalType":"contract SessionManager"},{"name":"_feeCollector","type":"address","internalType":"contract FeeCollector"},{"name":"_leaderboard","type":"address","internalType":"contract Leaderboard"},{"name":"_operator","type":"address","internalType":"address"},{"name":"_bettingDuration","type":"uint256","internalType":"uint256"}],"stateMutability":"nonpayable"},{"type":"function","name":"BPS","inputs":[],"outputs":[{"name":"","type":"uint256","internalType":"uint256"}],"stateMutability":"view"},{"type":"function","name":"HOUSE_EDGE_DENOMINATOR","inputs":[],"outputs":[{"name":"","type":"uint256","internalType":"uint256"}],"stateMutability":"view"},{"type":"function","name":"HOUSE_EDGE_NUMERATOR","inputs":[],"outputs":[{"name":"","type":"uint256","internalType":"uint256"}],"stateMutability":"view"},{"type":"function","name":"MAX_PLAYERS_PER_ROUND","inputs":[],"outputs":[{"name":"","type":"uint256","internalType":"uint256"}],"stateMutability":"view"},{"type":"function","name":"MIN_CRASH_BPS","inputs":[],"outputs":[{"name":"","type":"uint256","internalType":"uint256"}],"stateMutability":"view"},{"type":"function","name":"acceptOwnership","inputs":[],"outputs":[],"stateMutability":"nonpayable"},{"type":"function","name":"beginRound","inputs":[{"name":"roundId","type":"uint256","internalType":"uint256"}],"outputs":[],"stateMutability":"nonpayable"},{"type":"function","name":"bettingDuration","inputs":[],"outputs":[{"name":"","type":"uint256","internalType":"uint256"}],"stateMutability":"view"},{"type":"function","name":"cancelRound","inputs":[{"name":"roundId","type":"uint256","internalType":"uint256"}],"outputs":[],"stateMutability":"nonpayable"},{"type":"function","name":"cashOut","inputs":[{"name":"roundId","type":"uint256","internalType":"uint256"},{"name":"multiplierBps","type":"uint256","internalType":"uint256"}],"outputs":[],"stateMutability":"nonpayable"},{"type":"function","name":"crashRound","inputs":[{"name":"roundId","type":"uint256","internalType":"uint256"},{"name":"serverSeed","type":"bytes32","internalType":"bytes32"}],"outputs":[],"stateMutability":"nonpayable"},{"type":"function","name":"currentRoundId","inputs":[],"outputs":[{"name":"","type":"uint256","internalType":"uint256"}],"stateMutability":"view"},{"type":"function","name":"feeCollector","inputs":[],"outputs":[{"name":"","type":"address","internalType":"contract FeeCollector"}],"stateMutability":"view"},{"type":"function","name":"getPlayerBet","inputs":[{"name":"roundId","type":"uint256","internalType":"uint256"},{"name":"player","type":"address","internalType":"address"}],"outputs":[{"name":"","type":"tuple","internalType":"struct CrashGame.PlayerBet","components":[{"name":"player","type":"address","internalType":"address"},{"name":"amount","type":"uint256","internalType":"uint256"},{"name":"feeAmount","type":"uint256","internalType":"uint256"},{"name":"cashOutMultiplierBps","type":"uint256","internalType":"uint256"},{"name":"cashedOut","type":"bool","internalType":"bool"},{"name":"payout","type":"uint256","internalType":"uint256"}]}],"stateMutability":"view"},{"type":"function","name":"getRound","inputs":[{"name":"roundId","type":"uint256","internalType":"uint256"}],"outputs":[{"name":"","type":"tuple","internalType":"struct CrashGame.Round","components":[{"name":"roundId","type":"uint256","internalType":"uint256"},{"name":"status","type":"uint8","internalType":"enum CrashGame.RoundStatus"},{"name":"serverCommitHash","type":"bytes32","internalType":"bytes32"},{"name":"serverSeed","type":"bytes32","internalType":"bytes32"},{"name":"crashPointBps","type":"uint256","internalType":"uint256"},{"name":"bettingEndTime","type":"uint256","internalType":"uint256"},{"name":"startTime","type":"uint256","internalType":"uint256"},{"name":"totalBets","type":"uint256","internalType":"uint256"},{"name":"totalPayouts","type":"uint256","internalType":"uint256"},{"name":"playerCount","type":"uint256","internalType":"uint256"}]}],"stateMutability":"view"},{"type":"function","name":"getRoundPlayers","inputs":[{"name":"roundId","type":"uint256","internalType":"uint256"}],"outputs":[{"name":"","type":"tuple[]","internalType":"struct CrashGame.PlayerBet[]","components":[{"name":"player","type":"address","internalType":"address"},{"name":"amount","type":"uint256","internalType":"uint256"},{"name":"feeAmount","type":"uint256","internalType":"uint256"},{"name":"cashOutMultiplierBps","type":"uint256","internalType":"uint256"},{"name":"cashedOut","type":"bool","internalType":"bool"},{"name":"payout","type":"uint256","internalType":"uint256"}]}],"stateMutability":"view"},{"type":"function","name":"leaderboard","inputs":[],"outputs":[{"name":"","type":"address","internalType":"contract Leaderboard"}],"stateMutability":"view"},{"type":"function","name":"operator","inputs":[],"outputs":[{"name":"","type":"address","internalType":"address"}],"stateMutability":"view"},{"type":"function","name":"owner","inputs":[],"outputs":[{"name":"","type":"address","internalType":"address"}],"stateMutability":"view"},{"type":"function","name":"paused","inputs":[],"outputs":[{"name":"","type":"bool","internalType":"bool"}],"stateMutability":"view"},{"type":"function","name":"pendingOwner","inputs":[],"outputs":[{"name":"","type":"address","internalType":"address"}],"stateMutability":"view"},{"type":"function","name":"placeBet","inputs":[{"name":"roundId","type":"uint256","internalType":"uint256"},{"name":"amount","type":"uint256","internalType":"uint256"}],"outputs":[],"stateMutability":"nonpayable"},{"type":"function","name":"placeBetWithSession","inputs":[{"name":"roundId","type":"uint256","internalType":"uint256"},{"name":"sessionId","type":"uint256","internalType":"uint256"},{"name":"amount","type":"uint256","internalType":"uint256"}],"outputs":[],"stateMutability":"nonpayable"},{"type":"function","name":"playerBetIndex","inputs":[{"name":"","type":"uint256","internalType":"uint256"},{"name":"","type":"address","internalType":"address"}],"outputs":[{"name":"","type":"uint256","internalType":"uint256"}],"stateMutability":"view"},{"type":"function","name":"renounceOwnership","inputs":[],"outputs":[],"stateMutability":"nonpayable"},{"type":"function","name":"roundBets","inputs":[{"name":"","type":"uint256","internalType":"uint256"},{"name":"","type":"uint256","internalType":"uint256"}],"outputs":[{"name":"player","type":"address","internalType":"address"},{"name":"amount","type":"uint256","internalType":"uint256"},{"name":"feeAmount","type":"uint256","internalType":"uint256"},{"name":"cashOutMultiplierBps","type":"uint256","internalType":"uint256"},{"name":"cashedOut","type":"bool","internalType":"bool"},{"name":"payout","type":"uint256","internalType":"uint256"}],"stateMutability":"view"},{"type":"function","name":"rounds","inputs":[{"name":"","type":"uint256","internalType":"uint256"}],"outputs":[{"name":"roundId","type":"uint256","internalType":"uint256"},{"name":"status","type":"uint8","internalType":"enum CrashGame.RoundStatus"},{"name":"serverCommitHash","type":"bytes32","internalType":"bytes32"},{"name":"serverSeed","type":"bytes32","internalType":"bytes32"},{"name":"crashPointBps","type":"uint256","internalType":"uint256"},{"name":"bettingEndTime","type":"uint256","internalType":"uint256"},{"name":"startTime","type":"uint256","internalType":"uint256"},{"name":"totalBets","type":"uint256","internalType":"uint256"},{"name":"totalPayouts","type":"uint256","internalType":"uint256"},{"name":"playerCount","type":"uint256","internalType":"uint256"}],"stateMutability":"view"},{"type":"function","name":"sessionManager","inputs":[],"outputs":[{"name":"","type":"address","internalType":"contract SessionManager"}],"stateMutability":"view"},{"type":"function","name":"setBettingDuration","inputs":[{"name":"_duration","type":"uint256","internalType":"uint256"}],"outputs":[],"stateMutability":"nonpayable"},{"type":"function","name":"setOperator","inputs":[{"name":"_operator","type":"address","internalType":"address"}],"outputs":[],"stateMutability":"nonpayable"},{"type":"function","name":"setPaused","inputs":[{"name":"_paused","type":"bool","internalType":"bool"}],"outputs":[],"stateMutability":"nonpayable"},{"type":"function","name":"startRound","inputs":[{"name":"serverCommitHash","type":"bytes32","internalType":"bytes32"}],"outputs":[{"name":"roundId","type":"uint256","internalType":"uint256"}],"stateMutability":"nonpayable"},{"type":"function","name":"token","inputs":[],"outputs":[{"name":"","type":"address","internalType":"contract IERC20"}],"stateMutability":"view"},{"type":"function","name":"transferOwnership","inputs":[{"name":"newOwner","type":"address","internalType":"address"}],"outputs":[],"stateMutability":"nonpayable"},{"type":"function","name":"vault","inputs":[],"outputs":[{"name":"","type":"address","internalType":"contract HouseVault"}],"stateMutability":"view"},{"type":"function","name":"verifyCrashPoint","inputs":[{"name":"serverSeed","type":"bytes32","internalType":"bytes32"},{"name":"roundId","type":"uint256","internalType":"uint256"}],"outputs":[{"name":"","type":"uint256","internalType":"uint256"}],"stateMutability":"pure"},{"type":"event","name":"BetPlaced","inputs":[{"name":"roundId","type":"uint256","indexed":true,"internalType":"uint256"},{"name":"player","type":"address","indexed":true,"internalType":"address"},{"name":"amount","type":"uint256","indexed":false,"internalType":"uint256"}],"anonymous":false},{"type":"event","name":"BettingDurationUpdated","inputs":[{"name":"oldDuration","type":"uint256","indexed":false,"internalType":"uint256"},{"name":"newDuration","type":"uint256","indexed":false,"internalType":"uint256"}],"anonymous":false},{"type":"event","name":"CashedOut","inputs":[{"name":"roundId","type":"uint256","indexed":true,"internalType":"uint256"},{"name":"player","type":"address","indexed":true,"internalType":"address"},{"name":"multiplierBps","type":"uint256","indexed":false,"internalType":"uint256"},{"name":"payout","type":"uint256","indexed":false,"internalType":"uint256"}],"anonymous":false},{"type":"event","name":"OperatorUpdated","inputs":[{"name":"oldOperator","type":"address","indexed":true,"internalType":"address"},{"name":"newOperator","type":"address","indexed":true,"internalType":"address"}],"anonymous":false},{"type":"event","name":"OwnershipTransferStarted","inputs":[{"name":"previousOwner","type":"address","indexed":true,"internalType":"address"},{"name":"newOwner","type":"address","indexed":true,"internalType":"address"}],"anonymous":false},{"type":"event","name":"OwnershipTransferred","inputs":[{"name":"previousOwner","type":"address","indexed":true,"internalType":"address"},{"name":"newOwner","type":"address","indexed":true,"internalType":"address"}],"anonymous":false},{"type":"event","name":"Paused","inputs":[{"name":"isPaused","type":"bool","indexed":false,"internalType":"bool"}],"anonymous":false},{"type":"event","name":"RoundCancelled","inputs":[{"name":"roundId","type":"uint256","indexed":true,"internalType":"uint256"}],"anonymous":false},{"type":"event","name":"RoundCrashed","inputs":[{"name":"roundId","type":"uint256","indexed":true,"internalType":"uint256"},{"name":"crashPointBps","type":"uint256","indexed":false,"internalType":"uint256"},{"name":"serverSeed","type":"bytes32","indexed":false,"internalType":"bytes32"}],"anonymous":false},{"type":"event","name":"RoundStarted","inputs":[{"name":"roundId","type":"uint256","indexed":true,"internalType":"uint256"},{"name":"serverCommitHash","type":"bytes32","indexed":false,"internalType":"bytes32"},{"name":"bettingEndTime","type":"uint256","indexed":false,"internalType":"uint256"}],"anonymous":false},{"type":"error","name":"AlreadyBet","inputs":[{"name":"roundId","type":"uint256","internalType":"uint256"},{"name":"player","type":"address","internalType":"address"}]},{"type":"error","name":"AlreadyCashedOut","inputs":[{"name":"roundId","type":"uint256","internalType":"uint256"},{"name":"player","type":"address","internalType":"address"}]},{"type":"error","name":"BetTooLarge","inputs":[{"name":"amount","type":"uint256","internalType":"uint256"},{"name":"max","type":"uint256","internalType":"uint256"}]},{"type":"error","name":"BettingWindowClosed","inputs":[{"name":"roundId","type":"uint256","internalType":"uint256"}]},{"type":"error","name":"BettingWindowNotClosed","inputs":[{"name":"roundId","type":"uint256","internalType":"uint256"}]},{"type":"error","name":"GamePaused","inputs":[]},{"type":"error","name":"InvalidCashOutMultiplier","inputs":[]},{"type":"error","name":"InvalidServerSeed","inputs":[{"name":"roundId","type":"uint256","internalType":"uint256"}]},{"type":"error","name":"NoBetFound","inputs":[{"name":"roundId","type":"uint256","internalType":"uint256"},{"name":"player","type":"address","internalType":"address"}]},{"type":"error","name":"NotOperator","inputs":[]},{"type":"error","name":"OwnableInvalidOwner","inputs":[{"name":"owner","type":"address","internalType":"address"}]},{"type":"error","name":"OwnableUnauthorizedAccount","inputs":[{"name":"account","type":"address","internalType":"address"}]},{"type":"error","name":"ReentrancyGuardReentrantCall","inputs":[]},{"type":"error","name":"RoundNotInStatus","inputs":[{"name":"roundId","type":"uint256","internalType":"uint256"},{"name":"expected","type":"uint8","internalType":"enum CrashGame.RoundStatus"},{"name":"actual","type":"uint8","internalType":"enum CrashGame.RoundStatus"}]},{"type":"error","name":"SafeERC20FailedOperation","inputs":[{"name":"token","type":"address","internalType":"address"}]},{"type":"error","name":"TooManyPlayers","inputs":[{"name":"roundId","type":"uint256","internalType":"uint256"}]},{"type":"error","name":"ZeroAddress","inputs":[]},{"type":"error","name":"ZeroAmount","inputs":[]}],"bytecode":{"object":"0x61012060405234801562000011575f80fd5b50604051620023e8380380620023e8833981016040819052620000349162000151565b33806200005a57604051631e4fbdf760e01b81525f600482015260240160405180910390fd5b6200006581620000cf565b5060017f9b779b17422d0df92223018b32b4d1fa46e071723d6817e2486d003becc55f00556001600160a01b0396871660805294861660a05292851660c05290841660e052831661010052600280546001600160a01b0319169190931617909155600355620001eb565b600180546001600160a01b0319169055620000ea81620000ed565b50565b5f80546001600160a01b038381166001600160a01b0319831681178455604051919092169283917f8be0079c531659141344cd1fd0a4f28419497f9722a3daafe3b4186f6b6457e09190a35050565b6001600160a01b0381168114620000ea575f80fd5b5f805f805f805f60e0888a03121562000168575f80fd5b875162000175816200013c565b602089015190975062000188816200013c565b60408901519096506200019b816200013c565b6060890151909550620001ae816200013c565b6080890151909450620001c1816200013c565b60a0890151909350620001d4816200013c565b8092505060c0880151905092959891949750929550565b60805160a05160c05160e05161010051612164620002845f395f818161055001528181610aec0152610b8b01525f81816104dc0152818161182401528181611a780152611aca01525f81816104b501526112f601525f81816105b401528181610a600152818161109401528181611761015281816119e80152611b4801525f81816105db01528181611a0a0152611a5501526121645ff3fe608060405234801561000f575f80fd5b5060043610610213575f3560e01c806392fd803d1161011f578063d83a4595116100a9578063f0e609a111610079578063f0e609a114610572578063f2fde38b1461059c578063fbfa77cf146105af578063fc0c546a146105d6578063fd16a2e7146105fd575f80fd5b8063d83a459514610507578063dd99717d1461051a578063e30c39781461053a578063eb56b7401461054b575f80fd5b8063b7b13f79116100ef578063b7b13f79146104b0578063c321949b1461022c578063c415b95c146104d7578063cd7636c4146104fe578063d0db0ade14610280575f80fd5b806392fd803d1461047957806399bc69641461048c5780639cbe5efd14610494578063b3ab15fb1461049d575f80fd5b80635c975abb116101a05780637e07ab09116101705780637e07ab091461032757806381b792671461033a5780638c65c81f146103d05780638da5cb5b146104495780638f1327c014610459575f80fd5b80635c975abb146102da578063715018a6146102f7578063776e11dd146102ff57806379ba50971461031f575f80fd5b8063219a35a4116101e6578063219a35a41461026d578063249d39e91461028057806337404885146102895780634afe62b51461029c578063570ca735146102af575f80fd5b80630cd45fe31461021757806314b1e0e41461022c57806316c38b3c14610247578063218ead0e1461025a575b5f80fd5b61022a610225366004611d68565b610610565b005b610234606481565b6040519081526020015b60405180910390f35b61022a610255366004611d7f565b6106da565b61022a610268366004611da5565b610729565b61022a61027b366004611da5565b6108b4565b61023461271081565b610234610297366004611d68565b610c41565b61022a6102aa366004611da5565b610de2565b6002546102c2906001600160a01b031681565b6040516001600160a01b03909116815260200161023e565b6008546102e79060ff1681565b604051901515815260200161023e565b61022a610e0b565b61031261030d366004611d68565b610e1e565b60405161023e9190611e07565b61022a610f2c565b61022a610335366004611d68565b610f70565b610397610348366004611da5565b600660209081525f92835260408084209091529082529020805460018201546002830154600384015460048501546005909501546001600160a01b039094169492939192909160ff9091169086565b604080516001600160a01b03909716875260208701959095529385019290925260608401521515608083015260a082015260c00161023e565b6104336103de366004611d68565b600560208190525f91825260409091208054600182015460028301546003840154600485015495850154600686015460078701546008880154600990980154969860ff9096169794969395949293919290918a565b60405161023e9a99989796959493929190611e88565b5f546001600160a01b03166102c2565b61046c610467366004611d68565b611138565b60405161023e9190611edd565b610234610487366004611da5565b611235565b610234606281565b61023460045481565b61022a6104ab366004611f68565b611249565b6102c27f000000000000000000000000000000000000000000000000000000000000000081565b6102c27f000000000000000000000000000000000000000000000000000000000000000081565b61023460035481565b61022a610515366004611f83565b6112c9565b61052d610528366004611fac565b611391565b60405161023e9190611fda565b6001546001600160a01b03166102c2565b6102c27f000000000000000000000000000000000000000000000000000000000000000081565b610234610580366004611fac565b600760209081525f928352604080842090915290825290205481565b61022a6105aa366004611f68565b611470565b6102c27f000000000000000000000000000000000000000000000000000000000000000081565b6102c27f000000000000000000000000000000000000000000000000000000000000000081565b61022a61060b366004611d68565b6114e0565b6002546001600160a01b0316331461063b57604051631f0853c160e21b815260040160405180910390fd5b5f81815260056020526040902060018082015460ff16600481111561066257610662611e54565b146106995760018181015460405163aab35d7360e01b8152610690928592909160ff90911690600401611fe8565b60405180910390fd5b80600501544210156106c15760405163307e5c3960e21b815260048101839052602401610690565b60018101805460ff191660021790554260069091015550565b6106e261152d565b6008805460ff19168215159081179091556040519081527f0e2fb031ee032dc02d8011dc50b816eb450cf856abd8261680dac74f72165bd29060200160405180910390a150565b610731611559565b5f8281526005602052604090206002600182015460ff16600481111561075957610759611e54565b1461078557600181015460405163aab35d7360e01b815261069091859160029160ff1690600401611fe8565b6127108210156107a857604051636fd5f14d60e01b815260040160405180910390fd5b5f838152600760209081526040808320338452909152812054908190036107eb5760405163625e022160e01b815260048101859052336024820152604401610690565b5f84815260066020526040812081610804600185612025565b815260208101919091526040015f20600481015490915060ff161561084557604051635d6292b560e11b815260048101869052336024820152604401610690565b60048101805460ff1916600117905560038101849055604080518581525f6020820152339187917fd2856efdbe6f44f49bc7dc20ff9901add2c8050f0facc8ff9db5c2cb2262c93c910160405180910390a35050506108b060015f8051602061210f83398151915255565b5050565b6108bc611559565b6002546001600160a01b031633146108e757604051631f0853c160e21b815260040160405180910390fd5b5f8281526005602052604090206002600182015460ff16600481111561090f5761090f611e54565b1461093b57600181015460405163aab35d7360e01b815261069091859160029160ff1690600401611fe8565b600281015460408051602081018590520160405160208183030381529060405280519060200120146109835760405163511b7dcf60e11b815260048101849052602401610690565b5f61098e8385611574565b60038381018590556004840182905560018401805460ff1916909117905560098301549091505f5b81811015610bec575f8681526006602090815260408083208484529091529020600481015460ff1680156109ee575083816003015411155b15610b4d575f61271082600301548360010154610a0b9190612038565b610a159190612063565b905080826005018190555080866008015f828254610a339190612076565b9091555050815460405163cf8d133f60e01b81526001600160a01b039182166004820152602481018390527f00000000000000000000000000000000000000000000000000000000000000009091169063cf8d133f906044015f604051808303815f87803b158015610aa3575f80fd5b505af1158015610ab5573d5f803e3d5ffd5b5050835460018501546040516376703c2d60e11b81526001600160a01b0392831660048201526024810191909152604481018590527f0000000000000000000000000000000000000000000000000000000000000000909116925063ece0785a91506064015f604051808303815f87803b158015610b31575f80fd5b505af1158015610b43573d5f803e3d5ffd5b5050505050610be3565b5f60058201819055815460018301546040516376703c2d60e11b81526001600160a01b039283166004820152602481019190915260448101929092527f0000000000000000000000000000000000000000000000000000000000000000169063ece0785a906064015f604051808303815f87803b158015610bcc575f80fd5b505af1158015610bde573d5f803e3d5ffd5b505050505b506001016109b6565b50604080518381526020810186905286917fe8ac91133d0b8812077672d3b8946dcb6da3dd5aaf94f3153e511738cfd96f3a910160405180910390a25050506108b060015f8051602061210f83398151915255565b6002545f906001600160a01b03163314610c6e57604051631f0853c160e21b815260040160405180910390fd5b60085460ff1615610c925760405163379a7ed960e01b815260040160405180910390fd5b60045f8154610ca090612089565b918290555060408051610140810190915281815290915060208101600181526020018381526020015f801b81526020015f815260200160035442610ce49190612076565b81525f6020808301829052604080840183905260608401839052608090930182905284825260058152919020825181559082015160018083018054909160ff1990911690836004811115610d3a57610d3a611e54565b021790555060408201518160020155606082015181600301556080820151816004015560a0820151816005015560c0820151816006015560e0820151816007015561010082015181600801556101208201518160090155905050807f4011864dacdca122d3079c2892c7266e327a3cc5e98fae433169dd339aaedd808360035442610dc59190612076565b6040805192835260208301919091520160405180910390a2919050565b610dea611559565b610df5823383611624565b6108b060015f8051602061210f83398151915255565b610e1361152d565b610e1c5f611bed565b565b5f81815260056020526040812060098101546060928167ffffffffffffffff811115610e4c57610e4c6120a1565b604051908082528060200260200182016040528015610e8557816020015b610e72611d2d565b815260200190600190039081610e6a5790505b5090505f5b82811015610f23575f868152600660209081526040808320848452825291829020825160c08101845281546001600160a01b0316815260018201549281019290925260028101549282019290925260038201546060820152600482015460ff161515608082015260059091015460a08201528251839083908110610f1057610f106120b5565b6020908102919091010152600101610e8a565b50949350505050565b60015433906001600160a01b03168114610f645760405163118cdaa760e01b81526001600160a01b0382166004820152602401610690565b610f6d81611bed565b50565b610f78611559565b6002546001600160a01b03163314610fa357604051631f0853c160e21b815260040160405180910390fd5b5f81815260056020526040902060018082015460ff166004811115610fca57610fca611e54565b14158015610ff157506002600182015460ff166004811115610fee57610fee611e54565b14155b1561101f5760018181015460405163aab35d7360e01b8152610690928592909160ff90911690600401611fe8565b60018101805460ff1916600417905560098101545f5b818110156110f5575f84815260066020908152604080832084845290915290206001810154156110ec57600181015460058201819055815460405163cf8d133f60e01b81526001600160a01b03918216600482015260248101929092527f0000000000000000000000000000000000000000000000000000000000000000169063cf8d133f906044015f604051808303815f87803b1580156110d5575f80fd5b505af11580156110e7573d5f803e3d5ffd5b505050505b50600101611035565b5060405183907fbf7aeff89cf7a4c3d0145879e39aa6a19e8e64ed585090ef86bf31f4d2ae57bf905f90a25050610f6d60015f8051602061210f83398151915255565b61118c6040805161014081019091525f808252602082019081526020015f80191681526020015f80191681526020015f81526020015f81526020015f81526020015f81526020015f81526020015f81525090565b5f8281526005602090815260409182902082516101408101909352805483526001810154909183019060ff1660048111156111c9576111c9611e54565b60048111156111da576111da611e54565b815260028201546020820152600382015460408201526004820154606082015260058201546080820152600682015460a0820152600782015460c0820152600882015460e08201526009909101546101009091015292915050565b5f6112408383611574565b90505b92915050565b61125161152d565b6001600160a01b0381166112785760405163d92e233d60e01b815260040160405180910390fd5b600280546001600160a01b038381166001600160a01b0319831681179093556040519116919082907ffbe5b6cbafb274f445d7fed869dc77a838d8243a22c460de156560e8857cad03905f90a35050565b6112d1611559565b60405163e978511760e01b815260048101839052306024820152604481018290525f907f00000000000000000000000000000000000000000000000000000000000000006001600160a01b03169063e9785117906064016020604051808303815f875af1158015611344573d5f803e3d5ffd5b505050506040513d601f19601f8201168201806040525081019061136891906120c9565b9050611375848284611624565b5061138c60015f8051602061210f83398151915255565b505050565b611399611d2d565b5f8381526007602090815260408083206001600160a01b0386168452909152812054908190036113ee5760405163625e022160e01b8152600481018590526001600160a01b0384166024820152604401610690565b5f84815260066020526040812090611407600184612025565b815260208082019290925260409081015f20815160c08101835281546001600160a01b0316815260018201549381019390935260028101549183019190915260038101546060830152600481015460ff16151560808301526005015460a0820152949350505050565b61147861152d565b600180546001600160a01b0383166001600160a01b031990911681179091556114a85f546001600160a01b031690565b6001600160a01b03167f38d16b8cac22d99fc7c124b9cd0de2d3fa1faef420bfe791d8c362d765e2270060405160405180910390a350565b6114e861152d565b600380549082905560408051828152602081018490527fb7acbe8a2a2dbf816c655f7d20c2e77f6c9c2b3e01719f45ad51abc254bdc111910160405180910390a15050565b5f546001600160a01b03163314610e1c5760405163118cdaa760e01b8152336004820152602401610690565b611561611c06565b60025f8051602061210f83398151915255565b5f808383604051602001611592929190918252602082015260400190565b60408051601f1981840301815291905280516020909101209050805f6115bf6610000000000000836120e4565b6115ca906001612076565b90505f6115df82670640000000000000612063565b90505f60646115ef606284612038565b6115f99190612063565b90505f611607826064612038565b905061271081101561161857506127105b98975050505050505050565b60085460ff16156116485760405163379a7ed960e01b815260040160405180910390fd5b805f0361166857604051631f2a200560e01b815260040160405180910390fd5b5f83815260056020526040902060018082015460ff16600481111561168f5761168f611e54565b146116bd5760018181015460405163aab35d7360e01b8152610690928792909160ff90911690600401611fe8565b806005015442106116e45760405163072c7ca160e41b815260048101859052602401610690565b5f8481526007602090815260408083206001600160a01b03871684529091529020541561173657604051630682897360e51b8152600481018590526001600160a01b0384166024820152604401610690565b606481600901541061175e57604051634dd806e960e01b815260048101859052602401610690565b5f7f00000000000000000000000000000000000000000000000000000000000000006001600160a01b0316632e5b21686040518163ffffffff1660e01b8152600401602060405180830381865afa1580156117bb573d5f803e3d5ffd5b505050506040513d601f19601f820116820180604052508101906117df91906120f7565b90508083111561180c57604051631a768ccb60e21b81526004810184905260248101829052604401610690565b6040516399a5d74760e01b8152600481018490525f907f00000000000000000000000000000000000000000000000000000000000000006001600160a01b0316906399a5d74790602401602060405180830381865afa158015611871573d5f803e3d5ffd5b505050506040513d601f19601f8201168201806040525081019061189591906120f7565b90505f6118a28286612025565b60098501805491925081905f6118b783612089565b919050555081856007015f8282546118cf9190612076565b909155506118e09050816001612076565b60075f8a81526020019081526020015f205f896001600160a01b03166001600160a01b031681526020019081526020015f20819055506040518060c00160405280886001600160a01b031681526020018381526020018481526020015f81526020015f151581526020015f81525060065f8a81526020019081526020015f205f8381526020019081526020015f205f820151815f015f6101000a8154816001600160a01b0302191690836001600160a01b031602179055506020820151816001015560408201518160020155606082015181600301556080820151816004015f6101000a81548160ff02191690831515021790555060a08201518160050155905050611a42877f0000000000000000000000000000000000000000000000000000000000000000847f00000000000000000000000000000000000000000000000000000000000000006001600160a01b0316611c35909392919063ffffffff16565b8215611b2257611a9d6001600160a01b037f000000000000000000000000000000000000000000000000000000000000000016887f000000000000000000000000000000000000000000000000000000000000000086611c35565b6040516326885e3360e21b81526001600160a01b03888116600483015260248201889052604482018590527f00000000000000000000000000000000000000000000000000000000000000001690639a2178cc906064015f604051808303815f87803b158015611b0b575f80fd5b505af1158015611b1d573d5f803e3d5ffd5b505050505b6040516376950c4960e11b81526001600160a01b038881166004830152602482018490527f0000000000000000000000000000000000000000000000000000000000000000169063ed2a1892906044015f604051808303815f87803b158015611b89575f80fd5b505af1158015611b9b573d5f803e3d5ffd5b50505050866001600160a01b0316887f87b9df6fa7123c2e6044c3a3a37b4b0662c188d7a58ef86ee55067c46e4613ad84604051611bdb91815260200190565b60405180910390a35050505050505050565b600180546001600160a01b0319169055610f6d81611c71565b5f8051602061210f83398151915254600203610e1c57604051633ee5aeb560e01b815260040160405180910390fd5b611c43848484846001611cc0565b611c6b57604051635274afe760e01b81526001600160a01b0385166004820152602401610690565b50505050565b5f80546001600160a01b038381166001600160a01b0319831681178455604051919092169283917f8be0079c531659141344cd1fd0a4f28419497f9722a3daafe3b4186f6b6457e09190a35050565b6040516323b872dd60e01b5f8181526001600160a01b038781166004528616602452604485905291602083606481808c5af1925060015f51148316611d1c578383151615611d10573d5f823e3d81fd5b5f883b113d1516831692505b604052505f60605295945050505050565b6040518060c001604052805f6001600160a01b031681526020015f81526020015f81526020015f81526020015f151581526020015f81525090565b5f60208284031215611d78575f80fd5b5035919050565b5f60208284031215611d8f575f80fd5b81358015158114611d9e575f80fd5b9392505050565b5f8060408385031215611db6575f80fd5b50508035926020909101359150565b80516001600160a01b0316825260208082015190830152604080820151908301526060808201519083015260808082015115159083015260a090810151910152565b602080825282518282018190525f9190848201906040850190845b81811015611e4857611e35838551611dc5565b9284019260c09290920191600101611e22565b50909695505050505050565b634e487b7160e01b5f52602160045260245ffd5b60058110611e8457634e487b7160e01b5f52602160045260245ffd5b9052565b8a81526101408101611e9d602083018c611e68565b60408201999099526060810197909752608087019590955260a086019390935260c085019190915260e08401526101008301526101209091015292915050565b81518152602080830151610140830191611ef990840182611e68565b5060408301516040830152606083015160608301526080830151608083015260a083015160a083015260c083015160c083015260e083015160e083015261010080840151818401525061012080840151818401525092915050565b6001600160a01b0381168114610f6d575f80fd5b5f60208284031215611f78575f80fd5b8135611d9e81611f54565b5f805f60608486031215611f95575f80fd5b505081359360208301359350604090920135919050565b5f8060408385031215611fbd575f80fd5b823591506020830135611fcf81611f54565b809150509250929050565b60c081016112438284611dc5565b83815260608101611ffc6020830185611e68565b6120096040830184611e68565b949350505050565b634e487b7160e01b5f52601160045260245ffd5b8181038181111561124357611243612011565b808202811582820484141761124357611243612011565b634e487b7160e01b5f52601260045260245ffd5b5f826120715761207161204f565b500490565b8082018082111561124357611243612011565b5f6001820161209a5761209a612011565b5060010190565b634e487b7160e01b5f52604160045260245ffd5b634e487b7160e01b5f52603260045260245ffd5b5f602082840312156120d9575f80fd5b8151611d9e81611f54565b5f826120f2576120f261204f565b500690565b5f60208284031215612107575f80fd5b505191905056fe9b779b17422d0df92223018b32b4d1fa46e071723d6817e2486d003becc55f00a2646970667358221220c3869ad410198e003b24277bba0e2a38018c8d8f96d5796a34d4926eb83de44964736f6c63430008180033","linkReferences":{}},"methodIdentifiers":{"BPS()":"249d39e9","HOUSE_EDGE_DENOMINATOR()":"c321949b","HOUSE_EDGE_NUMERATOR()":"99bc6964","MAX_PLAYERS_PER_ROUND()":"14b1e0e4","MIN_CRASH_BPS()":"d0db0ade","acceptOwnership()":"79ba5097","beginRound(uint256)":"0cd45fe3","bettingDuration()":"cd7636c4","cancelRound(uint256)":"7e07ab09","cashOut(uint256,uint256)":"218ead0e","crashRound(uint256,bytes32)":"219a35a4","currentRoundId()":"9cbe5efd","feeCollector()":"c415b95c","getPlayerBet(uint256,address)":"dd99717d","getRound(uint256)":"8f1327c0","getRoundPlayers(uint256)":"776e11dd","leaderboard()":"eb56b740","operator()":"570ca735","owner()":"8da5cb5b","paused()":"5c975abb","pendingOwner()":"e30c3978","placeBet(uint256,uint256)":"4afe62b5","placeBetWithSession(uint256,uint256,uint256)":"d83a4595","playerBetIndex(uint256,address)":"f0e609a1","renounceOwnership()":"715018a6","roundBets(uint256,uint256)":"81b79267","rounds(uint256)":"8c65c81f","sessionManager()":"b7b13f79","setBettingDuration(uint256)":"fd16a2e7","setOperator(address)":"b3ab15fb","setPaused(bool)":"16c38b3c","startRound(bytes32)":"37404885","token()":"fc0c546a","transferOwnership(address)":"f2fde38b","vault()":"fbfa77cf","verifyCrashPoint(bytes32,uint256)":"92fd803d"},"id":46}