{"abi":[{"type":"constructor","inputs":[{"name":"_token","type":"address","internalType":"contract IERC20"},{"name":"_vault","type":"address","internalType":"contract HouseVault"},{"name":"_sessionManager","type":"address","internalType":"contract SessionManager"},{"name":"_feeCollector","type":"address","internalType":"contract FeeCollector"},{"name":"_leaderboard","type":"address","internalType":"contract Leaderboard"},{"name":"_operator","type":"address","internalType":"address"},{"name":"_bettingDuration","type":"uint256","internalType":"uint256"}],"stateMutability":"nonpayable"},{"type":"function","name":"BPS","inputs":[],"outputs":[{"name":"","type":"uint256","internalType":"uint256"}],"stateMutability":"view"},{"type":"function","name":"HOUSE_EDGE_DENOMINATOR","inputs":[],"outputs":[{"name":"","type":"uint256","internalType":"uint256"}],"stateMutability":"view"},{"type":"function","name":"HOUSE_EDGE_NUMERATOR","inputs":[],"outputs":[{"name":"","type":"uint256","internalType":"uint256"}],"stateMutability":"view"},{"type":"function","name":"MAX_CASHOUT_MULTIPLIER_BPS","inputs":[],"outputs":[{"name":"","type":"uint256","internalType":"uint256"}],"stateMutability":"view"},{"type":"function","name":"MAX_PLAYERS_PER_ROUND","inputs":[],"outputs":[{"name":"","type":"uint256","internalType":"uint256"}],"stateMutability":"view"},{"type":"function","name":"MIN_CRASH_BPS","inputs":[],"outputs":[{"name":"","type":"uint256","internalType":"uint256"}],"stateMutability":"view"},{"type":"function","name":"ROUND_TIMEOUT","inputs":[],"outputs":[{"name":"","type":"uint256","internalType":"uint256"}],"stateMutability":"view"},{"type":"function","name":"acceptOwnership","inputs":[],"outputs":[],"stateMutability":"nonpayable"},{"type":"function","name":"beginRound","inputs":[{"name":"roundId","type":"uint256","internalType":"uint256"}],"outputs":[],"stateMutability":"nonpayable"},{"type":"function","name":"bettingDuration","inputs":[],"outputs":[{"name":"","type":"uint256","internalType":"uint256"}],"stateMutability":"view"},{"type":"function","name":"cancelRound","inputs":[{"name":"roundId","type":"uint256","internalType":"uint256"}],"outputs":[],"stateMutability":"nonpayable"},{"type":"function","name":"cashOut","inputs":[{"name":"roundId","type":"uint256","internalType":"uint256"},{"name":"multiplierBps","type":"uint256","internalType":"uint256"}],"outputs":[],"stateMutability":"nonpayable"},{"type":"function","name":"claimRoundTimeout","inputs":[{"name":"roundId","type":"uint256","internalType":"uint256"}],"outputs":[],"stateMutability":"nonpayable"},{"type":"function","name":"crashRound","inputs":[{"name":"roundId","type":"uint256","internalType":"uint256"},{"name":"serverSeed","type":"bytes32","internalType":"bytes32"}],"outputs":[],"stateMutability":"nonpayable"},{"type":"function","name":"currentRoundId","inputs":[],"outputs":[{"name":"","type":"uint256","internalType":"uint256"}],"stateMutability":"view"},{"type":"function","name":"feeCollector","inputs":[],"outputs":[{"name":"","type":"address","internalType":"contract FeeCollector"}],"stateMutability":"view"},{"type":"function","name":"getPlayerBet","inputs":[{"name":"roundId","type":"uint256","internalType":"uint256"},{"name":"player","type":"address","internalType":"address"}],"outputs":[{"name":"","type":"tuple","internalType":"struct CrashGame.PlayerBet","components":[{"name":"player","type":"address","internalType":"address"},{"name":"amount","type":"uint256","internalType":"uint256"},{"name":"feeAmount","type":"uint256","internalType":"uint256"},{"name":"cashOutMultiplierBps","type":"uint256","internalType":"uint256"},{"name":"cashedOut","type":"bool","internalType":"bool"},{"name":"payout","type":"uint256","internalType":"uint256"}]}],"stateMutability":"view"},{"type":"function","name":"getRound","inputs":[{"name":"roundId","type":"uint256","internalType":"uint256"}],"outputs":[{"name":"","type":"tuple","internalType":"struct CrashGame.Round","components":[{"name":"roundId","type":"uint256","internalType":"uint256"},{"name":"status","type":"uint8","internalType":"enum CrashGame.RoundStatus"},{"name":"serverCommitHash","type":"bytes32","internalType":"bytes32"},{"name":"serverSeed","type":"bytes32","internalType":"bytes32"},{"name":"crashPointBps","type":"uint256","internalType":"uint256"},{"name":"bettingEndTime","type":"uint256","internalType":"uint256"},{"name":"startTime","type":"uint256","internalType":"uint256"},{"name":"totalBets","type":"uint256","internalType":"uint256"},{"name":"totalPayouts","type":"uint256","internalType":"uint256"},{"name":"playerCount","type":"uint256","internalType":"uint256"}]}],"stateMutability":"view"},{"type":"function","name":"getRoundPlayers","inputs":[{"name":"roundId","type":"uint256","internalType":"uint256"}],"outputs":[{"name":"","type":"tuple[]","internalType":"struct CrashGame.PlayerBet[]","components":[{"name":"player","type":"address","internalType":"address"},{"name":"amount","type":"uint256","internalType":"uint256"},{"name":"feeAmount","type":"uint256","internalType":"uint256"},{"name":"cashOutMultiplierBps","type":"uint256","internalType":"uint256"},{"name":"cashedOut","type":"bool","internalType":"bool"},{"name":"payout","type":"uint256","internalType":"uint256"}]}],"stateMutability":"view"},{"type":"function","name":"leaderboard","inputs":[],"outputs":[{"name":"","type":"address","internalType":"contract Leaderboard"}],"stateMutability":"view"},{"type":"function","name":"operator","inputs":[],"outputs":[{"name":"","type":"address","internalType":"address"}],"stateMutability":"view"},{"type":"function","name":"owner","inputs":[],"outputs":[{"name":"","type":"address","internalType":"address"}],"stateMutability":"view"},{"type":"function","name":"paused","inputs":[],"outputs":[{"name":"","type":"bool","internalType":"bool"}],"stateMutability":"view"},{"type":"function","name":"pendingOwner","inputs":[],"outputs":[{"name":"","type":"address","internalType":"address"}],"stateMutability":"view"},{"type":"function","name":"placeBet","inputs":[{"name":"roundId","type":"uint256","internalType":"uint256"},{"name":"amount","type":"uint256","internalType":"uint256"}],"outputs":[],"stateMutability":"nonpayable"},{"type":"function","name":"placeBetWithSession","inputs":[{"name":"roundId","type":"uint256","internalType":"uint256"},{"name":"sessionId","type":"uint256","internalType":"uint256"},{"name":"amount","type":"uint256","internalType":"uint256"}],"outputs":[],"stateMutability":"nonpayable"},{"type":"function","name":"playerBetIndex","inputs":[{"name":"","type":"uint256","internalType":"uint256"},{"name":"","type":"address","internalType":"address"}],"outputs":[{"name":"","type":"uint256","internalType":"uint256"}],"stateMutability":"view"},{"type":"function","name":"renounceOwnership","inputs":[],"outputs":[],"stateMutability":"nonpayable"},{"type":"function","name":"roundBets","inputs":[{"name":"","type":"uint256","internalType":"uint256"},{"name":"","type":"uint256","internalType":"uint256"}],"outputs":[{"name":"player","type":"address","internalType":"address"},{"name":"amount","type":"uint256","internalType":"uint256"},{"name":"feeAmount","type":"uint256","internalType":"uint256"},{"name":"cashOutMultiplierBps","type":"uint256","internalType":"uint256"},{"name":"cashedOut","type":"bool","internalType":"bool"},{"name":"payout","type":"uint256","internalType":"uint256"}],"stateMutability":"view"},{"type":"function","name":"rounds","inputs":[{"name":"","type":"uint256","internalType":"uint256"}],"outputs":[{"name":"roundId","type":"uint256","internalType":"uint256"},{"name":"status","type":"uint8","internalType":"enum CrashGame.RoundStatus"},{"name":"serverCommitHash","type":"bytes32","internalType":"bytes32"},{"name":"serverSeed","type":"bytes32","internalType":"bytes32"},{"name":"crashPointBps","type":"uint256","internalType":"uint256"},{"name":"bettingEndTime","type":"uint256","internalType":"uint256"},{"name":"startTime","type":"uint256","internalType":"uint256"},{"name":"totalBets","type":"uint256","internalType":"uint256"},{"name":"totalPayouts","type":"uint256","internalType":"uint256"},{"name":"playerCount","type":"uint256","internalType":"uint256"}],"stateMutability":"view"},{"type":"function","name":"sessionManager","inputs":[],"outputs":[{"name":"","type":"address","internalType":"contract SessionManager"}],"stateMutability":"view"},{"type":"function","name":"setBettingDuration","inputs":[{"name":"_duration","type":"uint256","internalType":"uint256"}],"outputs":[],"stateMutability":"nonpayable"},{"type":"function","name":"setOperator","inputs":[{"name":"_operator","type":"address","internalType":"address"}],"outputs":[],"stateMutability":"nonpayable"},{"type":"function","name":"setPaused","inputs":[{"name":"_paused","type":"bool","internalType":"bool"}],"outputs":[],"stateMutability":"nonpayable"},{"type":"function","name":"startRound","inputs":[{"name":"serverCommitHash","type":"bytes32","internalType":"bytes32"}],"outputs":[{"name":"roundId","type":"uint256","internalType":"uint256"}],"stateMutability":"nonpayable"},{"type":"function","name":"token","inputs":[],"outputs":[{"name":"","type":"address","internalType":"contract IERC20"}],"stateMutability":"view"},{"type":"function","name":"transferOwnership","inputs":[{"name":"newOwner","type":"address","internalType":"address"}],"outputs":[],"stateMutability":"nonpayable"},{"type":"function","name":"vault","inputs":[],"outputs":[{"name":"","type":"address","internalType":"contract HouseVault"}],"stateMutability":"view"},{"type":"function","name":"verifyCrashPoint","inputs":[{"name":"serverSeed","type":"bytes32","internalType":"bytes32"},{"name":"roundId","type":"uint256","internalType":"uint256"}],"outputs":[{"name":"","type":"uint256","internalType":"uint256"}],"stateMutability":"pure"},{"type":"event","name":"BetPlaced","inputs":[{"name":"roundId","type":"uint256","indexed":true,"internalType":"uint256"},{"name":"player","type":"address","indexed":true,"internalType":"address"},{"name":"amount","type":"uint256","indexed":false,"internalType":"uint256"}],"anonymous":false},{"type":"event","name":"BettingDurationUpdated","inputs":[{"name":"oldDuration","type":"uint256","indexed":false,"internalType":"uint256"},{"name":"newDuration","type":"uint256","indexed":false,"internalType":"uint256"}],"anonymous":false},{"type":"event","name":"CashedOut","inputs":[{"name":"roundId","type":"uint256","indexed":true,"internalType":"uint256"},{"name":"player","type":"address","indexed":true,"internalType":"address"},{"name":"multiplierBps","type":"uint256","indexed":false,"internalType":"uint256"},{"name":"payout","type":"uint256","indexed":false,"internalType":"uint256"}],"anonymous":false},{"type":"event","name":"OperatorUpdated","inputs":[{"name":"oldOperator","type":"address","indexed":true,"internalType":"address"},{"name":"newOperator","type":"address","indexed":true,"internalType":"address"}],"anonymous":false},{"type":"event","name":"OwnershipTransferStarted","inputs":[{"name":"previousOwner","type":"address","indexed":true,"internalType":"address"},{"name":"newOwner","type":"address","indexed":true,"internalType":"address"}],"anonymous":false},{"type":"event","name":"OwnershipTransferred","inputs":[{"name":"previousOwner","type":"address","indexed":true,"internalType":"address"},{"name":"newOwner","type":"address","indexed":true,"internalType":"address"}],"anonymous":false},{"type":"event","name":"Paused","inputs":[{"name":"isPaused","type":"bool","indexed":false,"internalType":"bool"}],"anonymous":false},{"type":"event","name":"RoundCancelled","inputs":[{"name":"roundId","type":"uint256","indexed":true,"internalType":"uint256"}],"anonymous":false},{"type":"event","name":"RoundCrashed","inputs":[{"name":"roundId","type":"uint256","indexed":true,"internalType":"uint256"},{"name":"crashPointBps","type":"uint256","indexed":false,"internalType":"uint256"},{"name":"serverSeed","type":"bytes32","indexed":false,"internalType":"bytes32"}],"anonymous":false},{"type":"event","name":"RoundStarted","inputs":[{"name":"roundId","type":"uint256","indexed":true,"internalType":"uint256"},{"name":"serverCommitHash","type":"bytes32","indexed":false,"internalType":"bytes32"},{"name":"bettingEndTime","type":"uint256","indexed":false,"internalType":"uint256"}],"anonymous":false},{"type":"error","name":"AlreadyBet","inputs":[{"name":"roundId","type":"uint256","internalType":"uint256"},{"name":"player","type":"address","internalType":"address"}]},{"type":"error","name":"AlreadyCashedOut","inputs":[{"name":"roundId","type":"uint256","internalType":"uint256"},{"name":"player","type":"address","internalType":"address"}]},{"type":"error","name":"BetTooLarge","inputs":[{"name":"amount","type":"uint256","internalType":"uint256"},{"name":"max","type":"uint256","internalType":"uint256"}]},{"type":"error","name":"BettingWindowClosed","inputs":[{"name":"roundId","type":"uint256","internalType":"uint256"}]},{"type":"error","name":"BettingWindowNotClosed","inputs":[{"name":"roundId","type":"uint256","internalType":"uint256"}]},{"type":"error","name":"CashOutMultiplierTooHigh","inputs":[{"name":"requested","type":"uint256","internalType":"uint256"},{"name":"max","type":"uint256","internalType":"uint256"}]},{"type":"error","name":"GamePaused","inputs":[]},{"type":"error","name":"InvalidCashOutMultiplier","inputs":[]},{"type":"error","name":"InvalidServerSeed","inputs":[{"name":"roundId","type":"uint256","internalType":"uint256"}]},{"type":"error","name":"NoBetFound","inputs":[{"name":"roundId","type":"uint256","internalType":"uint256"},{"name":"player","type":"address","internalType":"address"}]},{"type":"error","name":"NotOperator","inputs":[]},{"type":"error","name":"OwnableInvalidOwner","inputs":[{"name":"owner","type":"address","internalType":"address"}]},{"type":"error","name":"OwnableUnauthorizedAccount","inputs":[{"name":"account","type":"address","internalType":"address"}]},{"type":"error","name":"ReentrancyGuardReentrantCall","inputs":[]},{"type":"error","name":"RoundNotInStatus","inputs":[{"name":"roundId","type":"uint256","internalType":"uint256"},{"name":"expected","type":"uint8","internalType":"enum CrashGame.RoundStatus"},{"name":"actual","type":"uint8","internalType":"enum CrashGame.RoundStatus"}]},{"type":"error","name":"RoundNotTimedOut","inputs":[{"name":"roundId","type":"uint256","internalType":"uint256"}]},{"type":"error","name":"RoundTimedOut","inputs":[{"name":"roundId","type":"uint256","internalType":"uint256"}]},{"type":"error","name":"SafeERC20FailedOperation","inputs":[{"name":"token","type":"address","internalType":"address"}]},{"type":"error","name":"TooManyPlayers","inputs":[{"name":"roundId","type":"uint256","internalType":"uint256"}]},{"type":"error","name":"ZeroAddress","inputs":[]},{"type":"error","name":"ZeroAmount","inputs":[]}],"bytecode":{"object":"0x61012060405234801562000011575f80fd5b506040516200260738038062002607833981016040819052620000349162000151565b33806200005a57604051631e4fbdf760e01b81525f600482015260240160405180910390fd5b6200006581620000cf565b5060017f9b779b17422d0df92223018b32b4d1fa46e071723d6817e2486d003becc55f00556001600160a01b0396871660805294861660a05292851660c05290841660e052831661010052600280546001600160a01b0319169190931617909155600355620001eb565b600180546001600160a01b0319169055620000ea81620000ed565b50565b5f80546001600160a01b038381166001600160a01b0319831681178455604051919092169283917f8be0079c531659141344cd1fd0a4f28419497f9722a3daafe3b4186f6b6457e09190a35050565b6001600160a01b0381168114620000ea575f80fd5b5f805f805f805f60e0888a03121562000168575f80fd5b875162000175816200013c565b602089015190975062000188816200013c565b60408901519096506200019b816200013c565b6060890151909550620001ae816200013c565b6080890151909450620001c1816200013c565b60a0890151909350620001d4816200013c565b8092505060c0880151905092959891949750929550565b60805160a05160c05160e0516101005161237c6200028b5f395f818161059701528181610b970152610c3601525f818161051001528181611a3c01528181611c900152611ce201525f81816104e9015261150e01525f81816105fb01528181610b0b0152818161113f0152818161147a0152818161197901528181611c000152611d6001525f818161062201528181611c220152611c6d015261237c5ff3fe608060405234801561000f575f80fd5b5060043610610234575f3560e01c806392fd803d11610135578063d567877e116100b4578063f0e609a111610079578063f0e609a1146105b9578063f2fde38b146105e3578063fbfa77cf146105f6578063fc0c546a1461061d578063fd16a2e714610644575f80fd5b8063d567877e1461053b578063d83a45951461054e578063dd99717d14610561578063e30c397814610581578063eb56b74014610592575f80fd5b8063b7b13f79116100fa578063b7b13f79146104e4578063c321949b1461024d578063c415b95c1461050b578063cd7636c414610532578063d0db0ade146102a1575f80fd5b806392fd803d146104a357806399bc6964146104b65780639cbe5efd146104be578063a4b17965146104c7578063b3ab15fb146104d1575f80fd5b80635c975abb116101c15780637e07ab09116101865780637e07ab091461035157806381b79267146103645780638c65c81f146103fa5780638da5cb5b146104735780638f1327c014610483575f80fd5b80635c975abb146102fb578063715018a61461031857806375a2b6ca14610320578063776e11dd1461032957806379ba509714610349575f80fd5b8063219a35a411610207578063219a35a41461028e578063249d39e9146102a157806337404885146102aa5780634afe62b5146102bd578063570ca735146102d0575f80fd5b80630cd45fe31461023857806314b1e0e41461024d57806316c38b3c14610268578063218ead0e1461027b575b5f80fd5b61024b610246366004611f80565b610657565b005b610255606481565b6040519081526020015b60405180910390f35b61024b610276366004611f97565b610721565b61024b610289366004611fbd565b610770565b61024b61029c366004611fbd565b61092b565b61025561271081565b6102556102b8366004611f80565b610cec565b61024b6102cb366004611fbd565b610e8d565b6002546102e3906001600160a01b031681565b6040516001600160a01b03909116815260200161025f565b6008546103089060ff1681565b604051901515815260200161025f565b61024b610eb6565b610255610e1081565b61033c610337366004611f80565b610ec9565b60405161025f919061201f565b61024b610fd7565b61024b61035f366004611f80565b61101b565b6103c1610372366004611fbd565b600660209081525f92835260408084209091529082529020805460018201546002830154600384015460048501546005909501546001600160a01b039094169492939192909160ff9091169086565b604080516001600160a01b03909716875260208701959095529385019290925260608401521515608083015260a082015260c00161025f565b61045d610408366004611f80565b600560208190525f91825260409091208054600182015460028301546003840154600485015495850154600686015460078701546008880154600990980154969860ff9096169794969395949293919290918a565b60405161025f9a999897969594939291906120a0565b5f546001600160a01b03166102e3565b610496610491366004611f80565b6111e3565b60405161025f91906120f5565b6102556104b1366004611fbd565b6112e0565b610255606281565b61025560045481565b610255620f424081565b61024b6104df366004612180565b6112f4565b6102e37f000000000000000000000000000000000000000000000000000000000000000081565b6102e37f000000000000000000000000000000000000000000000000000000000000000081565b61025560035481565b61024b610549366004611f80565b611374565b61024b61055c36600461219b565b6114db565b61057461056f3660046121c4565b6115a9565b60405161025f91906121f2565b6001546001600160a01b03166102e3565b6102e37f000000000000000000000000000000000000000000000000000000000000000081565b6102556105c73660046121c4565b600760209081525f928352604080842090915290825290205481565b61024b6105f1366004612180565b611688565b6102e37f000000000000000000000000000000000000000000000000000000000000000081565b6102e37f000000000000000000000000000000000000000000000000000000000000000081565b61024b610652366004611f80565b6116f8565b6002546001600160a01b0316331461068257604051631f0853c160e21b815260040160405180910390fd5b5f81815260056020526040902060018082015460ff1660048111156106a9576106a961206c565b146106e05760018181015460405163aab35d7360e01b81526106d7928592909160ff90911690600401612200565b60405180910390fd5b80600501544210156107085760405163307e5c3960e21b8152600481018390526024016106d7565b60018101805460ff191660021790554260069091015550565b610729611745565b6008805460ff19168215159081179091556040519081527f0e2fb031ee032dc02d8011dc50b816eb450cf856abd8261680dac74f72165bd29060200160405180910390a150565b610778611771565b5f8281526005602052604090206002600182015460ff1660048111156107a0576107a061206c565b146107cc57600181015460405163aab35d7360e01b81526106d791859160029160ff1690600401612200565b6127108210156107ef57604051636fd5f14d60e01b815260040160405180910390fd5b620f424082111561081f576040516359f6b9c560e11b815260048101839052620f424060248201526044016106d7565b5f838152600760209081526040808320338452909152812054908190036108625760405163625e022160e01b8152600481018590523360248201526044016106d7565b5f8481526006602052604081208161087b60018561223d565b815260208101919091526040015f20600481015490915060ff16156108bc57604051635d6292b560e11b8152600481018690523360248201526044016106d7565b60048101805460ff1916600117905560038101849055604080518581525f6020820152339187917fd2856efdbe6f44f49bc7dc20ff9901add2c8050f0facc8ff9db5c2cb2262c93c910160405180910390a350505061092760015f8051602061232783398151915255565b5050565b610933611771565b6002546001600160a01b0316331461095e57604051631f0853c160e21b815260040160405180910390fd5b5f8281526005602052604090206002600182015460ff1660048111156109865761098661206c565b146109b257600181015460405163aab35d7360e01b81526106d791859160029160ff1690600401612200565b610e1081600601546109c49190612250565b42106109e65760405163084c51eb60e11b8152600481018490526024016106d7565b60028101546040805160208101859052016040516020818303038152906040528051906020012014610a2e5760405163511b7dcf60e11b8152600481018490526024016106d7565b5f610a39838561178c565b60038381018590556004840182905560018401805460ff1916909117905560098301549091505f5b81811015610c97575f8681526006602090815260408083208484529091529020600481015460ff168015610a99575083816003015411155b15610bf8575f61271082600301548360010154610ab69190612263565b610ac0919061228e565b905080826005018190555080866008015f828254610ade9190612250565b9091555050815460405163cf8d133f60e01b81526001600160a01b039182166004820152602481018390527f00000000000000000000000000000000000000000000000000000000000000009091169063cf8d133f906044015f604051808303815f87803b158015610b4e575f80fd5b505af1158015610b60573d5f803e3d5ffd5b5050835460018501546040516376703c2d60e11b81526001600160a01b0392831660048201526024810191909152604481018590527f0000000000000000000000000000000000000000000000000000000000000000909116925063ece0785a91506064015f604051808303815f87803b158015610bdc575f80fd5b505af1158015610bee573d5f803e3d5ffd5b5050505050610c8e565b5f60058201819055815460018301546040516376703c2d60e11b81526001600160a01b039283166004820152602481019190915260448101929092527f0000000000000000000000000000000000000000000000000000000000000000169063ece0785a906064015f604051808303815f87803b158015610c77575f80fd5b505af1158015610c89573d5f803e3d5ffd5b505050505b50600101610a61565b50604080518381526020810186905286917fe8ac91133d0b8812077672d3b8946dcb6da3dd5aaf94f3153e511738cfd96f3a910160405180910390a250505061092760015f8051602061232783398151915255565b6002545f906001600160a01b03163314610d1957604051631f0853c160e21b815260040160405180910390fd5b60085460ff1615610d3d5760405163379a7ed960e01b815260040160405180910390fd5b60045f8154610d4b906122a1565b918290555060408051610140810190915281815290915060208101600181526020018381526020015f801b81526020015f815260200160035442610d8f9190612250565b81525f6020808301829052604080840183905260608401839052608090930182905284825260058152919020825181559082015160018083018054909160ff1990911690836004811115610de557610de561206c565b021790555060408201518160020155606082015181600301556080820151816004015560a0820151816005015560c0820151816006015560e0820151816007015561010082015181600801556101208201518160090155905050807f4011864dacdca122d3079c2892c7266e327a3cc5e98fae433169dd339aaedd808360035442610e709190612250565b6040805192835260208301919091520160405180910390a2919050565b610e95611771565b610ea082338361183c565b61092760015f8051602061232783398151915255565b610ebe611745565b610ec75f611e05565b565b5f81815260056020526040812060098101546060928167ffffffffffffffff811115610ef757610ef76122b9565b604051908082528060200260200182016040528015610f3057816020015b610f1d611f45565b815260200190600190039081610f155790505b5090505f5b82811015610fce575f868152600660209081526040808320848452825291829020825160c08101845281546001600160a01b0316815260018201549281019290925260028101549282019290925260038201546060820152600482015460ff161515608082015260059091015460a08201528251839083908110610fbb57610fbb6122cd565b6020908102919091010152600101610f35565b50949350505050565b60015433906001600160a01b0316811461100f5760405163118cdaa760e01b81526001600160a01b03821660048201526024016106d7565b61101881611e05565b50565b611023611771565b6002546001600160a01b0316331461104e57604051631f0853c160e21b815260040160405180910390fd5b5f81815260056020526040902060018082015460ff1660048111156110755761107561206c565b1415801561109c57506002600182015460ff1660048111156110995761109961206c565b14155b156110ca5760018181015460405163aab35d7360e01b81526106d7928592909160ff90911690600401612200565b60018101805460ff1916600417905560098101545f5b818110156111a0575f848152600660209081526040808320848452909152902060018101541561119757600181015460058201819055815460405163cf8d133f60e01b81526001600160a01b03918216600482015260248101929092527f0000000000000000000000000000000000000000000000000000000000000000169063cf8d133f906044015f604051808303815f87803b158015611180575f80fd5b505af1158015611192573d5f803e3d5ffd5b505050505b506001016110e0565b5060405183907fbf7aeff89cf7a4c3d0145879e39aa6a19e8e64ed585090ef86bf31f4d2ae57bf905f90a2505061101860015f8051602061232783398151915255565b6112376040805161014081019091525f808252602082019081526020015f80191681526020015f80191681526020015f81526020015f81526020015f81526020015f81526020015f81526020015f81525090565b5f8281526005602090815260409182902082516101408101909352805483526001810154909183019060ff1660048111156112745761127461206c565b60048111156112855761128561206c565b815260028201546020820152600382015460408201526004820154606082015260058201546080820152600682015460a0820152600782015460c0820152600882015460e08201526009909101546101009091015292915050565b5f6112eb838361178c565b90505b92915050565b6112fc611745565b6001600160a01b0381166113235760405163d92e233d60e01b815260040160405180910390fd5b600280546001600160a01b038381166001600160a01b0319831681179093556040519116919082907ffbe5b6cbafb274f445d7fed869dc77a838d8243a22c460de156560e8857cad03905f90a35050565b61137c611771565b5f8181526005602052604090206002600182015460ff1660048111156113a4576113a461206c565b146113d057600181015460405163aab35d7360e01b81526106d791849160029160ff1690600401612200565b610e1081600601546113e29190612250565b4210156114055760405163058f1bbf60e51b8152600481018390526024016106d7565b60018101805460ff1916600417905560098101545f5b818110156111a0575f84815260066020908152604080832084845290915290206001810154156114d257600181015460058201819055815460405163cf8d133f60e01b81526001600160a01b03918216600482015260248101929092527f0000000000000000000000000000000000000000000000000000000000000000169063cf8d133f906044015f604051808303815f87803b1580156114bb575f80fd5b505af11580156114cd573d5f803e3d5ffd5b505050505b5060010161141b565b6114e3611771565b60405163f7aec64d60e01b815260048101839052336024820152306044820152606481018290525f907f00000000000000000000000000000000000000000000000000000000000000006001600160a01b03169063f7aec64d906084016020604051808303815f875af115801561155c573d5f803e3d5ffd5b505050506040513d601f19601f8201168201806040525081019061158091906122e1565b905061158d84828461183c565b506115a460015f8051602061232783398151915255565b505050565b6115b1611f45565b5f8381526007602090815260408083206001600160a01b0386168452909152812054908190036116065760405163625e022160e01b8152600481018590526001600160a01b03841660248201526044016106d7565b5f8481526006602052604081209061161f60018461223d565b815260208082019290925260409081015f20815160c08101835281546001600160a01b0316815260018201549381019390935260028101549183019190915260038101546060830152600481015460ff16151560808301526005015460a0820152949350505050565b611690611745565b600180546001600160a01b0383166001600160a01b031990911681179091556116c05f546001600160a01b031690565b6001600160a01b03167f38d16b8cac22d99fc7c124b9cd0de2d3fa1faef420bfe791d8c362d765e2270060405160405180910390a350565b611700611745565b600380549082905560408051828152602081018490527fb7acbe8a2a2dbf816c655f7d20c2e77f6c9c2b3e01719f45ad51abc254bdc111910160405180910390a15050565b5f546001600160a01b03163314610ec75760405163118cdaa760e01b81523360048201526024016106d7565b611779611e1e565b60025f8051602061232783398151915255565b5f8083836040516020016117aa929190918252602082015260400190565b60408051601f1981840301815291905280516020909101209050805f6117d76610000000000000836122fc565b6117e2906001612250565b90505f6117f78267064000000000000061228e565b90505f6064611807606284612263565b611811919061228e565b90505f61181f826064612263565b905061271081101561183057506127105b98975050505050505050565b60085460ff16156118605760405163379a7ed960e01b815260040160405180910390fd5b805f0361188057604051631f2a200560e01b815260040160405180910390fd5b5f83815260056020526040902060018082015460ff1660048111156118a7576118a761206c565b146118d55760018181015460405163aab35d7360e01b81526106d7928792909160ff90911690600401612200565b806005015442106118fc5760405163072c7ca160e41b8152600481018590526024016106d7565b5f8481526007602090815260408083206001600160a01b03871684529091529020541561194e57604051630682897360e51b8152600481018590526001600160a01b03841660248201526044016106d7565b606481600901541061197657604051634dd806e960e01b8152600481018590526024016106d7565b5f7f00000000000000000000000000000000000000000000000000000000000000006001600160a01b0316632e5b21686040518163ffffffff1660e01b8152600401602060405180830381865afa1580156119d3573d5f803e3d5ffd5b505050506040513d601f19601f820116820180604052508101906119f7919061230f565b905080831115611a2457604051631a768ccb60e21b815260048101849052602481018290526044016106d7565b6040516399a5d74760e01b8152600481018490525f907f00000000000000000000000000000000000000000000000000000000000000006001600160a01b0316906399a5d74790602401602060405180830381865afa158015611a89573d5f803e3d5ffd5b505050506040513d601f19601f82011682018060405250810190611aad919061230f565b90505f611aba828661223d565b60098501805491925081905f611acf836122a1565b919050555081856007015f828254611ae79190612250565b90915550611af89050816001612250565b60075f8a81526020019081526020015f205f896001600160a01b03166001600160a01b031681526020019081526020015f20819055506040518060c00160405280886001600160a01b031681526020018381526020018481526020015f81526020015f151581526020015f81525060065f8a81526020019081526020015f205f8381526020019081526020015f205f820151815f015f6101000a8154816001600160a01b0302191690836001600160a01b031602179055506020820151816001015560408201518160020155606082015181600301556080820151816004015f6101000a81548160ff02191690831515021790555060a08201518160050155905050611c5a877f0000000000000000000000000000000000000000000000000000000000000000847f00000000000000000000000000000000000000000000000000000000000000006001600160a01b0316611e4d909392919063ffffffff16565b8215611d3a57611cb56001600160a01b037f000000000000000000000000000000000000000000000000000000000000000016887f000000000000000000000000000000000000000000000000000000000000000086611e4d565b6040516326885e3360e21b81526001600160a01b03888116600483015260248201889052604482018590527f00000000000000000000000000000000000000000000000000000000000000001690639a2178cc906064015f604051808303815f87803b158015611d23575f80fd5b505af1158015611d35573d5f803e3d5ffd5b505050505b6040516376950c4960e11b81526001600160a01b038881166004830152602482018490527f0000000000000000000000000000000000000000000000000000000000000000169063ed2a1892906044015f604051808303815f87803b158015611da1575f80fd5b505af1158015611db3573d5f803e3d5ffd5b50505050866001600160a01b0316887f87b9df6fa7123c2e6044c3a3a37b4b0662c188d7a58ef86ee55067c46e4613ad84604051611df391815260200190565b60405180910390a35050505050505050565b600180546001600160a01b031916905561101881611e89565b5f8051602061232783398151915254600203610ec757604051633ee5aeb560e01b815260040160405180910390fd5b611e5b848484846001611ed8565b611e8357604051635274afe760e01b81526001600160a01b03851660048201526024016106d7565b50505050565b5f80546001600160a01b038381166001600160a01b0319831681178455604051919092169283917f8be0079c531659141344cd1fd0a4f28419497f9722a3daafe3b4186f6b6457e09190a35050565b6040516323b872dd60e01b5f8181526001600160a01b038781166004528616602452604485905291602083606481808c5af1925060015f51148316611f34578383151615611f28573d5f823e3d81fd5b5f883b113d1516831692505b604052505f60605295945050505050565b6040518060c001604052805f6001600160a01b031681526020015f81526020015f81526020015f81526020015f151581526020015f81525090565b5f60208284031215611f90575f80fd5b5035919050565b5f60208284031215611fa7575f80fd5b81358015158114611fb6575f80fd5b9392505050565b5f8060408385031215611fce575f80fd5b50508035926020909101359150565b80516001600160a01b0316825260208082015190830152604080820151908301526060808201519083015260808082015115159083015260a090810151910152565b602080825282518282018190525f9190848201906040850190845b818110156120605761204d838551611fdd565b9284019260c0929092019160010161203a565b50909695505050505050565b634e487b7160e01b5f52602160045260245ffd5b6005811061209c57634e487b7160e01b5f52602160045260245ffd5b9052565b8a815261014081016120b5602083018c612080565b60408201999099526060810197909752608087019590955260a086019390935260c085019190915260e08401526101008301526101209091015292915050565b8151815260208083015161014083019161211190840182612080565b5060408301516040830152606083015160608301526080830151608083015260a083015160a083015260c083015160c083015260e083015160e083015261010080840151818401525061012080840151818401525092915050565b6001600160a01b0381168114611018575f80fd5b5f60208284031215612190575f80fd5b8135611fb68161216c565b5f805f606084860312156121ad575f80fd5b505081359360208301359350604090920135919050565b5f80604083850312156121d5575f80fd5b8235915060208301356121e78161216c565b809150509250929050565b60c081016112ee8284611fdd565b838152606081016122146020830185612080565b6122216040830184612080565b949350505050565b634e487b7160e01b5f52601160045260245ffd5b818103818111156112ee576112ee612229565b808201808211156112ee576112ee612229565b80820281158282048414176112ee576112ee612229565b634e487b7160e01b5f52601260045260245ffd5b5f8261229c5761229c61227a565b500490565b5f600182016122b2576122b2612229565b5060010190565b634e487b7160e01b5f52604160045260245ffd5b634e487b7160e01b5f52603260045260245ffd5b5f602082840312156122f1575f80fd5b8151611fb68161216c565b5f8261230a5761230a61227a565b500690565b5f6020828403121561231f575f80fd5b505191905056fe9b779b17422d0df92223018b32b4d1fa46e071723d6817e2486d003becc55f00a26469706673582212205e00f6b80155144bd4ebfb143277ebd4171fd0daa6ab678ad3cd8557b28faceb64736f6c63430008180033","linkReferences":{}},"methodIdentifiers":{"BPS()":"249d39e9","HOUSE_EDGE_DENOMINATOR()":"c321949b","HOUSE_EDGE_NUMERATOR()":"99bc6964","MAX_CASHOUT_MULTIPLIER_BPS()":"a4b17965","MAX_PLAYERS_PER_ROUND()":"14b1e0e4","MIN_CRASH_BPS()":"d0db0ade","ROUND_TIMEOUT()":"75a2b6ca","acceptOwnership()":"79ba5097","beginRound(uint256)":"0cd45fe3","bettingDuration()":"cd7636c4","cancelRound(uint256)":"7e07ab09","cashOut(uint256,uint256)":"218ead0e","claimRoundTimeout(uint256)":"d567877e","crashRound(uint256,bytes32)":"219a35a4","currentRoundId()":"9cbe5efd","feeCollector()":"c415b95c","getPlayerBet(uint256,address)":"dd99717d","getRound(uint256)":"8f1327c0","getRoundPlayers(uint256)":"776e11dd","leaderboard()":"eb56b740","operator()":"570ca735","owner()":"8da5cb5b","paused()":"5c975abb","pendingOwner()":"e30c3978","placeBet(uint256,uint256)":"4afe62b5","placeBetWithSession(uint256,uint256,uint256)":"d83a4595","playerBetIndex(uint256,address)":"f0e609a1","renounceOwnership()":"715018a6","roundBets(uint256,uint256)":"81b79267","rounds(uint256)":"8c65c81f","sessionManager()":"b7b13f79","setBettingDuration(uint256)":"fd16a2e7","setOperator(address)":"b3ab15fb","setPaused(bool)":"16c38b3c","startRound(bytes32)":"37404885","token()":"fc0c546a","transferOwnership(address)":"f2fde38b","vault()":"fbfa77cf","verifyCrashPoint(bytes32,uint256)":"92fd803d"},"id":46}