{"abi":[{"type":"constructor","inputs":[{"name":"asset_","type":"address","internalType":"contract IERC20"}],"stateMutability":"nonpayable"},{"type":"function","name":"EPOCH_DURATION","inputs":[],"outputs":[{"name":"","type":"uint256","internalType":"uint256"}],"stateMutability":"view"},{"type":"function","name":"MAX_BET_DIVISOR","inputs":[],"outputs":[{"name":"","type":"uint256","internalType":"uint256"}],"stateMutability":"view"},{"type":"function","name":"acceptOwnership","inputs":[],"outputs":[],"stateMutability":"nonpayable"},{"type":"function","name":"allowance","inputs":[{"name":"owner","type":"address","internalType":"address"},{"name":"spender","type":"address","internalType":"address"}],"outputs":[{"name":"","type":"uint256","internalType":"uint256"}],"stateMutability":"view"},{"type":"function","name":"approve","inputs":[{"name":"spender","type":"address","internalType":"address"},{"name":"value","type":"uint256","internalType":"uint256"}],"outputs":[{"name":"","type":"bool","internalType":"bool"}],"stateMutability":"nonpayable"},{"type":"function","name":"asset","inputs":[],"outputs":[{"name":"","type":"address","internalType":"address"}],"stateMutability":"view"},{"type":"function","name":"authorizeGame","inputs":[{"name":"game","type":"address","internalType":"address"}],"outputs":[],"stateMutability":"nonpayable"},{"type":"function","name":"authorizedGames","inputs":[{"name":"","type":"address","internalType":"address"}],"outputs":[{"name":"","type":"bool","internalType":"bool"}],"stateMutability":"view"},{"type":"function","name":"balanceOf","inputs":[{"name":"account","type":"address","internalType":"address"}],"outputs":[{"name":"","type":"uint256","internalType":"uint256"}],"stateMutability":"view"},{"type":"function","name":"bankroll","inputs":[],"outputs":[{"name":"","type":"uint256","internalType":"uint256"}],"stateMutability":"view"},{"type":"function","name":"convertToAssets","inputs":[{"name":"shares","type":"uint256","internalType":"uint256"}],"outputs":[{"name":"","type":"uint256","internalType":"uint256"}],"stateMutability":"view"},{"type":"function","name":"convertToShares","inputs":[{"name":"assets","type":"uint256","internalType":"uint256"}],"outputs":[{"name":"","type":"uint256","internalType":"uint256"}],"stateMutability":"view"},{"type":"function","name":"currentEpoch","inputs":[],"outputs":[{"name":"","type":"uint256","internalType":"uint256"}],"stateMutability":"view"},{"type":"function","name":"decimals","inputs":[],"outputs":[{"name":"","type":"uint8","internalType":"uint8"}],"stateMutability":"view"},{"type":"function","name":"deposit","inputs":[{"name":"assets","type":"uint256","internalType":"uint256"},{"name":"receiver","type":"address","internalType":"address"}],"outputs":[{"name":"","type":"uint256","internalType":"uint256"}],"stateMutability":"nonpayable"},{"type":"function","name":"epochPnL","inputs":[{"name":"","type":"uint256","internalType":"uint256"}],"outputs":[{"name":"","type":"int256","internalType":"int256"}],"stateMutability":"view"},{"type":"function","name":"epochStartTime","inputs":[],"outputs":[{"name":"","type":"uint256","internalType":"uint256"}],"stateMutability":"view"},{"type":"function","name":"gameCount","inputs":[],"outputs":[{"name":"","type":"uint256","internalType":"uint256"}],"stateMutability":"view"},{"type":"function","name":"gameList","inputs":[{"name":"","type":"uint256","internalType":"uint256"}],"outputs":[{"name":"","type":"address","internalType":"address"}],"stateMutability":"view"},{"type":"function","name":"getEpochPnL","inputs":[{"name":"epoch","type":"uint256","internalType":"uint256"}],"outputs":[{"name":"","type":"int256","internalType":"int256"}],"stateMutability":"view"},{"type":"function","name":"maxBet","inputs":[],"outputs":[{"name":"","type":"uint256","internalType":"uint256"}],"stateMutability":"view"},{"type":"function","name":"maxBetForMultiplier","inputs":[{"name":"multiplierBps","type":"uint256","internalType":"uint256"}],"outputs":[{"name":"","type":"uint256","internalType":"uint256"}],"stateMutability":"view"},{"type":"function","name":"maxDeposit","inputs":[{"name":"","type":"address","internalType":"address"}],"outputs":[{"name":"","type":"uint256","internalType":"uint256"}],"stateMutability":"view"},{"type":"function","name":"maxMint","inputs":[{"name":"","type":"address","internalType":"address"}],"outputs":[{"name":"","type":"uint256","internalType":"uint256"}],"stateMutability":"view"},{"type":"function","name":"maxRedeem","inputs":[{"name":"owner","type":"address","internalType":"address"}],"outputs":[{"name":"","type":"uint256","internalType":"uint256"}],"stateMutability":"view"},{"type":"function","name":"maxWithdraw","inputs":[{"name":"owner","type":"address","internalType":"address"}],"outputs":[{"name":"","type":"uint256","internalType":"uint256"}],"stateMutability":"view"},{"type":"function","name":"mint","inputs":[{"name":"shares","type":"uint256","internalType":"uint256"},{"name":"receiver","type":"address","internalType":"address"}],"outputs":[{"name":"","type":"uint256","internalType":"uint256"}],"stateMutability":"nonpayable"},{"type":"function","name":"name","inputs":[],"outputs":[{"name":"","type":"string","internalType":"string"}],"stateMutability":"view"},{"type":"function","name":"owner","inputs":[],"outputs":[{"name":"","type":"address","internalType":"address"}],"stateMutability":"view"},{"type":"function","name":"pendingOwner","inputs":[],"outputs":[{"name":"","type":"address","internalType":"address"}],"stateMutability":"view"},{"type":"function","name":"previewDeposit","inputs":[{"name":"assets","type":"uint256","internalType":"uint256"}],"outputs":[{"name":"","type":"uint256","internalType":"uint256"}],"stateMutability":"view"},{"type":"function","name":"previewMint","inputs":[{"name":"shares","type":"uint256","internalType":"uint256"}],"outputs":[{"name":"","type":"uint256","internalType":"uint256"}],"stateMutability":"view"},{"type":"function","name":"previewRedeem","inputs":[{"name":"shares","type":"uint256","internalType":"uint256"}],"outputs":[{"name":"","type":"uint256","internalType":"uint256"}],"stateMutability":"view"},{"type":"function","name":"previewWithdraw","inputs":[{"name":"assets","type":"uint256","internalType":"uint256"}],"outputs":[{"name":"","type":"uint256","internalType":"uint256"}],"stateMutability":"view"},{"type":"function","name":"recordBet","inputs":[{"name":"player","type":"address","internalType":"address"},{"name":"amount","type":"uint256","internalType":"uint256"}],"outputs":[],"stateMutability":"nonpayable"},{"type":"function","name":"redeem","inputs":[{"name":"shares","type":"uint256","internalType":"uint256"},{"name":"receiver","type":"address","internalType":"address"},{"name":"_owner","type":"address","internalType":"address"}],"outputs":[{"name":"","type":"uint256","internalType":"uint256"}],"stateMutability":"nonpayable"},{"type":"function","name":"renounceOwnership","inputs":[],"outputs":[],"stateMutability":"nonpayable"},{"type":"function","name":"revokeGame","inputs":[{"name":"game","type":"address","internalType":"address"}],"outputs":[],"stateMutability":"nonpayable"},{"type":"function","name":"sendPayout","inputs":[{"name":"player","type":"address","internalType":"address"},{"name":"amount","type":"uint256","internalType":"uint256"}],"outputs":[],"stateMutability":"nonpayable"},{"type":"function","name":"symbol","inputs":[],"outputs":[{"name":"","type":"string","internalType":"string"}],"stateMutability":"view"},{"type":"function","name":"totalAssets","inputs":[],"outputs":[{"name":"","type":"uint256","internalType":"uint256"}],"stateMutability":"view"},{"type":"function","name":"totalBetsReceived","inputs":[],"outputs":[{"name":"","type":"uint256","internalType":"uint256"}],"stateMutability":"view"},{"type":"function","name":"totalPayouts","inputs":[],"outputs":[{"name":"","type":"uint256","internalType":"uint256"}],"stateMutability":"view"},{"type":"function","name":"totalSupply","inputs":[],"outputs":[{"name":"","type":"uint256","internalType":"uint256"}],"stateMutability":"view"},{"type":"function","name":"transfer","inputs":[{"name":"to","type":"address","internalType":"address"},{"name":"value","type":"uint256","internalType":"uint256"}],"outputs":[{"name":"","type":"bool","internalType":"bool"}],"stateMutability":"nonpayable"},{"type":"function","name":"transferFrom","inputs":[{"name":"from","type":"address","internalType":"address"},{"name":"to","type":"address","internalType":"address"},{"name":"value","type":"uint256","internalType":"uint256"}],"outputs":[{"name":"","type":"bool","internalType":"bool"}],"stateMutability":"nonpayable"},{"type":"function","name":"transferOwnership","inputs":[{"name":"newOwner","type":"address","internalType":"address"}],"outputs":[],"stateMutability":"nonpayable"},{"type":"function","name":"validateBet","inputs":[{"name":"betAmount","type":"uint256","internalType":"uint256"}],"outputs":[],"stateMutability":"view"},{"type":"function","name":"withdraw","inputs":[{"name":"assets","type":"uint256","internalType":"uint256"},{"name":"receiver","type":"address","internalType":"address"},{"name":"_owner","type":"address","internalType":"address"}],"outputs":[{"name":"","type":"uint256","internalType":"uint256"}],"stateMutability":"nonpayable"},{"type":"event","name":"Approval","inputs":[{"name":"owner","type":"address","indexed":true,"internalType":"address"},{"name":"spender","type":"address","indexed":true,"internalType":"address"},{"name":"value","type":"uint256","indexed":false,"internalType":"uint256"}],"anonymous":false},{"type":"event","name":"BetReceived","inputs":[{"name":"game","type":"address","indexed":true,"internalType":"address"},{"name":"player","type":"address","indexed":true,"internalType":"address"},{"name":"amount","type":"uint256","indexed":false,"internalType":"uint256"}],"anonymous":false},{"type":"event","name":"Deposit","inputs":[{"name":"sender","type":"address","indexed":true,"internalType":"address"},{"name":"owner","type":"address","indexed":true,"internalType":"address"},{"name":"assets","type":"uint256","indexed":false,"internalType":"uint256"},{"name":"shares","type":"uint256","indexed":false,"internalType":"uint256"}],"anonymous":false},{"type":"event","name":"EpochAdvanced","inputs":[{"name":"epoch","type":"uint256","indexed":true,"internalType":"uint256"},{"name":"pnl","type":"int256","indexed":false,"internalType":"int256"}],"anonymous":false},{"type":"event","name":"GameAuthorized","inputs":[{"name":"game","type":"address","indexed":true,"internalType":"address"}],"anonymous":false},{"type":"event","name":"GameRevoked","inputs":[{"name":"game","type":"address","indexed":true,"internalType":"address"}],"anonymous":false},{"type":"event","name":"OwnershipTransferStarted","inputs":[{"name":"previousOwner","type":"address","indexed":true,"internalType":"address"},{"name":"newOwner","type":"address","indexed":true,"internalType":"address"}],"anonymous":false},{"type":"event","name":"OwnershipTransferred","inputs":[{"name":"previousOwner","type":"address","indexed":true,"internalType":"address"},{"name":"newOwner","type":"address","indexed":true,"internalType":"address"}],"anonymous":false},{"type":"event","name":"PayoutSent","inputs":[{"name":"game","type":"address","indexed":true,"internalType":"address"},{"name":"player","type":"address","indexed":true,"internalType":"address"},{"name":"amount","type":"uint256","indexed":false,"internalType":"uint256"}],"anonymous":false},{"type":"event","name":"Transfer","inputs":[{"name":"from","type":"address","indexed":true,"internalType":"address"},{"name":"to","type":"address","indexed":true,"internalType":"address"},{"name":"value","type":"uint256","indexed":false,"internalType":"uint256"}],"anonymous":false},{"type":"event","name":"Withdraw","inputs":[{"name":"sender","type":"address","indexed":true,"internalType":"address"},{"name":"receiver","type":"address","indexed":true,"internalType":"address"},{"name":"owner","type":"address","indexed":true,"internalType":"address"},{"name":"assets","type":"uint256","indexed":false,"internalType":"uint256"},{"name":"shares","type":"uint256","indexed":false,"internalType":"uint256"}],"anonymous":false},{"type":"error","name":"BetExceedsMaxBet","inputs":[{"name":"betAmount","type":"uint256","internalType":"uint256"},{"name":"maxBet","type":"uint256","internalType":"uint256"}]},{"type":"error","name":"ERC20InsufficientAllowance","inputs":[{"name":"spender","type":"address","internalType":"address"},{"name":"allowance","type":"uint256","internalType":"uint256"},{"name":"needed","type":"uint256","internalType":"uint256"}]},{"type":"error","name":"ERC20InsufficientBalance","inputs":[{"name":"sender","type":"address","internalType":"address"},{"name":"balance","type":"uint256","internalType":"uint256"},{"name":"needed","type":"uint256","internalType":"uint256"}]},{"type":"error","name":"ERC20InvalidApprover","inputs":[{"name":"approver","type":"address","internalType":"address"}]},{"type":"error","name":"ERC20InvalidReceiver","inputs":[{"name":"receiver","type":"address","internalType":"address"}]},{"type":"error","name":"ERC20InvalidSender","inputs":[{"name":"sender","type":"address","internalType":"address"}]},{"type":"error","name":"ERC20InvalidSpender","inputs":[{"name":"spender","type":"address","internalType":"address"}]},{"type":"error","name":"ERC4626ExceededMaxDeposit","inputs":[{"name":"receiver","type":"address","internalType":"address"},{"name":"assets","type":"uint256","internalType":"uint256"},{"name":"max","type":"uint256","internalType":"uint256"}]},{"type":"error","name":"ERC4626ExceededMaxMint","inputs":[{"name":"receiver","type":"address","internalType":"address"},{"name":"shares","type":"uint256","internalType":"uint256"},{"name":"max","type":"uint256","internalType":"uint256"}]},{"type":"error","name":"ERC4626ExceededMaxRedeem","inputs":[{"name":"owner","type":"address","internalType":"address"},{"name":"shares","type":"uint256","internalType":"uint256"},{"name":"max","type":"uint256","internalType":"uint256"}]},{"type":"error","name":"ERC4626ExceededMaxWithdraw","inputs":[{"name":"owner","type":"address","internalType":"address"},{"name":"assets","type":"uint256","internalType":"uint256"},{"name":"max","type":"uint256","internalType":"uint256"}]},{"type":"error","name":"GameAlreadyAuthorized","inputs":[]},{"type":"error","name":"GameNotAuthorized","inputs":[]},{"type":"error","name":"InsufficientBankroll","inputs":[{"name":"requested","type":"uint256","internalType":"uint256"},{"name":"available","type":"uint256","internalType":"uint256"}]},{"type":"error","name":"NotAuthorizedGame","inputs":[]},{"type":"error","name":"OwnableInvalidOwner","inputs":[{"name":"owner","type":"address","internalType":"address"}]},{"type":"error","name":"OwnableUnauthorizedAccount","inputs":[{"name":"account","type":"address","internalType":"address"}]},{"type":"error","name":"ReentrancyGuardReentrantCall","inputs":[]},{"type":"error","name":"SafeERC20FailedOperation","inputs":[{"name":"token","type":"address","internalType":"address"}]},{"type":"error","name":"ZeroAddress","inputs":[]},{"type":"error","name":"ZeroAmount","inputs":[]}],"bytecode":{"object":"0x60c060405234801562000010575f80fd5b50604051620024013803806200240183398101604081905262000033916200032d565b3381826001600160a01b03166395d89b416040518163ffffffff1660e01b81526004015f60405180830381865afa15801562000071573d5f803e3d5ffd5b505050506040513d5f823e601f3d908101601f191682016040526200009a919081019062000394565b604051602001620000ac919062000447565b604051602081830303815290604052836001600160a01b03166395d89b416040518163ffffffff1660e01b81526004015f60405180830381865afa158015620000f7573d5f803e3d5ffd5b505050506040513d5f823e601f3d908101601f1916820160405262000120919081019062000394565b60405160200162000132919062000480565b60408051601f19818403018152919052600362000150838262000536565b5060046200015f828262000536565b5050505f8062000175836200020460201b60201c565b91509150816200018757601262000189565b805b60ff1660a05250506001600160a01b039081166080528116620001c557604051631e4fbdf760e01b81525f600482015260240160405180910390fd5b620001d0816200029d565b5060017f9b779b17422d0df92223018b32b4d1fa46e071723d6817e2486d003becc55f00555042600a555f60095562000602565b5f80806200021160405190565b6040805160048152602481019091526020810180516001600160e01b0390811663313ce56760e01b179091529192505f9182916200025391889190620002bb16565b5090925090506200026383604052565b81801562000272575060203d10155b801562000280575060ff8111155b6200028d575f8062000291565b6001815b94509450505050915091565b600680546001600160a01b0319169055620002b881620002dc565b50565b5f805f60405f855160208701885afa92505f51915060205190509250925092565b600580546001600160a01b038381166001600160a01b0319831681179093556040519116919082907f8be0079c531659141344cd1fd0a4f28419497f9722a3daafe3b4186f6b6457e0905f90a35050565b5f602082840312156200033e575f80fd5b81516001600160a01b038116811462000355575f80fd5b9392505050565b634e487b7160e01b5f52604160045260245ffd5b5f5b838110156200038c57818101518382015260200162000372565b50505f910152565b5f60208284031215620003a5575f80fd5b81516001600160401b0380821115620003bc575f80fd5b818401915084601f830112620003d0575f80fd5b815181811115620003e557620003e56200035c565b604051601f8201601f19908116603f011681019083821181831017156200041057620004106200035c565b8160405282815287602084870101111562000429575f80fd5b6200043c83602083016020880162000370565b979650505050505050565b6f024b734ba34b0a132ba102b30bab63a160851b81525f82516200047381601085016020870162000370565b9190910160100192915050565b6234b13b60e91b81525f82516200049f81600385016020870162000370565b9190910160030192915050565b600181811c90821680620004c157607f821691505b602082108103620004e057634e487b7160e01b5f52602260045260245ffd5b50919050565b601f8211156200053157805f5260205f20601f840160051c810160208510156200050d5750805b601f840160051c820191505b818110156200052e575f815560010162000519565b50505b505050565b81516001600160401b038111156200055257620005526200035c565b6200056a81620005638454620004ac565b84620004e6565b602080601f831160018114620005a0575f8415620005885750858301515b5f19600386901b1c1916600185901b178555620005fa565b5f85815260208120601f198616915b82811015620005d057888601518255948401946001909101908401620005af565b5085821015620005ee57878501515f19600388901b60f8161c191681555b505060018460011b0185555b505050505050565b60805160a051611dba620006475f395f61096501525f818161038a015281816107cb01528181610cb101528181610dae015281816117a6015261183a0152611dba5ff3fe608060405234801561000f575f80fd5b50600436106102b1575f3560e01c806379ba50971161017b578063ba087652116100e4578063d905777e1161009e578063ed2a189211610079578063ed2a18921461060f578063ef8b30f71461057a578063f2fde38b14610622578063f60ca64114610635575f80fd5b8063d905777e146105b3578063dd62ed3e146105c6578063e30c3978146105fe575f80fd5b8063ba08765214610554578063c63d75b6146103c2578063c6cfd08e14610567578063c6e6f5921461057a578063ce96cb771461058d578063cf8d133f146105a0575f80fd5b80639e492b99116101355780639e492b99146104dc578063a6cab5e3146104fe578063a70b9f0c14610511578063a9059cbb1461051b578063b3d7f6b91461052e578063b460af9414610541575f80fd5b806379ba5097146104975780637bac47e91461049f578063844e4243146104a75780638da5cb5b146104b057806394bf804d146104c157806395d89b41146104d4575f80fd5b8063402d267d1161021d578063674164da116101d7578063674164da1461040d5780636e553f651461042c57806370a082311461043f578063715018a614610467578063766718081461046f57806376bac14914610478575f80fd5b8063402d267d146103c25780634089b170146103d65780634172c832146103df5780634cdad506146102fa5780634d1975b4146103f25780635e4402df146103fa575f80fd5b80630c657eb01161026e5780630c657eb01461034357806318160ddd1461034b57806323b872dd146103535780632e5b216814610366578063313ce5671461036e57806338d52e0f14610388575f80fd5b806301e086e1146102b557806301e1d114146102ca57806306fdde03146102e557806307a2d13a146102fa578063095ea7b31461030d5780630a28a47714610330575b5f80fd5b6102c86102c336600461194b565b61063e565b005b6102d26107c8565b6040519081526020015b60405180910390f35b6102ed610857565b6040516102dc9190611964565b6102d26103083660046119b0565b6108e7565b61032061031b3660046119c7565b6108f8565b60405190151581526020016102dc565b6102d261033e3660046119b0565b61090f565b6102d261091b565b6002546102d2565b6103206103613660046119ef565b610924565b6102d2610949565b61037661095e565b60405160ff90911681526020016102dc565b7f00000000000000000000000000000000000000000000000000000000000000005b6040516001600160a01b0390911681526020016102dc565b6102d26103d036600461194b565b505f1990565b6102d2600c5481565b6102d26103ed3660046119b0565b610989565b6008546102d2565b6102c861040836600461194b565b6109c1565b6102d261041b3660046119b0565b600b6020525f908152604090205481565b6102d261043a366004611a28565b610ab4565b6102d261044d36600461194b565b6001600160a01b03165f9081526020819052604090205490565b6102c8610adf565b6102d260095481565b6102d26104863660046119b0565b5f908152600b602052604090205490565b6102c8610af2565b6102d2603281565b6102d2600d5481565b6005546001600160a01b03166103aa565b6102d26104cf366004611a28565b610b3b565b6102ed610b4e565b6103206104ea36600461194b565b60076020525f908152604090205460ff1681565b6102c861050c3660046119b0565b610b5d565b6102d26201518081565b6103206105293660046119c7565b610b97565b6102d261053c3660046119b0565b610ba4565b6102d261054f366004611a52565b610bb0565b6102d2610562366004611a52565b610bdc565b6103aa6105753660046119b0565b610bf0565b6102d26105883660046119b0565b610c18565b6102d261059b36600461194b565b610c23565b6102c86105ae3660046119c7565b610c30565b6102d26105c136600461194b565b610e2b565b6102d26105d4366004611a8b565b6001600160a01b039182165f90815260016020908152604080832093909416825291909152205490565b6006546001600160a01b03166103aa565b6102c861061d3660046119c7565b610e48565b6102c861063036600461194b565b610f1e565b6102d2600a5481565b610646610f8f565b6001600160a01b0381165f9081526007602052604090205460ff1661067d5760405162a8591360e11b815260040160405180910390fd5b6001600160a01b0381165f908152600760205260408120805460ff19169055600854905b8181101561079057826001600160a01b0316600882815481106106c6576106c6611ab3565b5f918252602090912001546001600160a01b0316036107885760086106ec600184611adb565b815481106106fc576106fc611ab3565b5f91825260209091200154600880546001600160a01b03909216918390811061072757610727611ab3565b905f5260205f20015f6101000a8154816001600160a01b0302191690836001600160a01b03160217905550600880548061076357610763611aee565b5f8281526020902081015f1990810180546001600160a01b0319169055019055610790565b6001016106a1565b506040516001600160a01b038316907f78b7f19de299af2e39976ccb793c72d123a2a5960c69bfde2f8c8e53437fdb1b905f90a25050565b5f7f00000000000000000000000000000000000000000000000000000000000000006040516370a0823160e01b81523060048201526001600160a01b0391909116906370a0823190602401602060405180830381865afa15801561082e573d5f803e3d5ffd5b505050506040513d601f19601f820116820180604052508101906108529190611b02565b905090565b60606003805461086690611b19565b80601f016020809104026020016040519081016040528092919081815260200182805461089290611b19565b80156108dd5780601f106108b4576101008083540402835291602001916108dd565b820191905f5260205f20905b8154815290600101906020018083116108c057829003601f168201915b5050505050905090565b5f6108f2825f610fbc565b92915050565b5f33610905818585610ff4565b5060019392505050565b5f6108f2826001611006565b5f6108526107c8565b5f33610931858285611035565b61093c85858561109e565b60019150505b9392505050565b5f60326109546107c8565b6108529190611b65565b5f610852817f0000000000000000000000000000000000000000000000000000000000000000611b78565b5f815f0361099857505f919050565b6109a3826032611b91565b6109ab6107c8565b6109b790612710611b91565b6108f29190611b65565b6109c9610f8f565b6001600160a01b0381166109f05760405163d92e233d60e01b815260040160405180910390fd5b6001600160a01b0381165f9081526007602052604090205460ff1615610a2957604051633a9f06cb60e11b815260040160405180910390fd5b6001600160a01b0381165f81815260076020526040808220805460ff1916600190811790915560088054918201815583527ff3f7a9fe364faab93b216da50a3214154f22a0a2b415b23a84c8169e8b636ee30180546001600160a01b03191684179055517f84a81ad072505ad49c4e9a66bfcdb55a2cff07cb4ea59ec7dc9cb27a38196a4d9190a250565b5f610abd6110fb565b610ac78383611116565b90506108f260015f80516020611d6583398151915255565b610ae7610f8f565b610af05f611139565b565b60065433906001600160a01b03168114610b2f5760405163118cdaa760e01b81526001600160a01b03821660048201526024015b60405180910390fd5b610b3881611139565b50565b5f610b446110fb565b610ac78383611152565b60606004805461086690611b19565b5f610b66610949565b905080821115610b935760405163f7bc019d60e01b81526004810183905260248101829052604401610b26565b5050565b5f3361090581858561109e565b5f6108f2826001610fbc565b5f610bb96110fb565b610bc484848461116d565b905061094260015f80516020611d6583398151915255565b5f610be56110fb565b610bc48484846111c3565b60088181548110610bff575f80fd5b5f918252602090912001546001600160a01b0316905081565b5f6108f2825f611006565b5f6108f261030883610e2b565b610c386110fb565b335f9081526007602052604090205460ff16610c675760405163032d9f6960e01b815260040160405180910390fd5b805f03610c8757604051631f2a200560e01b815260040160405180910390fd5b6001600160a01b038216610cae5760405163d92e233d60e01b815260040160405180910390fd5b5f7f00000000000000000000000000000000000000000000000000000000000000006040516370a0823160e01b81523060048201526001600160a01b0391909116906370a0823190602401602060405180830381865afa158015610d14573d5f803e3d5ffd5b505050506040513d601f19601f82011682018060405250810190610d389190611b02565b905080821115610d65576040516304ce40a160e31b81526004810183905260248101829052604401610b26565b610d6d611210565b81600c5f828254610d7e9190611ba8565b90915550506009545f908152600b602052604081208054849290610da3908490611bbb565b90915550610dd490507f00000000000000000000000000000000000000000000000000000000000000008484611286565b6040518281526001600160a01b0384169033907f5ecf33093f778646ae21c608ad088c14a5037b003907bdc9b2d3c16c10269c6a9060200160405180910390a350610b9360015f80516020611d6583398151915255565b6001600160a01b0381165f908152602081905260408120546108f2565b335f9081526007602052604090205460ff16610e775760405163032d9f6960e01b815260040160405180910390fd5b805f03610e9757604051631f2a200560e01b815260040160405180910390fd5b610e9f611210565b80600d5f828254610eb09190611ba8565b90915550506009545f908152600b602052604081208054839290610ed5908490611be1565b90915550506040518181526001600160a01b0383169033907f90f90d3546cd2969f77049edf8a1c98235120aa5da10f083e83e0bfebc1968369060200160405180910390a35050565b610f26610f8f565b600680546001600160a01b0383166001600160a01b03199091168117909155610f576005546001600160a01b031690565b6001600160a01b03167f38d16b8cac22d99fc7c124b9cd0de2d3fa1faef420bfe791d8c362d765e2270060405160405180910390a350565b6005546001600160a01b03163314610af05760405163118cdaa760e01b8152336004820152602401610b26565b5f610942610fc86107c8565b610fd3906001611ba8565b610fde5f600a611ce8565b600254610feb9190611ba8565b859190856112bb565b61100183838360016112fd565b505050565b5f61094261101582600a611ce8565b6002546110229190611ba8565b61102a6107c8565b610feb906001611ba8565b6001600160a01b038381165f908152600160209081526040808320938616835292905220545f19811015611098578181101561108a57828183604051637dc7a0d960e11b8152600401610b2693929190611cf6565b61109884848484035f6112fd565b50505050565b6001600160a01b0383166110c757604051634b637e8f60e11b81525f6004820152602401610b26565b6001600160a01b0382166110f05760405163ec442f0560e01b81525f6004820152602401610b26565b6110018383836113cf565b6111036114e2565b60025f80516020611d6583398151915255565b5f5f195f61112385610c18565b905061113133858784611511565b949350505050565b600680546001600160a01b0319169055610b3881611573565b5f5f195f61115f85610ba4565b905061113133858388611511565b5f8061117883610c23565b9050808511156111a157828582604051633fa733bb60e21b8152600401610b2693929190611cf6565b5f6111ab8661090f565b90506111ba33868689856115c4565b95945050505050565b5f806111ce83610e2b565b9050808511156111f757828582604051632e52afbb60e21b8152600401610b2693929190611cf6565b5f611201866108e7565b90506111ba338686848a6115c4565b62015180600a546112219190611ba8565b4210610af0576009545f818152600b60209081526040918290205491519182527ff491959b10fa79b627f20a4940093708fe0da1fd97139fee87573a7692600f07910160405180910390a260098054905f61127b83611d17565b909155505042600a55565b6112938383836001611663565b61100157604051635274afe760e01b81526001600160a01b0384166004820152602401610b26565b5f6112e86112c8836116c5565b80156112e357505f84806112de576112de611b51565b868809115b151590565b6112f38686866116f1565b6111ba9190611ba8565b6001600160a01b0384166113265760405163e602df0560e01b81525f6004820152602401610b26565b6001600160a01b03831661134f57604051634a1406b160e11b81525f6004820152602401610b26565b6001600160a01b038085165f908152600160209081526040808320938716835292905220829055801561109857826001600160a01b0316846001600160a01b03167f8c5be1e5ebec7d5bd14f71427d1e84f3dd0314c0f7b2291e5b200ac8c7c3b925846040516113c191815260200190565b60405180910390a350505050565b6001600160a01b0383166113f9578060025f8282546113ee9190611ba8565b909155506114569050565b6001600160a01b0383165f90815260208190526040902054818110156114385783818360405163391434e360e21b8152600401610b2693929190611cf6565b6001600160a01b0384165f9081526020819052604090209082900390555b6001600160a01b03821661147257600280548290039055611490565b6001600160a01b0382165f9081526020819052604090208054820190555b816001600160a01b0316836001600160a01b03167fddf252ad1be2c89b69c2b068fc378daa952ba7f163c4a11628f55a4df523b3ef836040516114d591815260200190565b60405180910390a3505050565b5f80516020611d6583398151915254600203610af057604051633ee5aeb560e01b815260040160405180910390fd5b61151b84836117a1565b61152583826117cd565b826001600160a01b0316846001600160a01b03167fdcbc1c05240f31ff3ad067ef1ee35ce4997762752e3a095284754544f4c709d784846040516113c1929190918252602082015260400190565b600580546001600160a01b038381166001600160a01b0319831681179093556040519116919082907f8be0079c531659141344cd1fd0a4f28419497f9722a3daafe3b4186f6b6457e0905f90a35050565b826001600160a01b0316856001600160a01b0316146115e8576115e8838683611035565b6115f28382611801565b6115fc8483611835565b826001600160a01b0316846001600160a01b0316866001600160a01b03167ffbde797d201c681b91056529119e0b02407c7bb96a4a2c75c01fc9667232c8db8585604051611654929190918252602082015260400190565b60405180910390a45050505050565b60405163a9059cbb60e01b5f8181526001600160a01b038616600452602485905291602083604481808b5af1925060015f511483166116b95783831516156116ad573d5f823e3d81fd5b5f873b113d1516831692505b60405250949350505050565b5f60028260038111156116da576116da611d2f565b6116e49190611d43565b60ff166001149050919050565b5f805f6116fe8686611860565b91509150815f036117225783818161171857611718611b51565b0492505050610942565b81841161173957611739600385150260111861187c565b5f848688095f868103871696879004966002600389028118808a02820302808a02820302808a02820302808a02820302808a02820302808a02909103029181900381900460010185841190960395909502919093039390930492909217029150509392505050565b610b937f000000000000000000000000000000000000000000000000000000000000000083308461188d565b6001600160a01b0382166117f65760405163ec442f0560e01b81525f6004820152602401610b26565b610b935f83836113cf565b6001600160a01b03821661182a57604051634b637e8f60e11b81525f6004820152602401610b26565b610b93825f836113cf565b610b937f00000000000000000000000000000000000000000000000000000000000000008383611286565b5f805f1983850993909202808410938190039390930393915050565b634e487b715f52806020526024601cfd5b61189b8484848460016118c3565b61109857604051635274afe760e01b81526001600160a01b0385166004820152602401610b26565b6040516323b872dd60e01b5f8181526001600160a01b038781166004528616602452604485905291602083606481808c5af1925060015f5114831661191f578383151615611913573d5f823e3d81fd5b5f883b113d1516831692505b604052505f60605295945050505050565b80356001600160a01b0381168114611946575f80fd5b919050565b5f6020828403121561195b575f80fd5b61094282611930565b5f602080835283518060208501525f5b8181101561199057858101830151858201604001528201611974565b505f604082860101526040601f19601f8301168501019250505092915050565b5f602082840312156119c0575f80fd5b5035919050565b5f80604083850312156119d8575f80fd5b6119e183611930565b946020939093013593505050565b5f805f60608486031215611a01575f80fd5b611a0a84611930565b9250611a1860208501611930565b9150604084013590509250925092565b5f8060408385031215611a39575f80fd5b82359150611a4960208401611930565b90509250929050565b5f805f60608486031215611a64575f80fd5b83359250611a7460208501611930565b9150611a8260408501611930565b90509250925092565b5f8060408385031215611a9c575f80fd5b611aa583611930565b9150611a4960208401611930565b634e487b7160e01b5f52603260045260245ffd5b634e487b7160e01b5f52601160045260245ffd5b818103818111156108f2576108f2611ac7565b634e487b7160e01b5f52603160045260245ffd5b5f60208284031215611b12575f80fd5b5051919050565b600181811c90821680611b2d57607f821691505b602082108103611b4b57634e487b7160e01b5f52602260045260245ffd5b50919050565b634e487b7160e01b5f52601260045260245ffd5b5f82611b7357611b73611b51565b500490565b60ff81811683821601908111156108f2576108f2611ac7565b80820281158282048414176108f2576108f2611ac7565b808201808211156108f2576108f2611ac7565b8181035f831280158383131683831282161715611bda57611bda611ac7565b5092915050565b8082018281125f831280158216821582161715611c0057611c00611ac7565b505092915050565b600181815b80851115611c4257815f1904821115611c2857611c28611ac7565b80851615611c3557918102915b93841c9390800290611c0d565b509250929050565b5f82611c58575060016108f2565b81611c6457505f6108f2565b8160018114611c7a5760028114611c8457611ca0565b60019150506108f2565b60ff841115611c9557611c95611ac7565b50506001821b6108f2565b5060208310610133831016604e8410600b8410161715611cc3575081810a6108f2565b611ccd8383611c08565b805f1904821115611ce057611ce0611ac7565b029392505050565b5f61094260ff841683611c4a565b6001600160a01b039390931683526020830191909152604082015260600190565b5f60018201611d2857611d28611ac7565b5060010190565b634e487b7160e01b5f52602160045260245ffd5b5f60ff831680611d5557611d55611b51565b8060ff8416069150509291505056fe9b779b17422d0df92223018b32b4d1fa46e071723d6817e2486d003becc55f00a26469706673582212201eb3be5916a8491a1a050a2ead0ef2f02301f151b693bcbbc866e16b17d40b7764736f6c63430008180033","linkReferences":{}},"methodIdentifiers":{"EPOCH_DURATION()":"a70b9f0c","MAX_BET_DIVISOR()":"7bac47e9","acceptOwnership()":"79ba5097","allowance(address,address)":"dd62ed3e","approve(address,uint256)":"095ea7b3","asset()":"38d52e0f","authorizeGame(address)":"5e4402df","authorizedGames(address)":"9e492b99","balanceOf(address)":"70a08231","bankroll()":"0c657eb0","convertToAssets(uint256)":"07a2d13a","convertToShares(uint256)":"c6e6f592","currentEpoch()":"76671808","decimals()":"313ce567","deposit(uint256,address)":"6e553f65","epochPnL(uint256)":"674164da","epochStartTime()":"f60ca641","gameCount()":"4d1975b4","gameList(uint256)":"c6cfd08e","getEpochPnL(uint256)":"76bac149","maxBet()":"2e5b2168","maxBetForMultiplier(uint256)":"4172c832","maxDeposit(address)":"402d267d","maxMint(address)":"c63d75b6","maxRedeem(address)":"d905777e","maxWithdraw(address)":"ce96cb77","mint(uint256,address)":"94bf804d","name()":"06fdde03","owner()":"8da5cb5b","pendingOwner()":"e30c3978","previewDeposit(uint256)":"ef8b30f7","previewMint(uint256)":"b3d7f6b9","previewRedeem(uint256)":"4cdad506","previewWithdraw(uint256)":"0a28a477","recordBet(address,uint256)":"ed2a1892","redeem(uint256,address,address)":"ba087652","renounceOwnership()":"715018a6","revokeGame(address)":"01e086e1","sendPayout(address,uint256)":"cf8d133f","symbol()":"95d89b41","totalAssets()":"01e1d114","totalBetsReceived()":"844e4243","totalPayouts()":"4089b170","totalSupply()":"18160ddd","transfer(address,uint256)":"a9059cbb","transferFrom(address,address,uint256)":"23b872dd","transferOwnership(address)":"f2fde38b","validateBet(uint256)":"a6cab5e3","withdraw(uint256,address,address)":"b460af94"},"id":42}